{
  "contractName": "Peggy",
  "abi": [
    {
      "constant": true,
      "inputs": [
        {
          "name": "index",
          "type": "uint256"
        }
      ],
      "name": "getPower",
      "outputs": [
        {
          "name": "",
          "type": "uint64"
        }
      ],
      "payable": false,
      "stateMutability": "view",
      "type": "function"
    },
    {
      "constant": false,
      "inputs": [
        {
          "name": "to",
          "type": "bytes"
        },
        {
          "name": "value",
          "type": "uint64"
        },
        {
          "name": "token",
          "type": "address"
        }
      ],
      "name": "lock",
      "outputs": [
        {
          "name": "",
          "type": "bool"
        }
      ],
      "payable": true,
      "stateMutability": "payable",
      "type": "function"
    },
    {
      "constant": true,
      "inputs": [
        {
          "name": "",
          "type": "uint256"
        }
      ],
      "name": "powers",
      "outputs": [
        {
          "name": "",
          "type": "uint64"
        }
      ],
      "payable": false,
      "stateMutability": "view",
      "type": "function"
    },
    {
      "constant": true,
      "inputs": [],
      "name": "getTotalPower",
      "outputs": [
        {
          "name": "",
          "type": "uint64"
        }
      ],
      "payable": false,
      "stateMutability": "view",
      "type": "function"
    },
    {
      "constant": false,
      "inputs": [
        {
          "name": "addressArg",
          "type": "address[2]"
        },
        {
          "name": "value",
          "type": "uint64"
        },
        {
          "name": "idxs",
          "type": "uint16[]"
        },
        {
          "name": "v",
          "type": "uint8[]"
        },
        {
          "name": "r",
          "type": "bytes32[]"
        },
        {
          "name": "s",
          "type": "bytes32[]"
        }
      ],
      "name": "unlock",
      "outputs": [
        {
          "name": "",
          "type": "bool"
        }
      ],
      "payable": false,
      "stateMutability": "nonpayable",
      "type": "function"
    },
    {
      "constant": true,
      "inputs": [
        {
          "name": "hash",
          "type": "bytes32"
        },
        {
          "name": "idxs",
          "type": "uint16[]"
        },
        {
          "name": "v",
          "type": "uint8[]"
        },
        {
          "name": "r",
          "type": "bytes32[]"
        },
        {
          "name": "s",
          "type": "bytes32[]"
        }
      ],
      "name": "verifyValidators",
      "outputs": [
        {
          "name": "",
          "type": "bool"
        }
      ],
      "payable": false,
      "stateMutability": "view",
      "type": "function"
    },
    {
      "constant": false,
      "inputs": [
        {
          "name": "newAddress",
          "type": "address[]"
        },
        {
          "name": "newPowers",
          "type": "uint64[]"
        },
        {
          "name": "idxs",
          "type": "uint16[]"
        },
        {
          "name": "v",
          "type": "uint8[]"
        },
        {
          "name": "r",
          "type": "bytes32[]"
        },
        {
          "name": "s",
          "type": "bytes32[]"
        }
      ],
      "name": "update",
      "outputs": [
        {
          "name": "",
          "type": "bool"
        }
      ],
      "payable": false,
      "stateMutability": "nonpayable",
      "type": "function"
    },
    {
      "constant": true,
      "inputs": [
        {
          "name": "index",
          "type": "uint256"
        }
      ],
      "name": "getValidator",
      "outputs": [
        {
          "name": "",
          "type": "address"
        }
      ],
      "payable": false,
      "stateMutability": "view",
      "type": "function"
    },
    {
      "constant": true,
      "inputs": [],
      "name": "totalPower",
      "outputs": [
        {
          "name": "",
          "type": "uint64"
        }
      ],
      "payable": false,
      "stateMutability": "view",
      "type": "function"
    },
    {
      "constant": true,
      "inputs": [
        {
          "name": "",
          "type": "uint256"
        }
      ],
      "name": "addresses",
      "outputs": [
        {
          "name": "",
          "type": "address"
        }
      ],
      "payable": false,
      "stateMutability": "view",
      "type": "function"
    },
    {
      "inputs": [
        {
          "name": "initAddress",
          "type": "address[]"
        },
        {
          "name": "initPowers",
          "type": "uint64[]"
        }
      ],
      "payable": false,
      "stateMutability": "nonpayable",
      "type": "constructor"
    },
    {
      "anonymous": false,
      "inputs": [
        {
          "indexed": false,
          "name": "to",
          "type": "bytes"
        },
        {
          "indexed": false,
          "name": "value",
          "type": "uint64"
        },
        {
          "indexed": false,
          "name": "token",
          "type": "address"
        }
      ],
      "name": "Lock",
      "type": "event"
    },
    {
      "anonymous": false,
      "inputs": [
        {
          "indexed": false,
          "name": "to",
          "type": "address"
        },
        {
          "indexed": false,
          "name": "value",
          "type": "uint64"
        },
        {
          "indexed": false,
          "name": "token",
          "type": "address"
        }
      ],
      "name": "Unlock",
      "type": "event"
    },
    {
      "anonymous": false,
      "inputs": [
        {
          "indexed": false,
          "name": "newAddresses",
          "type": "address[]"
        },
        {
          "indexed": false,
          "name": "newPowers",
          "type": "uint64[]"
        },
        {
          "indexed": true,
          "name": "seq",
          "type": "uint256"
        }
      ],
      "name": "Update",
      "type": "event"
    }
  ],
  "bytecode": "0x6060604052600060035534156200001557600080fd5b60405162001e7938038062001e798339810160405280805182019190602001805182019190505081816200005e8282620000696401000000000262001375176401000000009004565b5050505050620005a1565b60008060008451845180821415156200008157600080fd5b8651606481111515156200009457600080fd5b8751604051805910620000a45750595b908082528060200260200182016040525060009080519060200190620000cc929190620003cf565b508651604051805910620000dd5750595b908082528060200260200182016040525060019080519060200190620001059291906200045e565b506000600260006101000a81548167ffffffffffffffff021916908367ffffffffffffffff160217905550600094505b87518510156200027d5787858151811015156200014e57fe5b906020019060200201516000868154811015156200016857fe5b906000526020600020900160006101000a81548173ffffffffffffffffffffffffffffffffffffffff021916908373ffffffffffffffffffffffffffffffffffffffff1602179055508685815181101515620001c057fe5b90602001906020020151600186815481101515620001da57fe5b90600052602060002090600491828204019190066008026101000a81548167ffffffffffffffff021916908367ffffffffffffffff16021790555086858151811015156200022457fe5b90602001906020020151600260008282829054906101000a900467ffffffffffffffff160192506101000a81548167ffffffffffffffff021916908367ffffffffffffffff160217905550848060010195505062000135565b6003549350837f41e3e7fbffa8e8d5523f548e6d8f0130b20aa4615fe6d442dae2db7172c84e4a6000600160405180806020018060200183810383528581815481526020019150805480156200032957602002820191906000526020600020905b8160009054906101000a900473ffffffffffffffffffffffffffffffffffffffff1673ffffffffffffffffffffffffffffffffffffffff1681526020019060010190808311620002de575b505083810382528481815481526020019150805480156200039e57602002820191906000526020600020906000905b82829054906101000a900467ffffffffffffffff1667ffffffffffffffff1681526020019060080190602082600701049283019260010382029150808411620003585790505b505094505050505060405180910390a260036000815480929190600101919050555060019550505050505092915050565b8280548282559060005260206000209081019282156200044b579160200282015b828111156200044a5782518260006101000a81548173ffffffffffffffffffffffffffffffffffffffff021916908373ffffffffffffffffffffffffffffffffffffffff16021790555091602001919060010190620003f0565b5b5090506200045a919062000521565b5090565b828054828255906000526020600020906003016004900481019282156200050e5791602002820160005b83821115620004d657835183826101000a81548167ffffffffffffffff021916908367ffffffffffffffff160217905550926020019260080160208160070104928301926001030262000488565b80156200050c5782816101000a81549067ffffffffffffffff0219169055600801602081600701049283019260010302620004d6565b505b5090506200051d919062000567565b5090565b6200056491905b808211156200056057600081816101000a81549073ffffffffffffffffffffffffffffffffffffffff02191690555060010162000528565b5090565b90565b6200059e91905b808211156200059a57600081816101000a81549067ffffffffffffffff0219169055506001016200056e565b5090565b90565b6118c880620005b16000396000f3006060604052600436106100a4576000357c0100000000000000000000000000000000000000000000000000000000900463ffffffff168063017fe809146100a957806302b87902146100f457806340c1bfab1461016157806353976a26146101ac5780635d2568e4146101e957806374601e691461028557806391fa6d1f146103c4578063b5d8962714610576578063db3ad22c146105d9578063edf26d9b14610616575b600080fd5b34156100b457600080fd5b6100ca6004808035906020019091905050610679565b604051808267ffffffffffffffff1667ffffffffffffffff16815260200191505060405180910390f35b6101476004808035906020019082018035906020019190919290803567ffffffffffffffff1690602001909190803573ffffffffffffffffffffffffffffffffffffffff169060200190919050506106d2565b604051808215151515815260200191505060405180910390f35b341561016c57600080fd5b61018260048080359060200190919050506108dc565b604051808267ffffffffffffffff1667ffffffffffffffff16815260200191505060405180910390f35b34156101b757600080fd5b6101bf610919565b604051808267ffffffffffffffff1667ffffffffffffffff16815260200191505060405180910390f35b34156101f457600080fd5b61026b60048080604001909190803567ffffffffffffffff169060200190919080359060200190820180359060200191909192908035906020019082018035906020019190919290803590602001908201803590602001919091929080359060200190820180359060200191909192905050610937565b604051808215151515815260200191505060405180910390f35b341561029057600080fd5b6103aa60048080356000191690602001909190803590602001908201803590602001908080602002602001604051908101604052809392919081815260200183836020028082843782019150505050505091908035906020019082018035906020019080806020026020016040519081016040528093929190818152602001838360200280828437820191505050505050919080359060200190820180359060200190808060200260200160405190810160405280939291908181526020018383602002808284378201915050505050509190803590602001908201803590602001908080602002602001604051908101604052809392919081815260200183836020028082843782019150505050505091905050610e46565b604051808215151515815260200191505060405180910390f35b34156103cf57600080fd5b61055c600480803590602001908201803590602001908080602002602001604051908101604052809392919081815260200183836020028082843782019150505050505091908035906020019082018035906020019080806020026020016040519081016040528093929190818152602001838360200280828437820191505050505050919080359060200190820180359060200190808060200260200160405190810160405280939291908181526020018383602002808284378201915050505050509190803590602001908201803590602001908080602002602001604051908101604052809392919081815260200183836020028082843782019150505050505091908035906020019082018035906020019080806020026020016040519081016040528093929190818152602001838360200280828437820191505050505050919080359060200190820180359060200190808060200260200160405190810160405280939291908181526020018383602002808284378201915050505050509190505061107d565b604051808215151515815260200191505060405180910390f35b341561058157600080fd5b6105976004808035906020019091905050611146565b604051808273ffffffffffffffffffffffffffffffffffffffff1673ffffffffffffffffffffffffffffffffffffffff16815260200191505060405180910390f35b34156105e457600080fd5b6105ec6111a1565b604051808267ffffffffffffffff1667ffffffffffffffff16815260200191505060405180910390f35b341561062157600080fd5b61063760048080359060200190919050506111bb565b604051808273ffffffffffffffffffffffffffffffffffffffff1673ffffffffffffffffffffffffffffffffffffffff16815260200191505060405180910390f35b600081600180549050808210151561069057600080fd5b60018481548110151561069f57fe5b90600052602060002090600491828204019190066008029054906101000a900467ffffffffffffffff1692505050919050565b60008073ffffffffffffffffffffffffffffffffffffffff168273ffffffffffffffffffffffffffffffffffffffff161415610722578267ffffffffffffffff163414151561071d57fe5b61082f565b8173ffffffffffffffffffffffffffffffffffffffff166323b872dd3330866000604051602001526040518463ffffffff167c0100000000000000000000000000000000000000000000000000000000028152600401808473ffffffffffffffffffffffffffffffffffffffff1673ffffffffffffffffffffffffffffffffffffffff1681526020018373ffffffffffffffffffffffffffffffffffffffff1673ffffffffffffffffffffffffffffffffffffffff1681526020018267ffffffffffffffff1681526020019350505050602060405180830381600087803b151561080b57600080fd5b6102c65a03f1151561081c57600080fd5b50505060405180519050151561082e57fe5b5b7faee3d4d5787da8a9356f2b767f5ef3f8b14ee4c240ba40769df0ad4b2be5a20e8585858560405180806020018467ffffffffffffffff1667ffffffffffffffff1681526020018373ffffffffffffffffffffffffffffffffffffffff1673ffffffffffffffffffffffffffffffffffffffff168152602001828103825286868281815260200192508082843782019150509550505050505060405180910390a160019050949350505050565b6001818154811015156108eb57fe5b9060005260206000209060049182820401919006600802915054906101000a900467ffffffffffffffff1681565b6000600260009054906101000a900467ffffffffffffffff16905090565b60008060017f0100000000000000000000000000000000000000000000000000000000000000028c600060028110151561096d57fe5b602002013573ffffffffffffffffffffffffffffffffffffffff168c60405180847effffffffffffffffffffffffffffffffffffffffffffffffffffffffffffff19167effffffffffffffffffffffffffffffffffffffffffffffffffffffffffffff191681526001018373ffffffffffffffffffffffffffffffffffffffff1673ffffffffffffffffffffffffffffffffffffffff166c010000000000000000000000000281526014018267ffffffffffffffff1667ffffffffffffffff167801000000000000000000000000000000000000000000000000028152600801935050505060405180910390209050610b25818b8b808060200260200160405190810160405280939291908181526020018383602002808284378201915050505050508a8a80806020026020016040519081016040528093929190818152602001838360200280828437820191505050505050898980806020026020016040519081016040528093929190818152602001838360200280828437820191505050505050888880806020026020016040519081016040528093929190818152602001838360200280828437820191505050505050610e46565b1515610b3057600080fd5b600073ffffffffffffffffffffffffffffffffffffffff168c6001600281101515610b5757fe5b602002013573ffffffffffffffffffffffffffffffffffffffff1673ffffffffffffffffffffffffffffffffffffffff161415610c03578b6000600281101515610b9d57fe5b602002013573ffffffffffffffffffffffffffffffffffffffff1673ffffffffffffffffffffffffffffffffffffffff166108fc8c67ffffffffffffffff169081150290604051600060405180830381858888f193505050501515610bfe57fe5b610d2e565b8b6001600281101515610c1257fe5b602002013573ffffffffffffffffffffffffffffffffffffffff1673ffffffffffffffffffffffffffffffffffffffff1663a9059cbb8d6001600281101515610c5757fe5b602002013573ffffffffffffffffffffffffffffffffffffffff168d6000604051602001526040518363ffffffff167c0100000000000000000000000000000000000000000000000000000000028152600401808373ffffffffffffffffffffffffffffffffffffffff1673ffffffffffffffffffffffffffffffffffffffff1681526020018267ffffffffffffffff16815260200192505050602060405180830381600087803b1515610d0a57600080fd5b6102c65a03f11515610d1b57600080fd5b505050604051805190501515610d2d57fe5b5b7f0133fdf0eff61956d0e969416cb7263bcde11e532e184d59a5ef3f640e56e30d8c6000600281101515610d5e57fe5b602002013573ffffffffffffffffffffffffffffffffffffffff168c8e6001600281101515610d8957fe5b602002013573ffffffffffffffffffffffffffffffffffffffff16604051808473ffffffffffffffffffffffffffffffffffffffff1673ffffffffffffffffffffffffffffffffffffffff1681526020018367ffffffffffffffff1667ffffffffffffffff1681526020018273ffffffffffffffffffffffffffffffffffffffff1673ffffffffffffffffffffffffffffffffffffffff168152602001935050505060405180910390a160019150509a9950505050505050505050565b6000806000808751600080549050808211151515610e6357600080fd5b89518951895189518284148015610e7957508183145b8015610e8457508082145b1515610e8f57600080fd5b60009850600096505b8d51871015611025578d87815181101515610eaf57fe5b9060200190602002015161ffff16975060018710158015610ef857508d60018803815181101515610edc57fe5b9060200190602002015161ffff168867ffffffffffffffff1611155b15610f06576000995061106b565b610fba8f8e8a67ffffffffffffffff16815181101515610f2257fe5b906020019060200201518e8b67ffffffffffffffff16815181101515610f4457fe5b906020019060200201518e8c67ffffffffffffffff16815181101515610f6657fe5b9060200190602002015160008d67ffffffffffffffff16815481101515610f8957fe5b906000526020600020900160009054906101000a900473ffffffffffffffffffffffffffffffffffffffff166111fa565b156110185760018e88815181101515610fcf57fe5b9060200190602002015161ffff16815481101515610fe957fe5b90600052602060002090600491828204019190066008029054906101000a900467ffffffffffffffff16890198505b8680600101975050610e98565b60028060009054906101000a900467ffffffffffffffff160267ffffffffffffffff1660038a0267ffffffffffffffff16111515611066576000995061106b565b600199505b50505050505050505095945050505050565b600086518651808214151561109157600080fd5b611115898960405180838051906020019060200280838360005b838110156110c65780820151818401526020810190506110ab565b50505050905001828051906020019060200280838360005b838110156110f95780820151818401526020810190506110de565b5050505090500192505050604051809103902088888888610e46565b151561111d57fe5b6111278989611375565b15611135576001925061113a565b600092505b50509695505050505050565b600081600080549050808210151561115d57600080fd5b60008481548110151561116c57fe5b906000526020600020900160009054906101000a900473ffffffffffffffffffffffffffffffffffffffff1692505050919050565b600260009054906101000a900467ffffffffffffffff1681565b6000818154811015156111ca57fe5b90600052602060002090016000915054906101000a900473ffffffffffffffffffffffffffffffffffffffff1681565b60006112046116c8565b60006040805190810160405280601c81526020017f19457468657265756d205369676e6564204d6573736167653a0a333200000000815250915081886040518083805190602001908083835b6020831015156112755780518252602082019150602081019050602083039250611250565b6001836020036101000a038019825116818451168082178552505050505050905001826000191660001916815260200192505050604051809103902090508373ffffffffffffffffffffffffffffffffffffffff16600182898989604051600081526020016040526000604051602001526040518085600019166000191681526020018460ff1660ff16815260200183600019166000191681526020018260001916600019168152602001945050505050602060405160208103908084039060008661646e5a03f1151561134857600080fd5b50506020604051035173ffffffffffffffffffffffffffffffffffffffff16149250505095945050505050565b600080600084518451808214151561138c57600080fd5b86516064811115151561139e57600080fd5b87516040518059106113ad5750595b9080825280602002602001820160405250600090805190602001906113d39291906116dc565b5086516040518059106113e35750595b908082528060200260200182016040525060019080519060200190611409929190611766565b506000600260006101000a81548167ffffffffffffffff021916908367ffffffffffffffff160217905550600094505b875185101561157a57878581518110151561145057fe5b9060200190602002015160008681548110151561146957fe5b906000526020600020900160006101000a81548173ffffffffffffffffffffffffffffffffffffffff021916908373ffffffffffffffffffffffffffffffffffffffff16021790555086858151811015156114c057fe5b906020019060200201516001868154811015156114d957fe5b90600052602060002090600491828204019190066008026101000a81548167ffffffffffffffff021916908367ffffffffffffffff160217905550868581518110151561152257fe5b90602001906020020151600260008282829054906101000a900467ffffffffffffffff160192506101000a81548167ffffffffffffffff021916908367ffffffffffffffff1602179055508480600101955050611439565b6003549350837f41e3e7fbffa8e8d5523f548e6d8f0130b20aa4615fe6d442dae2db7172c84e4a60006001604051808060200180602001838103835285818154815260200191508054801561162457602002820191906000526020600020905b8160009054906101000a900473ffffffffffffffffffffffffffffffffffffffff1673ffffffffffffffffffffffffffffffffffffffff16815260200190600101908083116115da575b5050838103825284818154815260200191508054801561169757602002820191906000526020600020906000905b82829054906101000a900467ffffffffffffffff1667ffffffffffffffff16815260200190600801906020826007010492830192600103820291508084116116525790505b505094505050505060405180910390a260036000815480929190600101919050555060019550505050505092915050565b602060405190810160405280600081525090565b828054828255906000526020600020908101928215611755579160200282015b828111156117545782518260006101000a81548173ffffffffffffffffffffffffffffffffffffffff021916908373ffffffffffffffffffffffffffffffffffffffff160217905550916020019190600101906116fc565b5b5090506117629190611822565b5090565b828054828255906000526020600020906003016004900481019282156118115791602002820160005b838211156117db57835183826101000a81548167ffffffffffffffff021916908367ffffffffffffffff160217905550926020019260080160208160070104928301926001030261178f565b801561180f5782816101000a81549067ffffffffffffffff02191690556008016020816007010492830192600103026117db565b505b50905061181e9190611865565b5090565b61186291905b8082111561185e57600081816101000a81549073ffffffffffffffffffffffffffffffffffffffff021916905550600101611828565b5090565b90565b61189991905b8082111561189557600081816101000a81549067ffffffffffffffff02191690555060010161186b565b5090565b905600a165627a7a72305820c30a9fa46fd7f7e3f8a2ba851450651cb2691aedc2d8ecedfacefed919d5afc80029",
  "source": "pragma solidity ^0.4.17;\n\nimport \"./CosmosERC20.sol\";\nimport \"./Valset.sol\";\n\ncontract Peggy is Valset {\n    mapping (bytes => CosmosERC20) cosmosTokenAddress;\n\n    function getCosmosTokenAddress(bytes name) internal constant returns (address) {\n        return cosmosTokenAddress[name];\n    }\n\n    event Lock(bytes to, uint64 value, address token);\n\n\n    /// Locks received funds to the consensus of the peg zone\n    /*\n     * @param to          bytes representation of destination address\n     * @param value       value of transference\n     * @param token       token address in origin chain (0x0 if Ethereum, Cosmos for other values)\n     */\n    function lock(bytes to, uint64 value, address token) external payable returns (bool) {\n        if (token == address(0)) {\n            assert(msg.value == value);\n        } else {\n            assert(ERC20(token).transferFrom(msg.sender, this, value));\n        }\n        Lock(to, value, token);\n        return true;\n    }\n\n    /// Unlocks Ethereum tokens according to the information from the pegzone. Called by the relayers.\n    /*\n     * @param to          bytes representation of destination address\n     * @param value       value of transference\n     * @param token       token address in origin chain (0x0 if Ethereum, Cosmos for other values)\n     * @param chain       bytes respresentation of the destination chain (not used in MVP, for incentivization of relayers)\n     * @param idxs        indexes of each validator\n     * @param v           recovery id\n     * @param r           output of ECDSA signature\n     * @param s           output of ECDSA signature\n     */\n    event Unlock(address to, uint64 value, address token);\n\n    function unlock(\n        address[2] addressArg,\n        uint64 value,\n        uint16[] idxs,\n        uint8[] v,\n        bytes32[] r,\n        bytes32[] s\n    ) external returns (bool) {\n        bytes32 hash = keccak256(byte(1), addressArg[0], value/*, chain.length, chain*/);\n        require(Valset.verifyValidators(hash, idxs, v, r, s));\n        if (addressArg[1] == address(0)) {\n            assert(addressArg[0].send(value));\n        } else {\n            assert(ERC20(addressArg[1]).transfer(addressArg[1], value));\n        }\n        Unlock(addressArg[0], value, addressArg[1]);\n        return true;\n    }\n\n    function Peggy(address[] initAddress, uint64[] initPowers) public Valset(initAddress, initPowers) {\n    }\n}\n",
  "sourcePath": "/Users/federico/Desktop/Blockchain/peggy/ethereum-contracts/contracts/Peggy.sol",
  "compiler": {
    "name": "solc",
    "version": "0.4.18+commit.9cf6e910.Emscripten.clang"
  },
  "schemaVersion": "1.0.1",
  "updatedAt": "2018-02-05T12:03:11.356Z"
}