{
  "contractName": "Peggy",
  "abi": [
    {
      "constant": true,
      "inputs": [
        {
          "name": "hash",
          "type": "bytes32"
        },
        {
          "name": "idxs",
          "type": "uint16[]"
        },
        {
          "name": "v",
          "type": "uint8[]"
        },
        {
          "name": "r",
          "type": "bytes32[]"
        },
        {
          "name": "s",
          "type": "bytes32[]"
        }
      ],
      "name": "verify",
      "outputs": [
        {
          "name": "",
          "type": "bool"
        }
      ],
      "payable": false,
      "stateMutability": "view",
      "type": "function"
    },
    {
      "constant": true,
      "inputs": [
        {
          "name": "",
          "type": "uint256"
        }
      ],
      "name": "powers",
      "outputs": [
        {
          "name": "",
          "type": "uint64"
        }
      ],
      "payable": false,
      "stateMutability": "view",
      "type": "function"
    },
    {
      "constant": true,
      "inputs": [],
      "name": "totalPower",
      "outputs": [
        {
          "name": "",
          "type": "uint64"
        }
      ],
      "payable": false,
      "stateMutability": "view",
      "type": "function"
    },
    {
      "constant": true,
      "inputs": [
        {
          "name": "",
          "type": "uint256"
        }
      ],
      "name": "addresses",
      "outputs": [
        {
          "name": "",
          "type": "address"
        }
      ],
      "payable": false,
      "stateMutability": "view",
      "type": "function"
    },
    {
      "inputs": [
        {
          "name": "initAddress",
          "type": "address[]"
        },
        {
          "name": "initPowers",
          "type": "uint64[]"
        }
      ],
      "payable": false,
      "stateMutability": "nonpayable",
      "type": "constructor"
    },
    {
      "anonymous": false,
      "inputs": [
        {
          "indexed": false,
          "name": "to",
          "type": "bytes"
        },
        {
          "indexed": false,
          "name": "value",
          "type": "uint64"
        },
        {
          "indexed": false,
          "name": "token",
          "type": "address"
        }
      ],
      "name": "Lock",
      "type": "event"
    },
    {
      "anonymous": false,
      "inputs": [
        {
          "indexed": false,
          "name": "to",
          "type": "address"
        },
        {
          "indexed": false,
          "name": "value",
          "type": "uint64"
        },
        {
          "indexed": false,
          "name": "token",
          "type": "address"
        }
      ],
      "name": "Unlock",
      "type": "event"
    },
    {
      "anonymous": false,
      "inputs": [
        {
          "indexed": false,
          "name": "newAddresses",
          "type": "address[]"
        },
        {
          "indexed": false,
          "name": "newPowers",
          "type": "uint64[]"
        },
        {
          "indexed": true,
          "name": "seq",
          "type": "uint256"
        }
      ],
      "name": "Update",
      "type": "event"
    },
    {
      "constant": false,
      "inputs": [
        {
          "name": "to",
          "type": "bytes"
        },
        {
          "name": "value",
          "type": "uint64"
        },
        {
          "name": "token",
          "type": "address"
        }
      ],
      "name": "lock",
      "outputs": [
        {
          "name": "",
          "type": "bool"
        }
      ],
      "payable": true,
      "stateMutability": "payable",
      "type": "function"
    },
    {
      "constant": false,
      "inputs": [
        {
          "name": "addressArg",
          "type": "address[2]"
        },
        {
          "name": "value",
          "type": "uint64"
        },
        {
          "name": "idxs",
          "type": "uint16[]"
        },
        {
          "name": "v",
          "type": "uint8[]"
        },
        {
          "name": "r",
          "type": "bytes32[]"
        },
        {
          "name": "s",
          "type": "bytes32[]"
        }
      ],
      "name": "unlock",
      "outputs": [
        {
          "name": "",
          "type": "bool"
        }
      ],
      "payable": false,
      "stateMutability": "nonpayable",
      "type": "function"
    }
  ],
  "bytecode": "0x6060604052600060035534156200001557600080fd5b6040516200190e3803806200190e8339810160405280805182019190602001805182019190505081816200005e8282620000686401000000000262000e70176401000000009004565b5050505062000577565b6000815183511415156200007b57600080fd5b82516040518059106200008b5750595b908082528060200260200182016040525060009080519060200190620000b3929190620003a5565b508151604051805910620000c45750595b908082528060200260200182016040525060019080519060200190620000ec92919062000434565b506000600260006101000a81548167ffffffffffffffff021916908367ffffffffffffffff160217905550600090505b8251811015620002645782818151811015156200013557fe5b906020019060200201516000828154811015156200014f57fe5b906000526020600020900160006101000a81548173ffffffffffffffffffffffffffffffffffffffff021916908373ffffffffffffffffffffffffffffffffffffffff1602179055508181815181101515620001a757fe5b90602001906020020151600182815481101515620001c157fe5b90600052602060002090600491828204019190066008026101000a81548167ffffffffffffffff021916908367ffffffffffffffff16021790555081818151811015156200020b57fe5b90602001906020020151600260008282829054906101000a900467ffffffffffffffff160192506101000a81548167ffffffffffffffff021916908367ffffffffffffffff16021790555080806001019150506200011c565b60036000815480929190600101919050557f41e3e7fbffa8e8d5523f548e6d8f0130b20aa4615fe6d442dae2db7172c84e4a6000600160405180806020018060200183810383528581815481526020019150805480156200031b57602002820191906000526020600020905b8160009054906101000a900473ffffffffffffffffffffffffffffffffffffffff1673ffffffffffffffffffffffffffffffffffffffff1681526020019060010190808311620002d0575b505083810382528481815481526020019150805480156200039057602002820191906000526020600020906000905b82829054906101000a900467ffffffffffffffff1667ffffffffffffffff16815260200190600801906020826007010492830192600103820291508084116200034a5790505b505094505050505060405180910390a2505050565b82805482825590600052602060002090810192821562000421579160200282015b82811115620004205782518260006101000a81548173ffffffffffffffffffffffffffffffffffffffff021916908373ffffffffffffffffffffffffffffffffffffffff16021790555091602001919060010190620003c6565b5b509050620004309190620004f7565b5090565b82805482825590600052602060002090600301600490048101928215620004e45791602002820160005b83821115620004ac57835183826101000a81548167ffffffffffffffff021916908367ffffffffffffffff16021790555092602001926008016020816007010492830192600103026200045e565b8015620004e25782816101000a81549067ffffffffffffffff0219169055600801602081600701049283019260010302620004ac565b505b509050620004f391906200053d565b5090565b6200053a91905b808211156200053657600081816101000a81549073ffffffffffffffffffffffffffffffffffffffff021916905550600101620004fe565b5090565b90565b6200057491905b808211156200057057600081816101000a81549067ffffffffffffffff02191690555060010162000544565b5090565b90565b61138780620005876000396000f300606060405260043610610078576000357c0100000000000000000000000000000000000000000000000000000000900463ffffffff16806302b879021461007d57806331f3fae2146100ea57806340c1bfab146102295780635d2568e414610274578063db3ad22c14610310578063edf26d9b1461034d575b600080fd5b6100d06004808035906020019082018035906020019190919290803567ffffffffffffffff1690602001909190803573ffffffffffffffffffffffffffffffffffffffff169060200190919050506103b0565b604051808215151515815260200191505060405180910390f35b34156100f557600080fd5b61020f600480803560001916906020019091908035906020019082018035906020019080806020026020016040519081016040528093929190818152602001838360200280828437820191505050505050919080359060200190820180359060200190808060200260200160405190810160405280939291908181526020018383602002808284378201915050505050509190803590602001908201803590602001908080602002602001604051908101604052809392919081815260200183836020028082843782019150505050505091908035906020019082018035906020019080806020026020016040519081016040528093929190818152602001838360200280828437820191505050505050919050506105ba565b604051808215151515815260200191505060405180910390f35b341561023457600080fd5b61024a60048080359060200190919050506108cb565b604051808267ffffffffffffffff1667ffffffffffffffff16815260200191505060405180910390f35b341561027f57600080fd5b6102f660048080604001909190803567ffffffffffffffff169060200190919080359060200190820180359060200191909192908035906020019082018035906020019190919290803590602001908201803590602001919091929080359060200190820180359060200191909192905050610908565b604051808215151515815260200191505060405180910390f35b341561031b57600080fd5b610323610e17565b604051808267ffffffffffffffff1667ffffffffffffffff16815260200191505060405180910390f35b341561035857600080fd5b61036e6004808035906020019091905050610e31565b604051808273ffffffffffffffffffffffffffffffffffffffff1673ffffffffffffffffffffffffffffffffffffffff16815260200191505060405180910390f35b60008073ffffffffffffffffffffffffffffffffffffffff168273ffffffffffffffffffffffffffffffffffffffff161415610400578267ffffffffffffffff16341415156103fb57fe5b61050d565b8173ffffffffffffffffffffffffffffffffffffffff166323b872dd3330866000604051602001526040518463ffffffff167c0100000000000000000000000000000000000000000000000000000000028152600401808473ffffffffffffffffffffffffffffffffffffffff1673ffffffffffffffffffffffffffffffffffffffff1681526020018373ffffffffffffffffffffffffffffffffffffffff1673ffffffffffffffffffffffffffffffffffffffff1681526020018267ffffffffffffffff1681526020019350505050602060405180830381600087803b15156104e957600080fd5b6102c65a03f115156104fa57600080fd5b50505060405180519050151561050c57fe5b5b7faee3d4d5787da8a9356f2b767f5ef3f8b14ee4c240ba40769df0ad4b2be5a20e8585858560405180806020018467ffffffffffffffff1667ffffffffffffffff1681526020018373ffffffffffffffffffffffffffffffffffffffff1673ffffffffffffffffffffffffffffffffffffffff168152602001828103825286868281815260200192508082843782019150509550505050505060405180910390a160019050949350505050565b600080600080805490508751111515156105d757600092506108c0565b855187511480156105e9575084518651145b80156105f6575083518551145b151561060557600092506108c0565b60009150600090505b865181101561087a57600181101580156106615750866001820381518110151561063457fe5b9060200190602002015161ffff16878281518110151561065057fe5b9060200190602002015161ffff1611155b1561066f57600092506108c0565b6000878281518110151561067f57fe5b9060200190602002015161ffff1681548110151561069957fe5b906000526020600020900160009054906101000a900473ffffffffffffffffffffffffffffffffffffffff1673ffffffffffffffffffffffffffffffffffffffff16600189888a858151811015156106ed57fe5b9060200190602002015161ffff1681518110151561070757fe5b90602001906020020151888b8681518110151561072057fe5b9060200190602002015161ffff1681518110151561073a57fe5b90602001906020020151888c8781518110151561075357fe5b9060200190602002015161ffff1681518110151561076d57fe5b90602001906020020151604051600081526020016040526000604051602001526040518085600019166000191681526020018460ff1660ff16815260200183600019166000191681526020018260001916600019168152602001945050505050602060405160208103908084039060008661646e5a03f115156107ef57600080fd5b50506020604051035173ffffffffffffffffffffffffffffffffffffffff16141561086d576001878281518110151561082457fe5b9060200190602002015161ffff1681548110151561083e57fe5b90600052602060002090600491828204019190066008029054906101000a900467ffffffffffffffff16820191505b808060010191505061060e565b60028060009054906101000a900467ffffffffffffffff160267ffffffffffffffff166003830267ffffffffffffffff161115156108bb57600092506108c0565b600192505b505095945050505050565b6001818154811015156108da57fe5b9060005260206000209060049182820401919006600802915054906101000a900467ffffffffffffffff1681565b60008060017f0100000000000000000000000000000000000000000000000000000000000000028c600060028110151561093e57fe5b602002013573ffffffffffffffffffffffffffffffffffffffff168c60405180847effffffffffffffffffffffffffffffffffffffffffffffffffffffffffffff19167effffffffffffffffffffffffffffffffffffffffffffffffffffffffffffff191681526001018373ffffffffffffffffffffffffffffffffffffffff1673ffffffffffffffffffffffffffffffffffffffff166c010000000000000000000000000281526014018267ffffffffffffffff1667ffffffffffffffff167801000000000000000000000000000000000000000000000000028152600801935050505060405180910390209050610af6818b8b808060200260200160405190810160405280939291908181526020018383602002808284378201915050505050508a8a808060200260200160405190810160405280939291908181526020018383602002808284378201915050505050508989808060200260200160405190810160405280939291908181526020018383602002808284378201915050505050508888808060200260200160405190810160405280939291908181526020018383602002808284378201915050505050506105ba565b1515610b0157600080fd5b600073ffffffffffffffffffffffffffffffffffffffff168c6001600281101515610b2857fe5b602002013573ffffffffffffffffffffffffffffffffffffffff1673ffffffffffffffffffffffffffffffffffffffff161415610bd4578b6000600281101515610b6e57fe5b602002013573ffffffffffffffffffffffffffffffffffffffff1673ffffffffffffffffffffffffffffffffffffffff166108fc8c67ffffffffffffffff169081150290604051600060405180830381858888f193505050501515610bcf57fe5b610cff565b8b6001600281101515610be357fe5b602002013573ffffffffffffffffffffffffffffffffffffffff1673ffffffffffffffffffffffffffffffffffffffff1663a9059cbb8d6001600281101515610c2857fe5b602002013573ffffffffffffffffffffffffffffffffffffffff168d6000604051602001526040518363ffffffff167c0100000000000000000000000000000000000000000000000000000000028152600401808373ffffffffffffffffffffffffffffffffffffffff1673ffffffffffffffffffffffffffffffffffffffff1681526020018267ffffffffffffffff16815260200192505050602060405180830381600087803b1515610cdb57600080fd5b6102c65a03f11515610cec57600080fd5b505050604051805190501515610cfe57fe5b5b7f0133fdf0eff61956d0e969416cb7263bcde11e532e184d59a5ef3f640e56e30d8c6000600281101515610d2f57fe5b602002013573ffffffffffffffffffffffffffffffffffffffff168c8e6001600281101515610d5a57fe5b602002013573ffffffffffffffffffffffffffffffffffffffff16604051808473ffffffffffffffffffffffffffffffffffffffff1673ffffffffffffffffffffffffffffffffffffffff1681526020018367ffffffffffffffff1667ffffffffffffffff1681526020018273ffffffffffffffffffffffffffffffffffffffff1673ffffffffffffffffffffffffffffffffffffffff168152602001935050505060405180910390a160019150509a9950505050505050505050565b600260009054906101000a900467ffffffffffffffff1681565b600081815481101515610e4057fe5b90600052602060002090016000915054906101000a900473ffffffffffffffffffffffffffffffffffffffff1681565b600081518351141515610e8257600080fd5b8251604051805910610e915750595b908082528060200260200182016040525060009080519060200190610eb792919061119b565b508151604051805910610ec75750595b908082528060200260200182016040525060019080519060200190610eed929190611225565b506000600260006101000a81548167ffffffffffffffff021916908367ffffffffffffffff160217905550600090505b825181101561105e578281815181101515610f3457fe5b90602001906020020151600082815481101515610f4d57fe5b906000526020600020900160006101000a81548173ffffffffffffffffffffffffffffffffffffffff021916908373ffffffffffffffffffffffffffffffffffffffff1602179055508181815181101515610fa457fe5b90602001906020020151600182815481101515610fbd57fe5b90600052602060002090600491828204019190066008026101000a81548167ffffffffffffffff021916908367ffffffffffffffff160217905550818181518110151561100657fe5b90602001906020020151600260008282829054906101000a900467ffffffffffffffff160192506101000a81548167ffffffffffffffff021916908367ffffffffffffffff1602179055508080600101915050610f1d565b60036000815480929190600101919050557f41e3e7fbffa8e8d5523f548e6d8f0130b20aa4615fe6d442dae2db7172c84e4a60006001604051808060200180602001838103835285818154815260200191508054801561111357602002820191906000526020600020905b8160009054906101000a900473ffffffffffffffffffffffffffffffffffffffff1673ffffffffffffffffffffffffffffffffffffffff16815260200190600101908083116110c9575b5050838103825284818154815260200191508054801561118657602002820191906000526020600020906000905b82829054906101000a900467ffffffffffffffff1667ffffffffffffffff16815260200190600801906020826007010492830192600103820291508084116111415790505b505094505050505060405180910390a2505050565b828054828255906000526020600020908101928215611214579160200282015b828111156112135782518260006101000a81548173ffffffffffffffffffffffffffffffffffffffff021916908373ffffffffffffffffffffffffffffffffffffffff160217905550916020019190600101906111bb565b5b50905061122191906112e1565b5090565b828054828255906000526020600020906003016004900481019282156112d05791602002820160005b8382111561129a57835183826101000a81548167ffffffffffffffff021916908367ffffffffffffffff160217905550926020019260080160208160070104928301926001030261124e565b80156112ce5782816101000a81549067ffffffffffffffff021916905560080160208160070104928301926001030261129a565b505b5090506112dd9190611324565b5090565b61132191905b8082111561131d57600081816101000a81549073ffffffffffffffffffffffffffffffffffffffff0219169055506001016112e7565b5090565b90565b61135891905b8082111561135457600081816101000a81549067ffffffffffffffff02191690555060010161132a565b5090565b905600a165627a7a72305820991100ac6e12bb8fef112f6718967c8888456001bd72a3267ea9c1029e04bf290029",
  "source": "pragma solidity ^0.4.17;\n\nimport \"./CosmosERC20.sol\";\nimport \"./Valset.sol\";\n\ncontract Peggy is Valset {\n    mapping (bytes => CosmosERC20) cosmosTokenAddress;\n\n    function getCosmosTokenAddress(bytes name) internal constant returns (address) {\n        return cosmosTokenAddress[name];\n    }\n\n    event Lock(bytes to, uint64 value, address token);\n\n\n    /// Locks received funds to the consensus of the peg zone\n    /*\n     * @param to          bytes representation of destination address\n     * @param value       value of transference\n     * @param token       token address in origin chain (0x0 if Ethereum, Cosmos for other values)\n     */\n    function lock(bytes to, uint64 value, address token) external payable returns (bool) {\n        if (token == address(0)) {\n            assert(msg.value == value);\n        } else {\n            assert(ERC20(token).transferFrom(msg.sender, this, value));\n        }\n        Lock(to, value, token);\n        return true;\n    }\n\n    /// Unlocks Ethereum tokens according to the information from the pegzone. Called by the relayers.\n    /*\n     * @param to          bytes representation of destination address\n     * @param value       value of transference\n     * @param token       token address in origin chain (0x0 if Ethereum, Cosmos for other values)\n     * @param chain       bytes respresentation of the destination chain (not used in MVP, for incentivization of relayers)\n     * @param idxs        indexes of each validator\n     * @param v           recovery id\n     * @param r           output of ECDSA signature\n     * @param s           output of ECDSA signature\n     */\n    event Unlock(address to, uint64 value, address token);\n\n    function unlock(\n        address[2] addressArg,\n        uint64 value,\n        uint16[] idxs,\n        uint8[] v,\n        bytes32[] r,\n        bytes32[] s\n    ) external returns (bool) {\n        bytes32 hash = keccak256(byte(1), addressArg[0], value/*, chain.length, chain*/);\n        require(Valset.verify(hash, idxs, v, r, s));\n        if (addressArg[1] == address(0)) {\n            assert(addressArg[0].send(value));\n        } else {\n            assert(ERC20(addressArg[1]).transfer(addressArg[1], value));\n        }\n        Unlock(addressArg[0], value, addressArg[1]);\n        return true;\n    }\n\n    function Peggy(address[] initAddress, uint64[] initPowers) public Valset(initAddress, initPowers) {\n    }\n}\n",
  "sourcePath": "/Users/adrianbrink/code/go-workspace/src/github.com/cosmos/peggy/ethereum-contracts/contracts/Peggy.sol",
  "compiler": {
    "name": "solc",
    "version": "0.4.19+commit.c4cbbb05.Emscripten.clang"
  },
  "schemaVersion": "1.0.1",
  "updatedAt": "2018-02-04T20:07:57.000Z"
}