{
  "contractName": "Peggy",
  "abi": [
    {
      "constant": true,
      "inputs": [
        {
          "name": "index",
          "type": "uint256"
        }
      ],
      "name": "getPower",
      "outputs": [
        {
          "name": "",
          "type": "uint64"
        }
      ],
      "payable": false,
      "stateMutability": "view",
      "type": "function"
    },
    {
      "constant": false,
      "inputs": [
        {
          "name": "to",
          "type": "bytes"
        },
        {
          "name": "value",
          "type": "uint64"
        },
        {
          "name": "token",
          "type": "address"
        }
      ],
      "name": "lock",
      "outputs": [
        {
          "name": "",
          "type": "bool"
        }
      ],
      "payable": true,
      "stateMutability": "payable",
      "type": "function"
    },
    {
      "constant": false,
      "inputs": [
        {
          "name": "hash",
          "type": "bytes32"
        },
        {
          "name": "signersLen",
          "type": "uint256"
        },
        {
          "name": "signers",
          "type": "uint256[]"
        },
        {
          "name": "v",
          "type": "uint8[]"
        },
        {
          "name": "r",
          "type": "bytes32[]"
        },
        {
          "name": "s",
          "type": "bytes32[]"
        }
      ],
      "name": "verifyValidators",
      "outputs": [
        {
          "name": "",
          "type": "bool"
        }
      ],
      "payable": false,
      "stateMutability": "nonpayable",
      "type": "function"
    },
    {
      "constant": true,
      "inputs": [
        {
          "name": "",
          "type": "uint256"
        }
      ],
      "name": "powers",
      "outputs": [
        {
          "name": "",
          "type": "uint64"
        }
      ],
      "payable": false,
      "stateMutability": "view",
      "type": "function"
    },
    {
      "constant": true,
      "inputs": [],
      "name": "getTotalPower",
      "outputs": [
        {
          "name": "",
          "type": "uint64"
        }
      ],
      "payable": false,
      "stateMutability": "view",
      "type": "function"
    },
    {
      "constant": false,
      "inputs": [
        {
          "name": "newAddress",
          "type": "address[]"
        },
        {
          "name": "newPowers",
          "type": "uint64[]"
        },
        {
          "name": "signers",
          "type": "uint256[]"
        },
        {
          "name": "v",
          "type": "uint8[]"
        },
        {
          "name": "r",
          "type": "bytes32[]"
        },
        {
          "name": "s",
          "type": "bytes32[]"
        }
      ],
      "name": "update",
      "outputs": [
        {
          "name": "",
          "type": "bool"
        }
      ],
      "payable": false,
      "stateMutability": "nonpayable",
      "type": "function"
    },
    {
      "constant": true,
      "inputs": [
        {
          "name": "index",
          "type": "uint256"
        }
      ],
      "name": "getValidator",
      "outputs": [
        {
          "name": "",
          "type": "address"
        }
      ],
      "payable": false,
      "stateMutability": "view",
      "type": "function"
    },
    {
      "constant": false,
      "inputs": [
        {
          "name": "token",
          "type": "address"
        },
        {
          "name": "to",
          "type": "address"
        },
        {
          "name": "value",
          "type": "uint64"
        },
        {
          "name": "signers",
          "type": "uint256[]"
        },
        {
          "name": "v",
          "type": "uint8[]"
        },
        {
          "name": "r",
          "type": "bytes32[]"
        },
        {
          "name": "s",
          "type": "bytes32[]"
        }
      ],
      "name": "unlock",
      "outputs": [
        {
          "name": "",
          "type": "bool"
        }
      ],
      "payable": false,
      "stateMutability": "nonpayable",
      "type": "function"
    },
    {
      "constant": true,
      "inputs": [],
      "name": "totalPower",
      "outputs": [
        {
          "name": "",
          "type": "uint64"
        }
      ],
      "payable": false,
      "stateMutability": "view",
      "type": "function"
    },
    {
      "constant": true,
      "inputs": [
        {
          "name": "",
          "type": "uint256"
        }
      ],
      "name": "addresses",
      "outputs": [
        {
          "name": "",
          "type": "address"
        }
      ],
      "payable": false,
      "stateMutability": "view",
      "type": "function"
    },
    {
      "inputs": [
        {
          "name": "initAddress",
          "type": "address[]"
        },
        {
          "name": "initPowers",
          "type": "uint64[]"
        }
      ],
      "payable": false,
      "stateMutability": "nonpayable",
      "type": "constructor"
    },
    {
      "anonymous": false,
      "inputs": [
        {
          "indexed": false,
          "name": "to",
          "type": "address"
        },
        {
          "indexed": false,
          "name": "value",
          "type": "uint64"
        },
        {
          "indexed": false,
          "name": "token",
          "type": "address"
        }
      ],
      "name": "Unlock",
      "type": "event"
    },
    {
      "anonymous": false,
      "inputs": [
        {
          "indexed": false,
          "name": "to",
          "type": "address"
        },
        {
          "indexed": false,
          "name": "value",
          "type": "uint64"
        },
        {
          "indexed": false,
          "name": "token",
          "type": "address"
        }
      ],
      "name": "Lock",
      "type": "event"
    },
    {
      "anonymous": false,
      "inputs": [
        {
          "indexed": false,
          "name": "newAddresses",
          "type": "address[]"
        },
        {
          "indexed": false,
          "name": "newPowers",
          "type": "uint64[]"
        },
        {
          "indexed": true,
          "name": "seq",
          "type": "uint256"
        }
      ],
      "name": "Update",
      "type": "event"
    },
    {
      "anonymous": false,
      "inputs": [
        {
          "indexed": false,
          "name": "signers",
          "type": "uint256[]"
        }
      ],
      "name": "Verify",
      "type": "event"
    },
    {
      "anonymous": false,
      "inputs": [
        {
          "indexed": false,
          "name": "signer",
          "type": "address"
        }
      ],
      "name": "DoubleSign",
      "type": "event"
    },
    {
      "anonymous": false,
      "inputs": [
        {
          "indexed": false,
          "name": "signedPower",
          "type": "uint256"
        },
        {
          "indexed": false,
          "name": "accumPower",
          "type": "uint256"
        }
      ],
      "name": "NoSupermajority",
      "type": "event"
    },
    {
      "anonymous": false,
      "inputs": [
        {
          "indexed": false,
          "name": "signers",
          "type": "uint256[]"
        }
      ],
      "name": "NoLen",
      "type": "event"
    },
    {
      "anonymous": false,
      "inputs": [
        {
          "indexed": false,
          "name": "ercaddr",
          "type": "address"
        },
        {
          "indexed": false,
          "name": "signer",
          "type": "address"
        },
        {
          "indexed": false,
          "name": "validatorIdx",
          "type": "uint256"
        },
        {
          "indexed": false,
          "name": "v",
          "type": "uint8"
        },
        {
          "indexed": false,
          "name": "r",
          "type": "bytes32"
        },
        {
          "indexed": false,
          "name": "s",
          "type": "bytes32"
        }
      ],
      "name": "InvalidSignature",
      "type": "event"
    }
  ],
  "bytecode": "0x6060604052600060035534156200001557600080fd5b60405162002354380380620023548339810160405280805182019190602001805182019190505081816200005e8282620000696401000000000262001864176401000000009004565b5050505050620005a1565b60008060008451845180821415156200008157600080fd5b8651606481111515156200009457600080fd5b8751604051805910620000a45750595b908082528060200260200182016040525060009080519060200190620000cc929190620003cf565b508651604051805910620000dd5750595b908082528060200260200182016040525060019080519060200190620001059291906200045e565b506000600260006101000a81548167ffffffffffffffff021916908367ffffffffffffffff160217905550600094505b87518510156200027d5787858151811015156200014e57fe5b906020019060200201516000868154811015156200016857fe5b906000526020600020900160006101000a81548173ffffffffffffffffffffffffffffffffffffffff021916908373ffffffffffffffffffffffffffffffffffffffff1602179055508685815181101515620001c057fe5b90602001906020020151600186815481101515620001da57fe5b90600052602060002090600491828204019190066008026101000a81548167ffffffffffffffff021916908367ffffffffffffffff16021790555086858151811015156200022457fe5b90602001906020020151600260008282829054906101000a900467ffffffffffffffff160192506101000a81548167ffffffffffffffff021916908367ffffffffffffffff160217905550848060010195505062000135565b6003549350837f41e3e7fbffa8e8d5523f548e6d8f0130b20aa4615fe6d442dae2db7172c84e4a6000600160405180806020018060200183810383528581815481526020019150805480156200032957602002820191906000526020600020905b8160009054906101000a900473ffffffffffffffffffffffffffffffffffffffff1673ffffffffffffffffffffffffffffffffffffffff1681526020019060010190808311620002de575b505083810382528481815481526020019150805480156200039e57602002820191906000526020600020906000905b82829054906101000a900467ffffffffffffffff1667ffffffffffffffff1681526020019060080190602082600701049283019260010382029150808411620003585790505b505094505050505060405180910390a260036000815480929190600101919050555060019550505050505092915050565b8280548282559060005260206000209081019282156200044b579160200282015b828111156200044a5782518260006101000a81548173ffffffffffffffffffffffffffffffffffffffff021916908373ffffffffffffffffffffffffffffffffffffffff16021790555091602001919060010190620003f0565b5b5090506200045a919062000521565b5090565b828054828255906000526020600020906003016004900481019282156200050e5791602002820160005b83821115620004d657835183826101000a81548167ffffffffffffffff021916908367ffffffffffffffff160217905550926020019260080160208160070104928301926001030262000488565b80156200050c5782816101000a81549067ffffffffffffffff0219169055600801602081600701049283019260010302620004d6565b505b5090506200051d919062000567565b5090565b6200056491905b808211156200056057600081816101000a81549073ffffffffffffffffffffffffffffffffffffffff02191690555060010162000528565b5090565b90565b6200059e91905b808211156200059a57600081816101000a81549067ffffffffffffffff0219169055506001016200056e565b5090565b90565b611da380620005b16000396000f3006060604052600436106100a4576000357c0100000000000000000000000000000000000000000000000000000000900463ffffffff168063017fe809146100a957806302b87902146100f45780632928c6781461016157806340c1bfab146102a957806353976a26146102f457806382de8d0a14610331578063b5d89627146104e3578063b8ada1b014610546578063db3ad22c14610619578063edf26d9b14610656575b600080fd5b34156100b457600080fd5b6100ca60048080359060200190919050506106b9565b604051808267ffffffffffffffff1667ffffffffffffffff16815260200191505060405180910390f35b6101476004808035906020019082018035906020019190919290803567ffffffffffffffff1690602001909190803573ffffffffffffffffffffffffffffffffffffffff16906020019091905050610712565b604051808215151515815260200191505060405180910390f35b341561016c57600080fd5b61028f600480803560001916906020019091908035906020019091908035906020019082018035906020019080806020026020016040519081016040528093929190818152602001838360200280828437820191505050505050919080359060200190820180359060200190808060200260200160405190810160405280939291908181526020018383602002808284378201915050505050509190803590602001908201803590602001908080602002602001604051908101604052809392919081815260200183836020028082843782019150505050505091908035906020019082018035906020019080806020026020016040519081016040528093929190818152602001838360200280828437820191505050505050919050506109ec565b604051808215151515815260200191505060405180910390f35b34156102b457600080fd5b6102ca6004808035906020019091905050610f84565b604051808267ffffffffffffffff1667ffffffffffffffff16815260200191505060405180910390f35b34156102ff57600080fd5b610307610fc1565b604051808267ffffffffffffffff1667ffffffffffffffff16815260200191505060405180910390f35b341561033c57600080fd5b6104c96004808035906020019082018035906020019080806020026020016040519081016040528093929190818152602001838360200280828437820191505050505050919080359060200190820180359060200190808060200260200160405190810160405280939291908181526020018383602002808284378201915050505050509190803590602001908201803590602001908080602002602001604051908101604052809392919081815260200183836020028082843782019150505050505091908035906020019082018035906020019080806020026020016040519081016040528093929190818152602001838360200280828437820191505050505050919080359060200190820180359060200190808060200260200160405190810160405280939291908181526020018383602002808284378201915050505050509190803590602001908201803590602001908080602002602001604051908101604052809392919081815260200183836020028082843782019150505050505091905050610fdf565b604051808215151515815260200191505060405180910390f35b34156104ee57600080fd5b61050460048080359060200190919050506110bd565b604051808273ffffffffffffffffffffffffffffffffffffffff1673ffffffffffffffffffffffffffffffffffffffff16815260200191505060405180910390f35b341561055157600080fd5b6105ff600480803573ffffffffffffffffffffffffffffffffffffffff1690602001909190803573ffffffffffffffffffffffffffffffffffffffff1690602001909190803567ffffffffffffffff169060200190919080359060200190820180359060200191909192908035906020019082018035906020019190919290803590602001908201803590602001919091929080359060200190820180359060200191909192905050611118565b604051808215151515815260200191505060405180910390f35b341561062457600080fd5b61062c61150d565b604051808267ffffffffffffffff1667ffffffffffffffff16815260200191505060405180910390f35b341561066157600080fd5b6106776004808035906020019091905050611527565b604051808273ffffffffffffffffffffffffffffffffffffffff1673ffffffffffffffffffffffffffffffffffffffff16815260200191505060405180910390f35b60008160018054905080821015156106d057600080fd5b6001848154811015156106df57fe5b90600052602060002090600491828204019190066008029054906101000a900467ffffffffffffffff1692505050919050565b60008073ffffffffffffffffffffffffffffffffffffffff168273ffffffffffffffffffffffffffffffffffffffff1614156107e6578267ffffffffffffffff163414151561076057600080fd5b61079b85858080601f016020809104026020016040519081016040528093929190818152602001838380828437820191505050505050611566565b73ffffffffffffffffffffffffffffffffffffffff166108fc8467ffffffffffffffff169081150290604051600060405180830381858888f1935050505015156107e157fe5b6108f3565b8173ffffffffffffffffffffffffffffffffffffffff166323b872dd3330866000604051602001526040518463ffffffff167c0100000000000000000000000000000000000000000000000000000000028152600401808473ffffffffffffffffffffffffffffffffffffffff1673ffffffffffffffffffffffffffffffffffffffff1681526020018373ffffffffffffffffffffffffffffffffffffffff1673ffffffffffffffffffffffffffffffffffffffff1681526020018267ffffffffffffffff1681526020019350505050602060405180830381600087803b15156108cf57600080fd5b6102c65a03f115156108e057600080fd5b5050506040518051905015156108f257fe5b5b7f3e8f9147a9cbf832cc07106d64b49482b2f3acd73db0a0d361dc29b7c78e3a9a61094f86868080601f016020809104026020016040519081016040528093929190818152602001838380828437820191505050505050611566565b8484604051808473ffffffffffffffffffffffffffffffffffffffff1673ffffffffffffffffffffffffffffffffffffffff1681526020018367ffffffffffffffff1667ffffffffffffffff1681526020018273ffffffffffffffffffffffffffffffffffffffff1673ffffffffffffffffffffffffffffffffffffffff168152602001935050505060405180910390a160019050949350505050565b60008060008060009250600091505b88821015610e5157600082118015610a4457508760018303815181101515610a1f57fe5b906020019060200201518883815181101515610a3757fe5b9060200190602002015111155b15610b06577f3f239fced56fc65830a1313eda940a92c4799254a05b2493d71d5afd9d9cb10260008984815181101515610a7a57fe5b90602001906020020151815481101515610a9057fe5b906000526020600020900160009054906101000a900473ffffffffffffffffffffffffffffffffffffffff16604051808273ffffffffffffffffffffffffffffffffffffffff1673ffffffffffffffffffffffffffffffffffffffff16815260200191505060405180910390a160009350610f77565b610b9c8a888a85815181101515610b1957fe5b90602001906020020151815181101515610b2f57fe5b90602001906020020151888b86815181101515610b4857fe5b90602001906020020151815181101515610b5e57fe5b90602001906020020151888c87815181101515610b7757fe5b90602001906020020151815181101515610b8d57fe5b906020019060200201516117d1565b905060008883815181101515610bae57fe5b90602001906020020151815481101515610bc457fe5b906000526020600020900160009054906101000a900473ffffffffffffffffffffffffffffffffffffffff1673ffffffffffffffffffffffffffffffffffffffff168173ffffffffffffffffffffffffffffffffffffffff161415610c7c5760018883815181101515610c3357fe5b90602001906020020151815481101515610c4957fe5b90600052602060002090600491828204019190066008029054906101000a900467ffffffffffffffff1683019250610e44565b7f613e3ebf516c858edb3ddc38332b0351b14a2a1d2facaeab95928445f53997b28160008a85815181101515610cae57fe5b90602001906020020151815481101515610cc457fe5b906000526020600020900160009054906101000a900473ffffffffffffffffffffffffffffffffffffffff168a85815181101515610cfe57fe5b906020019060200201518a8c87815181101515610d1757fe5b90602001906020020151815181101515610d2d57fe5b906020019060200201518a8d88815181101515610d4657fe5b90602001906020020151815181101515610d5c57fe5b906020019060200201518a8e89815181101515610d7557fe5b90602001906020020151815181101515610d8b57fe5b90602001906020020151604051808773ffffffffffffffffffffffffffffffffffffffff1673ffffffffffffffffffffffffffffffffffffffff1681526020018673ffffffffffffffffffffffffffffffffffffffff1673ffffffffffffffffffffffffffffffffffffffff1681526020018581526020018460ff1660ff16815260200183600019166000191681526020018260001916600019168152602001965050505050505060405180910390a160009350610f77565b81806001019250506109fb565b60028060009054906101000a900467ffffffffffffffff160267ffffffffffffffff166003840267ffffffffffffffff161015610efa577f2e3d08875a184ff8f9f21f46aff8997ebcd6bbc5b9fa1537c2859731ab3c92d683600260009054906101000a900467ffffffffffffffff16604051808367ffffffffffffffff1681526020018267ffffffffffffffff1681526020019250505060405180910390a160009350610f77565b7fd7ac6491cea9eeaef1d8fd10e62c9e98d368c2d7cb408ce4ada5cd90131a1a35886040518080602001828103825283818151815260200191508051906020019060200280838360005b83811015610f5f578082015181840152602081019050610f44565b505050509050019250505060405180910390a1600193505b5050509695505050505050565b600181815481101515610f9357fe5b9060005260206000209060049182820401919006600802915054906101000a900467ffffffffffffffff1681565b6000600260009054906101000a900467ffffffffffffffff16905090565b60008085518851808211158015610ff7575060648111155b151561100257600080fd5b898960405180838051906020019060200280838360005b83811015611034578082015181840152602081019050611019565b50505050905001828051906020019060200280838360005b8381101561106757808201518184015260208101905061104c565b50505050905001925050506040518091039020925061108b8389518a8a8a8a6109ec565b151561109357fe5b61109d8a8a611864565b156110ab57600193506110b0565b600093505b5050509695505050505050565b60008160008054905080821015156110d457600080fd5b6000848154811015156110e357fe5b906000526020600020900160009054906101000a900473ffffffffffffffffffffffffffffffffffffffff1692505050919050565b60008060017f0100000000000000000000000000000000000000000000000000000000000000028d8c60405180847effffffffffffffffffffffffffffffffffffffffffffffffffffffffffffff19167effffffffffffffffffffffffffffffffffffffffffffffffffffffffffffff191681526001018373ffffffffffffffffffffffffffffffffffffffff1673ffffffffffffffffffffffffffffffffffffffff166c010000000000000000000000000281526014018267ffffffffffffffff1667ffffffffffffffff1678010000000000000000000000000000000000000000000000000281526008019350505050604051809103902090506112e1818b8b90508c8c808060200260200160405190810160405280939291908181526020018383602002808284378201915050505050508b8b808060200260200160405190810160405280939291908181526020018383602002808284378201915050505050508a8a808060200260200160405190810160405280939291908181526020018383602002808284378201915050505050508989808060200260200160405190810160405280939291908181526020018383602002808284378201915050505050506109ec565b15156112ec57600080fd5b600073ffffffffffffffffffffffffffffffffffffffff168d73ffffffffffffffffffffffffffffffffffffffff16141561136d578b73ffffffffffffffffffffffffffffffffffffffff166108fc8c67ffffffffffffffff169081150290604051600060405180830381858888f19350505050151561136857fe5b611446565b8c73ffffffffffffffffffffffffffffffffffffffff1663a9059cbb8d8d6000604051602001526040518363ffffffff167c0100000000000000000000000000000000000000000000000000000000028152600401808373ffffffffffffffffffffffffffffffffffffffff1673ffffffffffffffffffffffffffffffffffffffff1681526020018267ffffffffffffffff16815260200192505050602060405180830381600087803b151561142257600080fd5b6102c65a03f1151561143357600080fd5b50505060405180519050151561144557fe5b5b7f0133fdf0eff61956d0e969416cb7263bcde11e532e184d59a5ef3f640e56e30d8c8c8f604051808473ffffffffffffffffffffffffffffffffffffffff1673ffffffffffffffffffffffffffffffffffffffff1681526020018367ffffffffffffffff1667ffffffffffffffff1681526020018273ffffffffffffffffffffffffffffffffffffffff1673ffffffffffffffffffffffffffffffffffffffff168152602001935050505060405180910390a160019150509b9a5050505050505050505050565b600260009054906101000a900467ffffffffffffffff1681565b60008181548110151561153657fe5b90600052602060002090016000915054906101000a900473ffffffffffffffffffffffffffffffffffffffff1681565b600080600080600092506000915060307f0100000000000000000000000000000000000000000000000000000000000000028560008151811015156115a757fe5b9060200101517f010000000000000000000000000000000000000000000000000000000000000090047f0100000000000000000000000000000000000000000000000000000000000000027effffffffffffffffffffffffffffffffffffffffffffffffffffffffffffff19161480156116be575060787f01000000000000000000000000000000000000000000000000000000000000000285600181518110151561164f57fe5b9060200101517f010000000000000000000000000000000000000000000000000000000000000090047f0100000000000000000000000000000000000000000000000000000000000000027effffffffffffffffffffffffffffffffffffffffffffffffffffffffffffff1916145b156116c857600291505b5b84518210156117c65784828151811015156116e057fe5b9060200101517f010000000000000000000000000000000000000000000000000000000000000090047f0100000000000000000000000000000000000000000000000000000000000000027f01000000000000000000000000000000000000000000000000000000000000009004905060308110158015611762575060398111155b156117735760308103601084020192505b604181101580156117855750605a8111155b156117965760378103601084020192505b606181101580156117a85750607a8111155b156117b95760578103601084020192505b81806001019250506116c9565b829350505050919050565b6000600185858585604051600081526020016040526000604051602001526040518085600019166000191681526020018460ff1660ff16815260200183600019166000191681526020018260001916600019168152602001945050505050602060405160208103908084039060008661646e5a03f1151561185157600080fd5b5050602060405103519050949350505050565b600080600084518451808214151561187b57600080fd5b86516064811115151561188d57600080fd5b875160405180591061189c5750595b9080825280602002602001820160405250600090805190602001906118c2929190611bb7565b5086516040518059106118d25750595b9080825280602002602001820160405250600190805190602001906118f8929190611c41565b506000600260006101000a81548167ffffffffffffffff021916908367ffffffffffffffff160217905550600094505b8751851015611a6957878581518110151561193f57fe5b9060200190602002015160008681548110151561195857fe5b906000526020600020900160006101000a81548173ffffffffffffffffffffffffffffffffffffffff021916908373ffffffffffffffffffffffffffffffffffffffff16021790555086858151811015156119af57fe5b906020019060200201516001868154811015156119c857fe5b90600052602060002090600491828204019190066008026101000a81548167ffffffffffffffff021916908367ffffffffffffffff1602179055508685815181101515611a1157fe5b90602001906020020151600260008282829054906101000a900467ffffffffffffffff160192506101000a81548167ffffffffffffffff021916908367ffffffffffffffff1602179055508480600101955050611928565b6003549350837f41e3e7fbffa8e8d5523f548e6d8f0130b20aa4615fe6d442dae2db7172c84e4a600060016040518080602001806020018381038352858181548152602001915080548015611b1357602002820191906000526020600020905b8160009054906101000a900473ffffffffffffffffffffffffffffffffffffffff1673ffffffffffffffffffffffffffffffffffffffff1681526020019060010190808311611ac9575b50508381038252848181548152602001915080548015611b8657602002820191906000526020600020906000905b82829054906101000a900467ffffffffffffffff1667ffffffffffffffff1681526020019060080190602082600701049283019260010382029150808411611b415790505b505094505050505060405180910390a260036000815480929190600101919050555060019550505050505092915050565b828054828255906000526020600020908101928215611c30579160200282015b82811115611c2f5782518260006101000a81548173ffffffffffffffffffffffffffffffffffffffff021916908373ffffffffffffffffffffffffffffffffffffffff16021790555091602001919060010190611bd7565b5b509050611c3d9190611cfd565b5090565b82805482825590600052602060002090600301600490048101928215611cec5791602002820160005b83821115611cb657835183826101000a81548167ffffffffffffffff021916908367ffffffffffffffff1602179055509260200192600801602081600701049283019260010302611c6a565b8015611cea5782816101000a81549067ffffffffffffffff0219169055600801602081600701049283019260010302611cb6565b505b509050611cf99190611d40565b5090565b611d3d91905b80821115611d3957600081816101000a81549073ffffffffffffffffffffffffffffffffffffffff021916905550600101611d03565b5090565b90565b611d7491905b80821115611d7057600081816101000a81549067ffffffffffffffff021916905550600101611d46565b5090565b905600a165627a7a7230582052f56bd3719c0dc5df773f9caa429c49d9a1148f7da64f47e123be81738fc2a70029",
  "source": "pragma solidity ^0.4.17;\n\nimport \"./CosmosERC20.sol\";\nimport \"./Valset.sol\";\n\ncontract Peggy is Valset {\n\n    mapping (bytes => CosmosERC20) cosmosTokenAddress;\n\n    /* Events  */\n\n    event Unlock(address to, uint64 value, address token);\n    event Lock(address to, uint64 value, address token);\n\n    /* Functions */\n\n    function getCosmosTokenAddress(bytes name) internal constant returns (address) {\n      return cosmosTokenAddress[name];\n    }\n\n    /* Adapted from https://ethereum.stackexchange.com/questions/15350/how-to-convert-an-bytes-to-address-in-solidity */\n    function bytesToAddress (bytes b) internal pure returns (address) {\n      uint result = 0;\n      uint i = 0;\n      if (b[0] == 48 && b[1] == 120) {\n        i = 2; // if address starts with 'Ox' begin in index 2\n      }\n      for (i; i < b.length; i++) {\n          uint c = uint(b[i]);\n          if (c >= 48 && c <= 57) {\n              result = result * 16 + (c - 48);\n          }\n          if(c >= 65 && c<= 90) {\n              result = result * 16 + (c - 55);\n          }\n          if(c >= 97 && c<= 122) {\n              result = result * 16 + (c - 87);\n          }\n      }\n      return address(result);\n    }\n\n    // Locks received funds to the consensus of the peg zone\n    /*\n     * @param to          bytes representation of destination address\n     * @param value       value of transference\n     * @param token       token address in origin chain (0x0 if Ethereum, Cosmos for other values)\n     */\n    function lock(bytes to, uint64 value, address token) external payable returns (bool) {\n        if (token == address(0)) {\n            require(msg.value == value);\n            assert(bytesToAddress(to).send(value));\n        } else {\n            assert(ERC20(token).transferFrom(msg.sender, this, value)); // 'this' is the Peggy contract address\n        }\n        Lock(bytesToAddress(to), value, token);\n        return true;\n    }\n\n    // Unlocks Ethereum tokens according to the information from the pegzone. Called by the relayers.\n    /*\n     * @param to          bytes representation of destination address\n     * @param value       value of transference\n     * @param token       token address in origin chain (0x0 if Ethereum, Cosmos for other values)\n     * @param chain       bytes respresentation of the destination chain (not used in MVP, for incentivization of relayers)\n     * @param signers     indexes of each validator\n     * @param v           array of recoverys id\n     * @param r           array of outputs of ECDSA signature\n     * @param s           array of outputs of ECDSA signature\n     */\n    function unlock(\n        address token,\n        address to,\n        uint64 value,\n        uint[] signers,\n        uint8[] v,\n        bytes32[] r,\n        bytes32[] s\n    ) external returns (bool) {\n        bytes32 hashData = keccak256(byte(1), token, value); /*, chain.length, chain*/\n        require(Valset.verifyValidators(hashData, signers.length, signers, v, r, s));\n        if (token == address(0)) {\n            assert(to.send(value));\n        } else {\n            assert(ERC20(token).transfer(to, value));\n        }\n        Unlock(to, value, token);\n        return true;\n    }\n\n    function Peggy(address[] initAddress, uint64[] initPowers) public Valset(initAddress, initPowers) {}\n}\n",
  "sourcePath": "/Users/federico/Desktop/Blockchain/peggy/ethereum-contracts/contracts/Peggy.sol",
  "compiler": {
    "name": "solc",
    "version": "0.4.18+commit.9cf6e910.Emscripten.clang"
  },
  "schemaVersion": "1.0.1",
  "updatedAt": "2018-02-13T15:24:17.192Z"
}