{
  "contractName": "Peggy",
  "abi": [
    {
      "constant": true,
      "inputs": [
        {
          "name": "index",
          "type": "uint256"
        }
      ],
      "name": "getPower",
      "outputs": [
        {
          "name": "",
          "type": "uint64"
        }
      ],
      "payable": false,
      "stateMutability": "view",
      "type": "function"
    },
    {
      "constant": false,
      "inputs": [
        {
          "name": "to",
          "type": "bytes"
        },
        {
          "name": "value",
          "type": "uint64"
        },
        {
          "name": "token",
          "type": "address"
        }
      ],
      "name": "lock",
      "outputs": [
        {
          "name": "",
          "type": "bool"
        }
      ],
      "payable": true,
      "stateMutability": "payable",
      "type": "function"
    },
    {
      "constant": true,
      "inputs": [
        {
          "name": "hash",
          "type": "bytes32"
        },
        {
          "name": "idxs",
          "type": "uint16[]"
        },
        {
          "name": "v",
          "type": "uint8[]"
        },
        {
          "name": "r",
          "type": "bytes32[]"
        },
        {
          "name": "s",
          "type": "bytes32[]"
        }
      ],
      "name": "verify",
      "outputs": [
        {
          "name": "",
          "type": "bool"
        }
      ],
      "payable": false,
      "stateMutability": "view",
      "type": "function"
    },
    {
      "constant": true,
      "inputs": [
        {
          "name": "",
          "type": "uint256"
        }
      ],
      "name": "powers",
      "outputs": [
        {
          "name": "",
          "type": "uint64"
        }
      ],
      "payable": false,
      "stateMutability": "view",
      "type": "function"
    },
    {
      "constant": true,
      "inputs": [],
      "name": "getTotalPower",
      "outputs": [
        {
          "name": "",
          "type": "uint64"
        }
      ],
      "payable": false,
      "stateMutability": "view",
      "type": "function"
    },
    {
      "constant": false,
      "inputs": [
        {
          "name": "addressArg",
          "type": "address[2]"
        },
        {
          "name": "value",
          "type": "uint64"
        },
        {
          "name": "idxs",
          "type": "uint16[]"
        },
        {
          "name": "v",
          "type": "uint8[]"
        },
        {
          "name": "r",
          "type": "bytes32[]"
        },
        {
          "name": "s",
          "type": "bytes32[]"
        }
      ],
      "name": "unlock",
      "outputs": [
        {
          "name": "",
          "type": "bool"
        }
      ],
      "payable": false,
      "stateMutability": "nonpayable",
      "type": "function"
    },
    {
      "constant": true,
      "inputs": [
        {
          "name": "index",
          "type": "uint256"
        }
      ],
      "name": "getValidator",
      "outputs": [
        {
          "name": "",
          "type": "address"
        }
      ],
      "payable": false,
      "stateMutability": "view",
      "type": "function"
    },
    {
      "constant": true,
      "inputs": [],
      "name": "totalPower",
      "outputs": [
        {
          "name": "",
          "type": "uint64"
        }
      ],
      "payable": false,
      "stateMutability": "view",
      "type": "function"
    },
    {
      "constant": true,
      "inputs": [
        {
          "name": "",
          "type": "uint256"
        }
      ],
      "name": "addresses",
      "outputs": [
        {
          "name": "",
          "type": "address"
        }
      ],
      "payable": false,
      "stateMutability": "view",
      "type": "function"
    },
    {
      "inputs": [
        {
          "name": "initAddress",
          "type": "address[]"
        },
        {
          "name": "initPowers",
          "type": "uint64[]"
        }
      ],
      "payable": false,
      "stateMutability": "nonpayable",
      "type": "constructor"
    },
    {
      "anonymous": false,
      "inputs": [
        {
          "indexed": false,
          "name": "to",
          "type": "bytes"
        },
        {
          "indexed": false,
          "name": "value",
          "type": "uint64"
        },
        {
          "indexed": false,
          "name": "token",
          "type": "address"
        }
      ],
      "name": "Lock",
      "type": "event"
    },
    {
      "anonymous": false,
      "inputs": [
        {
          "indexed": false,
          "name": "to",
          "type": "address"
        },
        {
          "indexed": false,
          "name": "value",
          "type": "uint64"
        },
        {
          "indexed": false,
          "name": "token",
          "type": "address"
        }
      ],
      "name": "Unlock",
      "type": "event"
    },
    {
      "anonymous": false,
      "inputs": [
        {
          "indexed": false,
          "name": "newAddresses",
          "type": "address[]"
        },
        {
          "indexed": false,
          "name": "newPowers",
          "type": "uint64[]"
        },
        {
          "indexed": true,
          "name": "seq",
          "type": "uint256"
        }
      ],
      "name": "Update",
      "type": "event"
    }
  ],
  "bytecode": "0x6060604052600060035534156200001557600080fd5b60405162001afc38038062001afc8339810160405280805182019190602001805182019190505081816200005e828262000068640100000000026200104e176401000000009004565b505050506200057f565b60008251825180821415156200007d57600080fd5b84516040518059106200008d5750595b908082528060200260200182016040525060009080519060200190620000b5929190620003ad565b508351604051805910620000c65750595b908082528060200260200182016040525060019080519060200190620000ee9291906200043c565b506000600260006101000a81548167ffffffffffffffff021916908367ffffffffffffffff160217905550600092505b8451831015620002665784838151811015156200013757fe5b906020019060200201516000848154811015156200015157fe5b906000526020600020900160006101000a81548173ffffffffffffffffffffffffffffffffffffffff021916908373ffffffffffffffffffffffffffffffffffffffff1602179055508383815181101515620001a957fe5b90602001906020020151600184815481101515620001c357fe5b90600052602060002090600491828204019190066008026101000a81548167ffffffffffffffff021916908367ffffffffffffffff16021790555083838151811015156200020d57fe5b90602001906020020151600260008282829054906101000a900467ffffffffffffffff160192506101000a81548167ffffffffffffffff021916908367ffffffffffffffff16021790555082806001019350506200011e565b6003547f41e3e7fbffa8e8d5523f548e6d8f0130b20aa4615fe6d442dae2db7172c84e4a6000600160405180806020018060200183810383528581815481526020019150805480156200030f57602002820191906000526020600020905b8160009054906101000a900473ffffffffffffffffffffffffffffffffffffffff1673ffffffffffffffffffffffffffffffffffffffff1681526020019060010190808311620002c4575b505083810382528481815481526020019150805480156200038457602002820191906000526020600020906000905b82829054906101000a900467ffffffffffffffff1667ffffffffffffffff16815260200190600801906020826007010492830192600103820291508084116200033e5790505b505094505050505060405180910390a26003600081548092919060010191905055505050505050565b82805482825590600052602060002090810192821562000429579160200282015b82811115620004285782518260006101000a81548173ffffffffffffffffffffffffffffffffffffffff021916908373ffffffffffffffffffffffffffffffffffffffff16021790555091602001919060010190620003ce565b5b509050620004389190620004ff565b5090565b82805482825590600052602060002090600301600490048101928215620004ec5791602002820160005b83821115620004b457835183826101000a81548167ffffffffffffffff021916908367ffffffffffffffff160217905550926020019260080160208160070104928301926001030262000466565b8015620004ea5782816101000a81549067ffffffffffffffff0219169055600801602081600701049283019260010302620004b4565b505b509050620004fb919062000545565b5090565b6200054291905b808211156200053e57600081816101000a81549073ffffffffffffffffffffffffffffffffffffffff02191690555060010162000506565b5090565b90565b6200057c91905b808211156200057857600081816101000a81549067ffffffffffffffff0219169055506001016200054c565b5090565b90565b61156d806200058f6000396000f300606060405260043610610099576000357c0100000000000000000000000000000000000000000000000000000000900463ffffffff168063017fe8091461009e57806302b87902146100e957806331f3fae21461015657806340c1bfab1461029557806353976a26146102e05780635d2568e41461031d578063b5d89627146103b9578063db3ad22c1461041c578063edf26d9b14610459575b600080fd5b34156100a957600080fd5b6100bf60048080359060200190919050506104bc565b604051808267ffffffffffffffff1667ffffffffffffffff16815260200191505060405180910390f35b61013c6004808035906020019082018035906020019190919290803567ffffffffffffffff1690602001909190803573ffffffffffffffffffffffffffffffffffffffff16906020019091905050610515565b604051808215151515815260200191505060405180910390f35b341561016157600080fd5b61027b6004808035600019169060200190919080359060200190820180359060200190808060200260200160405190810160405280939291908181526020018383602002808284378201915050505050509190803590602001908201803590602001908080602002602001604051908101604052809392919081815260200183836020028082843782019150505050505091908035906020019082018035906020019080806020026020016040519081016040528093929190818152602001838360200280828437820191505050505050919080359060200190820180359060200190808060200260200160405190810160405280939291908181526020018383602002808284378201915050505050509190505061071f565b604051808215151515815260200191505060405180910390f35b34156102a057600080fd5b6102b66004808035906020019091905050610a30565b604051808267ffffffffffffffff1667ffffffffffffffff16815260200191505060405180910390f35b34156102eb57600080fd5b6102f3610a6d565b604051808267ffffffffffffffff1667ffffffffffffffff16815260200191505060405180910390f35b341561032857600080fd5b61039f60048080604001909190803567ffffffffffffffff169060200190919080359060200190820180359060200191909192908035906020019082018035906020019190919290803590602001908201803590602001919091929080359060200190820180359060200191909192905050610a8b565b604051808215151515815260200191505060405180910390f35b34156103c457600080fd5b6103da6004808035906020019091905050610f9a565b604051808273ffffffffffffffffffffffffffffffffffffffff1673ffffffffffffffffffffffffffffffffffffffff16815260200191505060405180910390f35b341561042757600080fd5b61042f610ff5565b604051808267ffffffffffffffff1667ffffffffffffffff16815260200191505060405180910390f35b341561046457600080fd5b61047a600480803590602001909190505061100f565b604051808273ffffffffffffffffffffffffffffffffffffffff1673ffffffffffffffffffffffffffffffffffffffff16815260200191505060405180910390f35b60008160018054905080821015156104d357600080fd5b6001848154811015156104e257fe5b90600052602060002090600491828204019190066008029054906101000a900467ffffffffffffffff1692505050919050565b60008073ffffffffffffffffffffffffffffffffffffffff168273ffffffffffffffffffffffffffffffffffffffff161415610565578267ffffffffffffffff163414151561056057fe5b610672565b8173ffffffffffffffffffffffffffffffffffffffff166323b872dd3330866000604051602001526040518463ffffffff167c0100000000000000000000000000000000000000000000000000000000028152600401808473ffffffffffffffffffffffffffffffffffffffff1673ffffffffffffffffffffffffffffffffffffffff1681526020018373ffffffffffffffffffffffffffffffffffffffff1673ffffffffffffffffffffffffffffffffffffffff1681526020018267ffffffffffffffff1681526020019350505050602060405180830381600087803b151561064e57600080fd5b6102c65a03f1151561065f57600080fd5b50505060405180519050151561067157fe5b5b7faee3d4d5787da8a9356f2b767f5ef3f8b14ee4c240ba40769df0ad4b2be5a20e8585858560405180806020018467ffffffffffffffff1667ffffffffffffffff1681526020018373ffffffffffffffffffffffffffffffffffffffff1673ffffffffffffffffffffffffffffffffffffffff168152602001828103825286868281815260200192508082843782019150509550505050505060405180910390a160019050949350505050565b6000806000808054905087511115151561073c5760009250610a25565b8551875114801561074e575084518651145b801561075b575083518551145b151561076a5760009250610a25565b60009150600090505b86518110156109df57600181101580156107c65750866001820381518110151561079957fe5b9060200190602002015161ffff1687828151811015156107b557fe5b9060200190602002015161ffff1611155b156107d45760009250610a25565b600087828151811015156107e457fe5b9060200190602002015161ffff168154811015156107fe57fe5b906000526020600020900160009054906101000a900473ffffffffffffffffffffffffffffffffffffffff1673ffffffffffffffffffffffffffffffffffffffff16600189888a8581518110151561085257fe5b9060200190602002015161ffff1681518110151561086c57fe5b90602001906020020151888b8681518110151561088557fe5b9060200190602002015161ffff1681518110151561089f57fe5b90602001906020020151888c878151811015156108b857fe5b9060200190602002015161ffff168151811015156108d257fe5b90602001906020020151604051600081526020016040526000604051602001526040518085600019166000191681526020018460ff1660ff16815260200183600019166000191681526020018260001916600019168152602001945050505050602060405160208103908084039060008661646e5a03f1151561095457600080fd5b50506020604051035173ffffffffffffffffffffffffffffffffffffffff1614156109d2576001878281518110151561098957fe5b9060200190602002015161ffff168154811015156109a357fe5b90600052602060002090600491828204019190066008029054906101000a900467ffffffffffffffff16820191505b8080600101915050610773565b60028060009054906101000a900467ffffffffffffffff160267ffffffffffffffff166003830267ffffffffffffffff16111515610a205760009250610a25565b600192505b505095945050505050565b600181815481101515610a3f57fe5b9060005260206000209060049182820401919006600802915054906101000a900467ffffffffffffffff1681565b6000600260009054906101000a900467ffffffffffffffff16905090565b60008060017f0100000000000000000000000000000000000000000000000000000000000000028c6000600281101515610ac157fe5b602002013573ffffffffffffffffffffffffffffffffffffffff168c60405180847effffffffffffffffffffffffffffffffffffffffffffffffffffffffffffff19167effffffffffffffffffffffffffffffffffffffffffffffffffffffffffffff191681526001018373ffffffffffffffffffffffffffffffffffffffff1673ffffffffffffffffffffffffffffffffffffffff166c010000000000000000000000000281526014018267ffffffffffffffff1667ffffffffffffffff167801000000000000000000000000000000000000000000000000028152600801935050505060405180910390209050610c79818b8b808060200260200160405190810160405280939291908181526020018383602002808284378201915050505050508a8a8080602002602001604051908101604052809392919081815260200183836020028082843782019150505050505089898080602002602001604051908101604052809392919081815260200183836020028082843782019150505050505088888080602002602001604051908101604052809392919081815260200183836020028082843782019150505050505061071f565b1515610c8457600080fd5b600073ffffffffffffffffffffffffffffffffffffffff168c6001600281101515610cab57fe5b602002013573ffffffffffffffffffffffffffffffffffffffff1673ffffffffffffffffffffffffffffffffffffffff161415610d57578b6000600281101515610cf157fe5b602002013573ffffffffffffffffffffffffffffffffffffffff1673ffffffffffffffffffffffffffffffffffffffff166108fc8c67ffffffffffffffff169081150290604051600060405180830381858888f193505050501515610d5257fe5b610e82565b8b6001600281101515610d6657fe5b602002013573ffffffffffffffffffffffffffffffffffffffff1673ffffffffffffffffffffffffffffffffffffffff1663a9059cbb8d6001600281101515610dab57fe5b602002013573ffffffffffffffffffffffffffffffffffffffff168d6000604051602001526040518363ffffffff167c0100000000000000000000000000000000000000000000000000000000028152600401808373ffffffffffffffffffffffffffffffffffffffff1673ffffffffffffffffffffffffffffffffffffffff1681526020018267ffffffffffffffff16815260200192505050602060405180830381600087803b1515610e5e57600080fd5b6102c65a03f11515610e6f57600080fd5b505050604051805190501515610e8157fe5b5b7f0133fdf0eff61956d0e969416cb7263bcde11e532e184d59a5ef3f640e56e30d8c6000600281101515610eb257fe5b602002013573ffffffffffffffffffffffffffffffffffffffff168c8e6001600281101515610edd57fe5b602002013573ffffffffffffffffffffffffffffffffffffffff16604051808473ffffffffffffffffffffffffffffffffffffffff1673ffffffffffffffffffffffffffffffffffffffff1681526020018367ffffffffffffffff1667ffffffffffffffff1681526020018273ffffffffffffffffffffffffffffffffffffffff1673ffffffffffffffffffffffffffffffffffffffff168152602001935050505060405180910390a160019150509a9950505050505050505050565b6000816000805490508082101515610fb157600080fd5b600084815481101515610fc057fe5b906000526020600020900160009054906101000a900473ffffffffffffffffffffffffffffffffffffffff1692505050919050565b600260009054906101000a900467ffffffffffffffff1681565b60008181548110151561101e57fe5b90600052602060002090016000915054906101000a900473ffffffffffffffffffffffffffffffffffffffff1681565b600082518251808214151561106257600080fd5b84516040518059106110715750595b908082528060200260200182016040525060009080519060200190611097929190611381565b5083516040518059106110a75750595b9080825280602002602001820160405250600190805190602001906110cd92919061140b565b506000600260006101000a81548167ffffffffffffffff021916908367ffffffffffffffff160217905550600092505b845183101561123e57848381518110151561111457fe5b9060200190602002015160008481548110151561112d57fe5b906000526020600020900160006101000a81548173ffffffffffffffffffffffffffffffffffffffff021916908373ffffffffffffffffffffffffffffffffffffffff160217905550838381518110151561118457fe5b9060200190602002015160018481548110151561119d57fe5b90600052602060002090600491828204019190066008026101000a81548167ffffffffffffffff021916908367ffffffffffffffff16021790555083838151811015156111e657fe5b90602001906020020151600260008282829054906101000a900467ffffffffffffffff160192506101000a81548167ffffffffffffffff021916908367ffffffffffffffff16021790555082806001019350506110fd565b6003547f41e3e7fbffa8e8d5523f548e6d8f0130b20aa4615fe6d442dae2db7172c84e4a6000600160405180806020018060200183810383528581815481526020019150805480156112e557602002820191906000526020600020905b8160009054906101000a900473ffffffffffffffffffffffffffffffffffffffff1673ffffffffffffffffffffffffffffffffffffffff168152602001906001019080831161129b575b5050838103825284818154815260200191508054801561135857602002820191906000526020600020906000905b82829054906101000a900467ffffffffffffffff1667ffffffffffffffff16815260200190600801906020826007010492830192600103820291508084116113135790505b505094505050505060405180910390a26003600081548092919060010191905055505050505050565b8280548282559060005260206000209081019282156113fa579160200282015b828111156113f95782518260006101000a81548173ffffffffffffffffffffffffffffffffffffffff021916908373ffffffffffffffffffffffffffffffffffffffff160217905550916020019190600101906113a1565b5b50905061140791906114c7565b5090565b828054828255906000526020600020906003016004900481019282156114b65791602002820160005b8382111561148057835183826101000a81548167ffffffffffffffff021916908367ffffffffffffffff1602179055509260200192600801602081600701049283019260010302611434565b80156114b45782816101000a81549067ffffffffffffffff0219169055600801602081600701049283019260010302611480565b505b5090506114c3919061150a565b5090565b61150791905b8082111561150357600081816101000a81549073ffffffffffffffffffffffffffffffffffffffff0219169055506001016114cd565b5090565b90565b61153e91905b8082111561153a57600081816101000a81549067ffffffffffffffff021916905550600101611510565b5090565b905600a165627a7a7230582076c1ebbeb39c81691161cdf15feabc93ec6af6807ee4cfd112877ae8ac4dfa0d0029",
  "source": "pragma solidity ^0.4.17;\n\nimport \"./CosmosERC20.sol\";\nimport \"./Valset.sol\";\n\ncontract Peggy is Valset {\n    mapping (bytes => CosmosERC20) cosmosTokenAddress;\n\n    function getCosmosTokenAddress(bytes name) internal constant returns (address) {\n        return cosmosTokenAddress[name];\n    }\n\n    event Lock(bytes to, uint64 value, address token);\n\n\n    /// Locks received funds to the consensus of the peg zone\n    /*\n     * @param to          bytes representation of destination address\n     * @param value       value of transference\n     * @param token       token address in origin chain (0x0 if Ethereum, Cosmos for other values) \n     */\n    function lock(bytes to, uint64 value, address token) external payable returns (bool) {\n        if (token == address(0)) {\n            assert(msg.value == value);\n        } else {\n            assert(ERC20(token).transferFrom(msg.sender, this, value));\n        }\n        Lock(to, value, token);\n        return true;\n    }\n\n    /// Unlocks Ethereum tokens according to the information from the pegzone. Called by the relayers.\n    /*\n     * @param to          bytes representation of destination address\n     * @param value       value of transference\n     * @param token       token address in origin chain (0x0 if Ethereum, Cosmos for other values)\n     * @param chain       bytes respresentation of the destination chain (not used in MVP, for incentivization of relayers)\n     * @param idxs        indexes of each validator\n     * @param v           recovery id\n     * @param r           output of ECDSA signature\n     * @param s           output of ECDSA signature\n     */\n    event Unlock(address to, uint64 value, address token);\n    \n    function unlock(\n        address[2] addressArg, \n        uint64 value, \n        uint16[] idxs, \n        uint8[] v, \n        bytes32[] r,\n        bytes32[] s \n    ) external returns (bool) {\n        bytes32 hash = keccak256(byte(1), addressArg[0], value/*, chain.length, chain*/);\n        require(Valset.verify(hash, idxs, v, r, s));\n        if (addressArg[1] == address(0)) {\n            assert(addressArg[0].send(value));\n        } else {\n            assert(ERC20(addressArg[1]).transfer(addressArg[1], value));\n        }\n        Unlock(addressArg[0], value, addressArg[1]);\n        return true;\n    }\n\n    function Peggy(address[] initAddress, uint64[] initPowers) public Valset(initAddress, initPowers) {\n    }\n}\n",
  "sourcePath": "/Users/federico/Desktop/Blockchain/peggy/ethereum-contracts/contracts/Peggy.sol",
  "compiler": {
    "name": "solc",
    "version": "0.4.18+commit.9cf6e910.Emscripten.clang"
  },
  "schemaVersion": "1.0.1",
  "updatedAt": "2018-02-02T17:53:18.976Z"
}