{
  "contractName": "Peggy",
  "abi": [
    {
      "constant": true,
      "inputs": [
        {
          "name": "index",
          "type": "uint256"
        }
      ],
      "name": "getPower",
      "outputs": [
        {
          "name": "",
          "type": "uint64"
        }
      ],
      "payable": false,
      "stateMutability": "view",
      "type": "function"
    },
    {
      "constant": false,
      "inputs": [
        {
          "name": "to",
          "type": "bytes"
        },
        {
          "name": "value",
          "type": "uint64"
        },
        {
          "name": "token",
          "type": "address"
        }
      ],
      "name": "lock",
      "outputs": [
        {
          "name": "",
          "type": "bool"
        }
      ],
      "payable": true,
      "stateMutability": "payable",
      "type": "function"
    },
    {
      "constant": true,
      "inputs": [
        {
          "name": "",
          "type": "uint256"
        }
      ],
      "name": "powers",
      "outputs": [
        {
          "name": "",
          "type": "uint64"
        }
      ],
      "payable": false,
      "stateMutability": "view",
      "type": "function"
    },
    {
      "constant": true,
      "inputs": [],
      "name": "getTotalPower",
      "outputs": [
        {
          "name": "",
          "type": "uint64"
        }
      ],
      "payable": false,
      "stateMutability": "view",
      "type": "function"
    },
    {
      "constant": false,
      "inputs": [
        {
          "name": "hash",
          "type": "bytes32"
        },
        {
          "name": "signers",
          "type": "uint16[]"
        },
        {
          "name": "v",
          "type": "uint8[]"
        },
        {
          "name": "r",
          "type": "bytes32[]"
        },
        {
          "name": "s",
          "type": "bytes32[]"
        }
      ],
      "name": "verifyValidators",
      "outputs": [
        {
          "name": "",
          "type": "bool"
        }
      ],
      "payable": false,
      "stateMutability": "nonpayable",
      "type": "function"
    },
    {
      "constant": false,
      "inputs": [
        {
          "name": "newAddress",
          "type": "address[]"
        },
        {
          "name": "newPowers",
          "type": "uint64[]"
        },
        {
          "name": "signers",
          "type": "uint16[]"
        },
        {
          "name": "v",
          "type": "uint8[]"
        },
        {
          "name": "r",
          "type": "bytes32[]"
        },
        {
          "name": "s",
          "type": "bytes32[]"
        }
      ],
      "name": "update",
      "outputs": [
        {
          "name": "",
          "type": "bool"
        }
      ],
      "payable": false,
      "stateMutability": "nonpayable",
      "type": "function"
    },
    {
      "constant": true,
      "inputs": [
        {
          "name": "index",
          "type": "uint256"
        }
      ],
      "name": "getValidator",
      "outputs": [
        {
          "name": "",
          "type": "address"
        }
      ],
      "payable": false,
      "stateMutability": "view",
      "type": "function"
    },
    {
      "constant": true,
      "inputs": [],
      "name": "totalPower",
      "outputs": [
        {
          "name": "",
          "type": "uint64"
        }
      ],
      "payable": false,
      "stateMutability": "view",
      "type": "function"
    },
    {
      "constant": true,
      "inputs": [
        {
          "name": "",
          "type": "uint256"
        }
      ],
      "name": "addresses",
      "outputs": [
        {
          "name": "",
          "type": "address"
        }
      ],
      "payable": false,
      "stateMutability": "view",
      "type": "function"
    },
    {
      "constant": false,
      "inputs": [
        {
          "name": "token",
          "type": "address"
        },
        {
          "name": "to",
          "type": "address"
        },
        {
          "name": "value",
          "type": "uint64"
        },
        {
          "name": "signers",
          "type": "uint16[]"
        },
        {
          "name": "v",
          "type": "uint8[]"
        },
        {
          "name": "r",
          "type": "bytes32[]"
        },
        {
          "name": "s",
          "type": "bytes32[]"
        }
      ],
      "name": "unlock",
      "outputs": [
        {
          "name": "",
          "type": "bool"
        }
      ],
      "payable": false,
      "stateMutability": "nonpayable",
      "type": "function"
    },
    {
      "inputs": [
        {
          "name": "initAddress",
          "type": "address[]"
        },
        {
          "name": "initPowers",
          "type": "uint64[]"
        }
      ],
      "payable": false,
      "stateMutability": "nonpayable",
      "type": "constructor"
    },
    {
      "anonymous": false,
      "inputs": [
        {
          "indexed": false,
          "name": "to",
          "type": "address"
        },
        {
          "indexed": false,
          "name": "value",
          "type": "uint64"
        },
        {
          "indexed": false,
          "name": "token",
          "type": "address"
        }
      ],
      "name": "Unlock",
      "type": "event"
    },
    {
      "anonymous": false,
      "inputs": [
        {
          "indexed": false,
          "name": "to",
          "type": "bytes"
        },
        {
          "indexed": false,
          "name": "value",
          "type": "uint64"
        },
        {
          "indexed": false,
          "name": "token",
          "type": "address"
        }
      ],
      "name": "Lock",
      "type": "event"
    },
    {
      "anonymous": false,
      "inputs": [
        {
          "indexed": false,
          "name": "newAddresses",
          "type": "address[]"
        },
        {
          "indexed": false,
          "name": "newPowers",
          "type": "uint64[]"
        },
        {
          "indexed": true,
          "name": "seq",
          "type": "uint256"
        }
      ],
      "name": "Update",
      "type": "event"
    },
    {
      "anonymous": false,
      "inputs": [
        {
          "indexed": false,
          "name": "signers",
          "type": "uint16[]"
        }
      ],
      "name": "Verify",
      "type": "event"
    },
    {
      "anonymous": false,
      "inputs": [],
      "name": "NoSupermajority",
      "type": "event"
    },
    {
      "anonymous": false,
      "inputs": [
        {
          "indexed": false,
          "name": "signers",
          "type": "uint16[]"
        }
      ],
      "name": "NoLen",
      "type": "event"
    },
    {
      "anonymous": false,
      "inputs": [
        {
          "indexed": false,
          "name": "validatorIdx",
          "type": "uint16"
        },
        {
          "indexed": false,
          "name": "v",
          "type": "uint8"
        },
        {
          "indexed": false,
          "name": "r",
          "type": "bytes32"
        },
        {
          "indexed": false,
          "name": "s",
          "type": "bytes32"
        }
      ],
      "name": "InvalidSignature",
      "type": "event"
    }
  ],
  "bytecode": "0x6060604052600060035534156200001557600080fd5b6040516200220e3803806200220e8339810160405280805182019190602001805182019190505081816200005e828262000069640100000000026200170a176401000000009004565b5050505050620005a1565b60008060008451845180821415156200008157600080fd5b8651606481111515156200009457600080fd5b8751604051805910620000a45750595b908082528060200260200182016040525060009080519060200190620000cc929190620003cf565b508651604051805910620000dd5750595b908082528060200260200182016040525060019080519060200190620001059291906200045e565b506000600260006101000a81548167ffffffffffffffff021916908367ffffffffffffffff160217905550600094505b87518510156200027d5787858151811015156200014e57fe5b906020019060200201516000868154811015156200016857fe5b906000526020600020900160006101000a81548173ffffffffffffffffffffffffffffffffffffffff021916908373ffffffffffffffffffffffffffffffffffffffff1602179055508685815181101515620001c057fe5b90602001906020020151600186815481101515620001da57fe5b90600052602060002090600491828204019190066008026101000a81548167ffffffffffffffff021916908367ffffffffffffffff16021790555086858151811015156200022457fe5b90602001906020020151600260008282829054906101000a900467ffffffffffffffff160192506101000a81548167ffffffffffffffff021916908367ffffffffffffffff160217905550848060010195505062000135565b6003549350837f41e3e7fbffa8e8d5523f548e6d8f0130b20aa4615fe6d442dae2db7172c84e4a6000600160405180806020018060200183810383528581815481526020019150805480156200032957602002820191906000526020600020905b8160009054906101000a900473ffffffffffffffffffffffffffffffffffffffff1673ffffffffffffffffffffffffffffffffffffffff1681526020019060010190808311620002de575b505083810382528481815481526020019150805480156200039e57602002820191906000526020600020906000905b82829054906101000a900467ffffffffffffffff1667ffffffffffffffff1681526020019060080190602082600701049283019260010382029150808411620003585790505b505094505050505060405180910390a260036000815480929190600101919050555060019550505050505092915050565b8280548282559060005260206000209081019282156200044b579160200282015b828111156200044a5782518260006101000a81548173ffffffffffffffffffffffffffffffffffffffff021916908373ffffffffffffffffffffffffffffffffffffffff16021790555091602001919060010190620003f0565b5b5090506200045a919062000521565b5090565b828054828255906000526020600020906003016004900481019282156200050e5791602002820160005b83821115620004d657835183826101000a81548167ffffffffffffffff021916908367ffffffffffffffff160217905550926020019260080160208160070104928301926001030262000488565b80156200050c5782816101000a81549067ffffffffffffffff0219169055600801602081600701049283019260010302620004d6565b505b5090506200051d919062000567565b5090565b6200056491905b808211156200056057600081816101000a81549073ffffffffffffffffffffffffffffffffffffffff02191690555060010162000528565b5090565b90565b6200059e91905b808211156200059a57600081816101000a81549067ffffffffffffffff0219169055506001016200056e565b5090565b90565b611c5d80620005b16000396000f3006060604052600436106100a4576000357c0100000000000000000000000000000000000000000000000000000000900463ffffffff168063017fe809146100a957806302b87902146100f457806340c1bfab1461016157806353976a26146101ac57806374601e69146101e957806391fa6d1f14610328578063b5d89627146104da578063db3ad22c1461053d578063edf26d9b1461057a578063f74d5757146105dd575b600080fd5b34156100b457600080fd5b6100ca60048080359060200190919050506106b0565b604051808267ffffffffffffffff1667ffffffffffffffff16815260200191505060405180910390f35b6101476004808035906020019082018035906020019190919290803567ffffffffffffffff1690602001909190803573ffffffffffffffffffffffffffffffffffffffff16906020019091905050610709565b604051808215151515815260200191505060405180910390f35b341561016c57600080fd5b6101826004808035906020019091905050610997565b604051808267ffffffffffffffff1667ffffffffffffffff16815260200191505060405180910390f35b34156101b757600080fd5b6101bf6109d4565b604051808267ffffffffffffffff1667ffffffffffffffff16815260200191505060405180910390f35b34156101f457600080fd5b61030e600480803560001916906020019091908035906020019082018035906020019080806020026020016040519081016040528093929190818152602001838360200280828437820191505050505050919080359060200190820180359060200190808060200260200160405190810160405280939291908181526020018383602002808284378201915050505050509190803590602001908201803590602001908080602002602001604051908101604052809392919081815260200183836020028082843782019150505050505091908035906020019082018035906020019080806020026020016040519081016040528093929190818152602001838360200280828437820191505050505050919050506109f2565b604051808215151515815260200191505060405180910390f35b341561033357600080fd5b6104c06004808035906020019082018035906020019080806020026020016040519081016040528093929190818152602001838360200280828437820191505050505050919080359060200190820180359060200190808060200260200160405190810160405280939291908181526020018383602002808284378201915050505050509190803590602001908201803590602001908080602002602001604051908101604052809392919081815260200183836020028082843782019150505050505091908035906020019082018035906020019080806020026020016040519081016040528093929190818152602001838360200280828437820191505050505050919080359060200190820180359060200190808060200260200160405190810160405280939291908181526020018383602002808284378201915050505050509190803590602001908201803590602001908080602002602001604051908101604052809392919081815260200183836020028082843782019150505050505091905050610da3565b604051808215151515815260200191505060405180910390f35b34156104e557600080fd5b6104fb6004808035906020019091905050610e7f565b604051808273ffffffffffffffffffffffffffffffffffffffff1673ffffffffffffffffffffffffffffffffffffffff16815260200191505060405180910390f35b341561054857600080fd5b610550610eda565b604051808267ffffffffffffffff1667ffffffffffffffff16815260200191505060405180910390f35b341561058557600080fd5b61059b6004808035906020019091905050610ef4565b604051808273ffffffffffffffffffffffffffffffffffffffff1673ffffffffffffffffffffffffffffffffffffffff16815260200191505060405180910390f35b34156105e857600080fd5b610696600480803573ffffffffffffffffffffffffffffffffffffffff1690602001909190803573ffffffffffffffffffffffffffffffffffffffff1690602001909190803567ffffffffffffffff169060200190919080359060200190820180359060200191909192908035906020019082018035906020019190919290803590602001908201803590602001919091929080359060200190820180359060200191909192905050610f33565b604051808215151515815260200191505060405180910390f35b60008160018054905080821015156106c757600080fd5b6001848154811015156106d657fe5b90600052602060002090600491828204019190066008029054906101000a900467ffffffffffffffff1692505050919050565b60008073ffffffffffffffffffffffffffffffffffffffff168273ffffffffffffffffffffffffffffffffffffffff1614156107dd578267ffffffffffffffff163414151561075757600080fd5b61079285858080601f016020809104026020016040519081016040528093929190818152602001838380828437820191505050505050611324565b73ffffffffffffffffffffffffffffffffffffffff166108fc8467ffffffffffffffff169081150290604051600060405180830381858888f1935050505015156107d857fe5b6108ea565b8173ffffffffffffffffffffffffffffffffffffffff166323b872dd3330866000604051602001526040518463ffffffff167c0100000000000000000000000000000000000000000000000000000000028152600401808473ffffffffffffffffffffffffffffffffffffffff1673ffffffffffffffffffffffffffffffffffffffff1681526020018373ffffffffffffffffffffffffffffffffffffffff1673ffffffffffffffffffffffffffffffffffffffff1681526020018267ffffffffffffffff1681526020019350505050602060405180830381600087803b15156108c657600080fd5b6102c65a03f115156108d757600080fd5b5050506040518051905015156108e957fe5b5b7faee3d4d5787da8a9356f2b767f5ef3f8b14ee4c240ba40769df0ad4b2be5a20e8585858560405180806020018467ffffffffffffffff1667ffffffffffffffff1681526020018373ffffffffffffffffffffffffffffffffffffffff1673ffffffffffffffffffffffffffffffffffffffff168152602001828103825286868281815260200192508082843782019150509550505050505060405180910390a160019050949350505050565b6001818154811015156109a657fe5b9060005260206000209060049182820401919006600802915054906101000a900467ffffffffffffffff1681565b6000600260009054906101000a900467ffffffffffffffff16905090565b6000806000808751600080549050808211158015610a11575060648111155b1515610a1c57600080fd5b6000945060008a511415610aa3577fc17ced37a1a6635bb94624e4b95601b26943d5f977bbe3d3407cb97dd72220918a6040518080602001828103825283818151815260200191508051906020019060200280838360005b83811015610a8f578082015181840152602081019050610a74565b505050509050019250505060405180910390a15b600092505b8951831015610cac578983815181101515610abf57fe5b90602001906020020151935060018310158015610afe57508960018403815181101515610ae857fe5b9060200190602002015161ffff168461ffff1611155b15610b0c5760009550610d95565b610b768b8a8661ffff16815181101515610b2257fe5b906020019060200201518a8761ffff16815181101515610b3e57fe5b906020019060200201518a8861ffff16815181101515610b5a57fe5b90602001906020020151610b718961ffff16610e7f565b61158f565b15610bd85760018a84815181101515610b8b57fe5b9060200190602002015161ffff16815481101515610ba557fe5b90600052602060002090600491828204019190066008029054906101000a900467ffffffffffffffff1685019450610c9f565b7f8d98e0d082b441a7b576ce5bb795c6ae4f65a5a32cb908767d0453b42cbf5ea6848a8661ffff16815181101515610c0c57fe5b906020019060200201518a8761ffff16815181101515610c2857fe5b906020019060200201518a8861ffff16815181101515610c4457fe5b90602001906020020151604051808561ffff1661ffff1681526020018460ff1660ff1681526020018360001916600019168152602001826000191660001916815260200194505050505060405180910390a160009550610d95565b8280600101935050610aa8565b60028060009054906101000a900467ffffffffffffffff160267ffffffffffffffff166003860267ffffffffffffffff161015610d18577f2046b042c774254378962119deab4d38a14be1ce2c1c8494a8bd95d483f010fe60405160405180910390a160009550610d95565b7f2e5d316ff791e099be10422993c982eee7d0792c6918c2d3c7eca663393fd6d38a6040518080602001828103825283818151815260200191508051906020019060200280838360005b83811015610d7d578082015181840152602081019050610d62565b505050509050019250505060405180910390a1600195505b505050505095945050505050565b60008085518851808211158015610dbb575060648111155b1515610dc657600080fd5b898960405180838051906020019060200280838360005b83811015610df8578082015181840152602081019050610ddd565b50505050905001828051906020019060200280838360005b83811015610e2b578082015181840152602081019050610e10565b505050509050019250505060405180910390209250610e4d83898989896109f2565b1515610e5557fe5b610e5f8a8a61170a565b15610e6d5760019350610e72565b600093505b5050509695505050505050565b6000816000805490508082101515610e9657600080fd5b600084815481101515610ea557fe5b906000526020600020900160009054906101000a900473ffffffffffffffffffffffffffffffffffffffff1692505050919050565b600260009054906101000a900467ffffffffffffffff1681565b600081815481101515610f0357fe5b90600052602060002090016000915054906101000a900473ffffffffffffffffffffffffffffffffffffffff1681565b60008060017f0100000000000000000000000000000000000000000000000000000000000000028d8c60405180847effffffffffffffffffffffffffffffffffffffffffffffffffffffffffffff19167effffffffffffffffffffffffffffffffffffffffffffffffffffffffffffff191681526001018373ffffffffffffffffffffffffffffffffffffffff1673ffffffffffffffffffffffffffffffffffffffff166c010000000000000000000000000281526014018267ffffffffffffffff1667ffffffffffffffff1678010000000000000000000000000000000000000000000000000281526008019350505050604051809103902090506110f8818b8b808060200260200160405190810160405280939291908181526020018383602002808284378201915050505050508a8a808060200260200160405190810160405280939291908181526020018383602002808284378201915050505050508989808060200260200160405190810160405280939291908181526020018383602002808284378201915050505050508888808060200260200160405190810160405280939291908181526020018383602002808284378201915050505050506109f2565b151561110357600080fd5b600073ffffffffffffffffffffffffffffffffffffffff168d73ffffffffffffffffffffffffffffffffffffffff161415611184578b73ffffffffffffffffffffffffffffffffffffffff166108fc8c67ffffffffffffffff169081150290604051600060405180830381858888f19350505050151561117f57fe5b61125d565b8c73ffffffffffffffffffffffffffffffffffffffff1663a9059cbb8d8d6000604051602001526040518363ffffffff167c0100000000000000000000000000000000000000000000000000000000028152600401808373ffffffffffffffffffffffffffffffffffffffff1673ffffffffffffffffffffffffffffffffffffffff1681526020018267ffffffffffffffff16815260200192505050602060405180830381600087803b151561123957600080fd5b6102c65a03f1151561124a57600080fd5b50505060405180519050151561125c57fe5b5b7f0133fdf0eff61956d0e969416cb7263bcde11e532e184d59a5ef3f640e56e30d8c8c8f604051808473ffffffffffffffffffffffffffffffffffffffff1673ffffffffffffffffffffffffffffffffffffffff1681526020018367ffffffffffffffff1667ffffffffffffffff1681526020018273ffffffffffffffffffffffffffffffffffffffff1673ffffffffffffffffffffffffffffffffffffffff168152602001935050505060405180910390a160019150509b9a5050505050505050505050565b600080600080600092506000915060307f01000000000000000000000000000000000000000000000000000000000000000285600081518110151561136557fe5b9060200101517f010000000000000000000000000000000000000000000000000000000000000090047f0100000000000000000000000000000000000000000000000000000000000000027effffffffffffffffffffffffffffffffffffffffffffffffffffffffffffff191614801561147c575060787f01000000000000000000000000000000000000000000000000000000000000000285600181518110151561140d57fe5b9060200101517f010000000000000000000000000000000000000000000000000000000000000090047f0100000000000000000000000000000000000000000000000000000000000000027effffffffffffffffffffffffffffffffffffffffffffffffffffffffffffff1916145b1561148657600291505b5b845182101561158457848281518110151561149e57fe5b9060200101517f010000000000000000000000000000000000000000000000000000000000000090047f0100000000000000000000000000000000000000000000000000000000000000027f01000000000000000000000000000000000000000000000000000000000000009004905060308110158015611520575060398111155b156115315760308103601084020192505b604181101580156115435750605a8111155b156115545760378103601084020192505b606181101580156115665750607a8111155b156115775760578103601084020192505b8180600101925050611487565b829350505050919050565b6000611599611a5d565b60006040805190810160405280601c81526020017f19457468657265756d205369676e6564204d6573736167653a0a333200000000815250915081886040518083805190602001908083835b60208310151561160a57805182526020820191506020810190506020830392506115e5565b6001836020036101000a038019825116818451168082178552505050505050905001826000191660001916815260200192505050604051809103902090508373ffffffffffffffffffffffffffffffffffffffff16600182898989604051600081526020016040526000604051602001526040518085600019166000191681526020018460ff1660ff16815260200183600019166000191681526020018260001916600019168152602001945050505050602060405160208103908084039060008661646e5a03f115156116dd57600080fd5b50506020604051035173ffffffffffffffffffffffffffffffffffffffff16149250505095945050505050565b600080600084518451808214151561172157600080fd5b86516064811115151561173357600080fd5b87516040518059106117425750595b908082528060200260200182016040525060009080519060200190611768929190611a71565b5086516040518059106117785750595b90808252806020026020018201604052506001908051906020019061179e929190611afb565b506000600260006101000a81548167ffffffffffffffff021916908367ffffffffffffffff160217905550600094505b875185101561190f5787858151811015156117e557fe5b906020019060200201516000868154811015156117fe57fe5b906000526020600020900160006101000a81548173ffffffffffffffffffffffffffffffffffffffff021916908373ffffffffffffffffffffffffffffffffffffffff160217905550868581518110151561185557fe5b9060200190602002015160018681548110151561186e57fe5b90600052602060002090600491828204019190066008026101000a81548167ffffffffffffffff021916908367ffffffffffffffff16021790555086858151811015156118b757fe5b90602001906020020151600260008282829054906101000a900467ffffffffffffffff160192506101000a81548167ffffffffffffffff021916908367ffffffffffffffff16021790555084806001019550506117ce565b6003549350837f41e3e7fbffa8e8d5523f548e6d8f0130b20aa4615fe6d442dae2db7172c84e4a6000600160405180806020018060200183810383528581815481526020019150805480156119b957602002820191906000526020600020905b8160009054906101000a900473ffffffffffffffffffffffffffffffffffffffff1673ffffffffffffffffffffffffffffffffffffffff168152602001906001019080831161196f575b50508381038252848181548152602001915080548015611a2c57602002820191906000526020600020906000905b82829054906101000a900467ffffffffffffffff1667ffffffffffffffff16815260200190600801906020826007010492830192600103820291508084116119e75790505b505094505050505060405180910390a260036000815480929190600101919050555060019550505050505092915050565b602060405190810160405280600081525090565b828054828255906000526020600020908101928215611aea579160200282015b82811115611ae95782518260006101000a81548173ffffffffffffffffffffffffffffffffffffffff021916908373ffffffffffffffffffffffffffffffffffffffff16021790555091602001919060010190611a91565b5b509050611af79190611bb7565b5090565b82805482825590600052602060002090600301600490048101928215611ba65791602002820160005b83821115611b7057835183826101000a81548167ffffffffffffffff021916908367ffffffffffffffff1602179055509260200192600801602081600701049283019260010302611b24565b8015611ba45782816101000a81549067ffffffffffffffff0219169055600801602081600701049283019260010302611b70565b505b509050611bb39190611bfa565b5090565b611bf791905b80821115611bf357600081816101000a81549073ffffffffffffffffffffffffffffffffffffffff021916905550600101611bbd565b5090565b90565b611c2e91905b80821115611c2a57600081816101000a81549067ffffffffffffffff021916905550600101611c00565b5090565b905600a165627a7a723058203b1197af8137c71704e272c85627f908d1fc7591ab48d3579726edfb07a47bb40029",
  "source": "pragma solidity ^0.4.17;\n\nimport \"./CosmosERC20.sol\";\nimport \"./Valset.sol\";\n\ncontract Peggy is Valset {\n\n    mapping (bytes => CosmosERC20) cosmosTokenAddress;\n\n    /* Events  */\n\n    event Unlock(address to, uint64 value, address token);\n    event Lock(bytes to, uint64 value, address token);\n\n\n    /* Functions */\n\n    function getCosmosTokenAddress(bytes name) internal constant returns (address) {\n      return cosmosTokenAddress[name];\n    }\n\n    /* Adapted from https://ethereum.stackexchange.com/questions/15350/how-to-convert-an-bytes-to-address-in-solidity */\n    function bytesToAddress (bytes b) internal pure returns (address) {\n      uint result = 0;\n      uint i = 0;\n      if (b[0] == 48 && b[1] == 120) {\n        i = 2; // if address starts with 'Ox' begin in index 2\n      }\n      for (i; i < b.length; i++) {\n          uint c = uint(b[i]);\n          if (c >= 48 && c <= 57) {\n              result = result * 16 + (c - 48);\n          }\n          if(c >= 65 && c<= 90) {\n              result = result * 16 + (c - 55);\n          }\n          if(c >= 97 && c<= 122) {\n              result = result * 16 + (c - 87);\n          }\n      }\n      return address(result);\n    }\n\n    /// Locks received funds to the consensus of the peg zone\n    /*\n     * @param to          bytes representation of destination address\n     * @param value       value of transference\n     * @param token       token address in origin chain (0x0 if Ethereum, Cosmos for other values)\n     */\n    function lock(bytes to, uint64 value, address token) external payable returns (bool) {\n        if (token == address(0)) {\n            require(msg.value == value);\n            assert(bytesToAddress(to).send(value));\n\n        } else {\n\n            assert(ERC20(token).transferFrom(msg.sender, this, value)); // 'this' is the Peggy contract address\n        }\n        Lock(to, value, token);\n        return true;\n    }\n\n    /// Unlocks Ethereum tokens according to the information from the pegzone. Called by the relayers.\n    /*\n     * @param to          bytes representation of destination address\n     * @param value       value of transference\n     * @param token       token address in origin chain (0x0 if Ethereum, Cosmos for other values)\n     * @param chain       bytes respresentation of the destination chain (not used in MVP, for incentivization of relayers)\n     * @param signers     indexes of each validator\n     * @param v           array of recoverys id\n     * @param r           array of outputs of ECDSA signature\n     * @param s           array of outputs of ECDSA signature\n     */\n    function unlock(\n        /* address[2] addressArg, // 0: token, 1: to */\n        address token,\n        address to,\n        uint64 value,\n        uint16[] signers,\n        uint8[] v,\n        bytes32[] r,\n        bytes32[] s\n    ) external returns (bool) {\n        bytes32 hashData = keccak256(byte(1), token, value); /*, chain.length, chain*/\n        require(Valset.verifyValidators(hashData, signers, v, r, s));\n        if (token == address(0)) {\n            assert(to.send(value));\n        } else {\n            assert(ERC20(token).transfer(to, value));\n        }\n        Unlock(to, value, token);\n        return true;\n    }\n\n    function Peggy(address[] initAddress, uint64[] initPowers) public Valset(initAddress, initPowers) {\n\n    }\n}\n",
  "sourcePath": "/Users/federico/Desktop/Blockchain/peggy/ethereum-contracts/contracts/Peggy.sol",
  "compiler": {
    "name": "solc",
    "version": "0.4.18+commit.9cf6e910.Emscripten.clang"
  },
  "schemaVersion": "1.0.1",
  "updatedAt": "2018-02-08T15:57:57.646Z"
}