{
  "contractName": "Valset",
  "abi": [
    {
      "constant": true,
      "inputs": [
        {
          "name": "",
          "type": "uint256"
        }
      ],
      "name": "powers",
      "outputs": [
        {
          "name": "",
          "type": "uint64"
        }
      ],
      "payable": false,
      "stateMutability": "view",
      "type": "function"
    },
    {
      "constant": true,
      "inputs": [],
      "name": "totalPower",
      "outputs": [
        {
          "name": "",
          "type": "uint64"
        }
      ],
      "payable": false,
      "stateMutability": "view",
      "type": "function"
    },
    {
      "constant": true,
      "inputs": [
        {
          "name": "",
          "type": "uint256"
        }
      ],
      "name": "addresses",
      "outputs": [
        {
          "name": "",
          "type": "address"
        }
      ],
      "payable": false,
      "stateMutability": "view",
      "type": "function"
    },
    {
      "inputs": [
        {
          "name": "initAddress",
          "type": "address[]"
        },
        {
          "name": "initPowers",
          "type": "uint64[]"
        }
      ],
      "payable": false,
      "stateMutability": "nonpayable",
      "type": "constructor"
    },
    {
      "anonymous": false,
      "inputs": [
        {
          "indexed": false,
          "name": "newAddresses",
          "type": "address[]"
        },
        {
          "indexed": false,
          "name": "newPowers",
          "type": "uint64[]"
        },
        {
          "indexed": true,
          "name": "seq",
          "type": "uint256"
        }
      ],
      "name": "Update",
      "type": "event"
    },
    {
      "constant": true,
      "inputs": [
        {
          "name": "hash",
          "type": "bytes32"
        },
        {
          "name": "idxs",
          "type": "uint16[]"
        },
        {
          "name": "v",
          "type": "uint8[]"
        },
        {
          "name": "r",
          "type": "bytes32[]"
        },
        {
          "name": "s",
          "type": "bytes32[]"
        }
      ],
      "name": "verify",
      "outputs": [
        {
          "name": "",
          "type": "bool"
        }
      ],
      "payable": false,
      "stateMutability": "view",
      "type": "function"
    }
  ],
  "bytecode": "0x6060604052600060035534156200001557600080fd5b604051620010d2380380620010d2833981016040528080518201919060200180518201919050506200005c8282620000646401000000000262000638176401000000009004565b505062000573565b6000815183511415156200007757600080fd5b8251604051805910620000875750595b908082528060200260200182016040525060009080519060200190620000af929190620003a1565b508151604051805910620000c05750595b908082528060200260200182016040525060019080519060200190620000e892919062000430565b506000600260006101000a81548167ffffffffffffffff021916908367ffffffffffffffff160217905550600090505b8251811015620002605782818151811015156200013157fe5b906020019060200201516000828154811015156200014b57fe5b906000526020600020900160006101000a81548173ffffffffffffffffffffffffffffffffffffffff021916908373ffffffffffffffffffffffffffffffffffffffff1602179055508181815181101515620001a357fe5b90602001906020020151600182815481101515620001bd57fe5b90600052602060002090600491828204019190066008026101000a81548167ffffffffffffffff021916908367ffffffffffffffff16021790555081818151811015156200020757fe5b90602001906020020151600260008282829054906101000a900467ffffffffffffffff160192506101000a81548167ffffffffffffffff021916908367ffffffffffffffff160217905550808060010191505062000118565b60036000815480929190600101919050557f41e3e7fbffa8e8d5523f548e6d8f0130b20aa4615fe6d442dae2db7172c84e4a6000600160405180806020018060200183810383528581815481526020019150805480156200031757602002820191906000526020600020905b8160009054906101000a900473ffffffffffffffffffffffffffffffffffffffff1673ffffffffffffffffffffffffffffffffffffffff1681526020019060010190808311620002cc575b505083810382528481815481526020019150805480156200038c57602002820191906000526020600020906000905b82829054906101000a900467ffffffffffffffff1667ffffffffffffffff1681526020019060080190602082600701049283019260010382029150808411620003465790505b505094505050505060405180910390a2505050565b8280548282559060005260206000209081019282156200041d579160200282015b828111156200041c5782518260006101000a81548173ffffffffffffffffffffffffffffffffffffffff021916908373ffffffffffffffffffffffffffffffffffffffff16021790555091602001919060010190620003c2565b5b5090506200042c9190620004f3565b5090565b82805482825590600052602060002090600301600490048101928215620004e05791602002820160005b83821115620004a857835183826101000a81548167ffffffffffffffff021916908367ffffffffffffffff16021790555092602001926008016020816007010492830192600103026200045a565b8015620004de5782816101000a81549067ffffffffffffffff0219169055600801602081600701049283019260010302620004a8565b505b509050620004ef919062000539565b5090565b6200053691905b808211156200053257600081816101000a81549073ffffffffffffffffffffffffffffffffffffffff021916905550600101620004fa565b5090565b90565b6200057091905b808211156200056c57600081816101000a81549067ffffffffffffffff02191690555060010162000540565b5090565b90565b610b4f80620005836000396000f300606060405260043610610062576000357c0100000000000000000000000000000000000000000000000000000000900463ffffffff16806331f3fae21461006757806340c1bfab146101a6578063db3ad22c146101f1578063edf26d9b1461022e575b600080fd5b341561007257600080fd5b61018c60048080356000191690602001909190803590602001908201803590602001908080602002602001604051908101604052809392919081815260200183836020028082843782019150505050505091908035906020019082018035906020019080806020026020016040519081016040528093929190818152602001838360200280828437820191505050505050919080359060200190820180359060200190808060200260200160405190810160405280939291908181526020018383602002808284378201915050505050509190803590602001908201803590602001908080602002602001604051908101604052809392919081815260200183836020028082843782019150505050505091905050610291565b604051808215151515815260200191505060405180910390f35b34156101b157600080fd5b6101c760048080359060200190919050506105a2565b604051808267ffffffffffffffff1667ffffffffffffffff16815260200191505060405180910390f35b34156101fc57600080fd5b6102046105df565b604051808267ffffffffffffffff1667ffffffffffffffff16815260200191505060405180910390f35b341561023957600080fd5b61024f60048080359060200190919050506105f9565b604051808273ffffffffffffffffffffffffffffffffffffffff1673ffffffffffffffffffffffffffffffffffffffff16815260200191505060405180910390f35b600080600080805490508751111515156102ae5760009250610597565b855187511480156102c0575084518651145b80156102cd575083518551145b15156102dc5760009250610597565b60009150600090505b865181101561055157600181101580156103385750866001820381518110151561030b57fe5b9060200190602002015161ffff16878281518110151561032757fe5b9060200190602002015161ffff1611155b156103465760009250610597565b6000878281518110151561035657fe5b9060200190602002015161ffff1681548110151561037057fe5b906000526020600020900160009054906101000a900473ffffffffffffffffffffffffffffffffffffffff1673ffffffffffffffffffffffffffffffffffffffff16600189888a858151811015156103c457fe5b9060200190602002015161ffff168151811015156103de57fe5b90602001906020020151888b868151811015156103f757fe5b9060200190602002015161ffff1681518110151561041157fe5b90602001906020020151888c8781518110151561042a57fe5b9060200190602002015161ffff1681518110151561044457fe5b90602001906020020151604051600081526020016040526000604051602001526040518085600019166000191681526020018460ff1660ff16815260200183600019166000191681526020018260001916600019168152602001945050505050602060405160208103908084039060008661646e5a03f115156104c657600080fd5b50506020604051035173ffffffffffffffffffffffffffffffffffffffff16141561054457600187828151811015156104fb57fe5b9060200190602002015161ffff1681548110151561051557fe5b90600052602060002090600491828204019190066008029054906101000a900467ffffffffffffffff16820191505b80806001019150506102e5565b60028060009054906101000a900467ffffffffffffffff160267ffffffffffffffff166003830267ffffffffffffffff161115156105925760009250610597565b600192505b505095945050505050565b6001818154811015156105b157fe5b9060005260206000209060049182820401919006600802915054906101000a900467ffffffffffffffff1681565b600260009054906101000a900467ffffffffffffffff1681565b60008181548110151561060857fe5b90600052602060002090016000915054906101000a900473ffffffffffffffffffffffffffffffffffffffff1681565b60008151835114151561064a57600080fd5b82516040518059106106595750595b90808252806020026020018201604052506000908051906020019061067f929190610963565b50815160405180591061068f5750595b9080825280602002602001820160405250600190805190602001906106b59291906109ed565b506000600260006101000a81548167ffffffffffffffff021916908367ffffffffffffffff160217905550600090505b82518110156108265782818151811015156106fc57fe5b9060200190602002015160008281548110151561071557fe5b906000526020600020900160006101000a81548173ffffffffffffffffffffffffffffffffffffffff021916908373ffffffffffffffffffffffffffffffffffffffff160217905550818181518110151561076c57fe5b9060200190602002015160018281548110151561078557fe5b90600052602060002090600491828204019190066008026101000a81548167ffffffffffffffff021916908367ffffffffffffffff16021790555081818151811015156107ce57fe5b90602001906020020151600260008282829054906101000a900467ffffffffffffffff160192506101000a81548167ffffffffffffffff021916908367ffffffffffffffff16021790555080806001019150506106e5565b60036000815480929190600101919050557f41e3e7fbffa8e8d5523f548e6d8f0130b20aa4615fe6d442dae2db7172c84e4a6000600160405180806020018060200183810383528581815481526020019150805480156108db57602002820191906000526020600020905b8160009054906101000a900473ffffffffffffffffffffffffffffffffffffffff1673ffffffffffffffffffffffffffffffffffffffff1681526020019060010190808311610891575b5050838103825284818154815260200191508054801561094e57602002820191906000526020600020906000905b82829054906101000a900467ffffffffffffffff1667ffffffffffffffff16815260200190600801906020826007010492830192600103820291508084116109095790505b505094505050505060405180910390a2505050565b8280548282559060005260206000209081019282156109dc579160200282015b828111156109db5782518260006101000a81548173ffffffffffffffffffffffffffffffffffffffff021916908373ffffffffffffffffffffffffffffffffffffffff16021790555091602001919060010190610983565b5b5090506109e99190610aa9565b5090565b82805482825590600052602060002090600301600490048101928215610a985791602002820160005b83821115610a6257835183826101000a81548167ffffffffffffffff021916908367ffffffffffffffff1602179055509260200192600801602081600701049283019260010302610a16565b8015610a965782816101000a81549067ffffffffffffffff0219169055600801602081600701049283019260010302610a62565b505b509050610aa59190610aec565b5090565b610ae991905b80821115610ae557600081816101000a81549073ffffffffffffffffffffffffffffffffffffffff021916905550600101610aaf565b5090565b90565b610b2091905b80821115610b1c57600081816101000a81549067ffffffffffffffff021916905550600101610af2565b5090565b905600a165627a7a723058200e075332012aac458646f6af4af821e6d9f07114ba55dcd0a7d1ec071b8571c70029",
  "source": "pragma solidity ^0.4.11;\n\ncontract Valset {\n    address[] public addresses;\n    uint64[] public powers;\n    uint64 public totalPower;\n\n    uint updateSeq = 0;\n\n    function verify(bytes32 hash, uint16[] idxs, uint8[] v, bytes32[] r, bytes32[] s) public constant returns (bool) {\n        if (!(idxs.length <= addresses.length)) return false;\n        if (!(idxs.length == v.length &&\n              v.length == r.length &&\n              r.length == s.length)) {\n            return false;\n        }\n\n        uint64 signedPower = 0;\n\n        for (uint i = 0; i < idxs.length; i++) {\n            if (i >= 1 && idxs[i] <= idxs[i-1]) return false;\n            if (ecrecover(hash, v[idxs[i]], r[idxs[i]], s[idxs[i]]) == addresses[idxs[i]])\n                signedPower += powers[idxs[i]];\n        }\n\n        if (signedPower * 3 <= totalPower * 2) return false;\n\n        return true;\n    }\n\n    event Update(address[] newAddresses, uint64[] newPowers, uint indexed seq);\n\n    function updateInternal(address[] newAddress, uint64[] newPowers) internal {\n        require(newAddress.length == newPowers.length);\n        addresses = new address[](newAddress.length);\n        powers    = new uint64[](newPowers.length);\n        totalPower = 0;\n        for (uint i = 0; i < newAddress.length; i++) {\n            addresses[i] = newAddress[i];\n            powers[i]    = newPowers[i];\n            totalPower  += newPowers[i];\n        }\n\n        Update(addresses, powers, updateSeq++);\n    }\n\n    /// Updates validator set. Called by the relayers.\n    /*\n     * @param newAddress  new validators addresses\n     * @param newPower    power of each validator\n     * @param idxs        indexes of each validator\n     * @param v           recovery id. Used to compute ecrecover\n     * @param r           output of ECDSA signature. Used to compute ecrecover\n     * @param s           output of ECDSA signature.  Used to compute ecrecover\n     */\n/*\n    function update(address[] newAddress, uint64[] newPowers, uint16[] idxs, uint8[] v, bytes32[] r, bytes32[] s) {\n        require(newAddress.length == newPowers.length);\n\n        assert(verify(keccak256(newAddress, newPowers), idxs, v, r, s)); // hashing can be changed\n\n        updateInternal(newAddress, newPowers);\n    }\n*/\n    function Valset(address[] initAddress, uint64[] initPowers) public {\n        updateInternal(initAddress, initPowers);\n    }\n}\n",
  "sourcePath": "/Users/adrianbrink/code/go-workspace/src/github.com/cosmos/peggy/ethereum-contracts/contracts/Valset.sol",
  "compiler": {
    "name": "solc",
    "version": "0.4.19+commit.c4cbbb05.Emscripten.clang"
  },
  "schemaVersion": "1.0.1",
  "updatedAt": "2018-02-04T20:07:57.000Z"
}