{
  "contractName": "Valset",
  "abi": [
    {
      "constant": true,
      "inputs": [
        {
          "name": "index",
          "type": "uint256"
        }
      ],
      "name": "getPower",
      "outputs": [
        {
          "name": "",
          "type": "uint64"
        }
      ],
      "payable": false,
      "stateMutability": "view",
      "type": "function"
    },
    {
      "constant": true,
      "inputs": [
        {
          "name": "hash",
          "type": "bytes32"
        },
        {
          "name": "idxs",
          "type": "uint16[]"
        },
        {
          "name": "v",
          "type": "uint8[]"
        },
        {
          "name": "r",
          "type": "bytes32[]"
        },
        {
          "name": "s",
          "type": "bytes32[]"
        }
      ],
      "name": "verify",
      "outputs": [
        {
          "name": "",
          "type": "bool"
        }
      ],
      "payable": false,
      "stateMutability": "view",
      "type": "function"
    },
    {
      "constant": true,
      "inputs": [
        {
          "name": "",
          "type": "uint256"
        }
      ],
      "name": "powers",
      "outputs": [
        {
          "name": "",
          "type": "uint64"
        }
      ],
      "payable": false,
      "stateMutability": "view",
      "type": "function"
    },
    {
      "constant": true,
      "inputs": [],
      "name": "getTotalPower",
      "outputs": [
        {
          "name": "",
          "type": "uint64"
        }
      ],
      "payable": false,
      "stateMutability": "view",
      "type": "function"
    },
    {
      "constant": true,
      "inputs": [
        {
          "name": "index",
          "type": "uint256"
        }
      ],
      "name": "getValidator",
      "outputs": [
        {
          "name": "",
          "type": "address"
        }
      ],
      "payable": false,
      "stateMutability": "view",
      "type": "function"
    },
    {
      "constant": true,
      "inputs": [],
      "name": "totalPower",
      "outputs": [
        {
          "name": "",
          "type": "uint64"
        }
      ],
      "payable": false,
      "stateMutability": "view",
      "type": "function"
    },
    {
      "constant": true,
      "inputs": [
        {
          "name": "",
          "type": "uint256"
        }
      ],
      "name": "addresses",
      "outputs": [
        {
          "name": "",
          "type": "address"
        }
      ],
      "payable": false,
      "stateMutability": "view",
      "type": "function"
    },
    {
      "inputs": [
        {
          "name": "initAddress",
          "type": "address[]"
        },
        {
          "name": "initPowers",
          "type": "uint64[]"
        }
      ],
      "payable": false,
      "stateMutability": "nonpayable",
      "type": "constructor"
    },
    {
      "anonymous": false,
      "inputs": [
        {
          "indexed": false,
          "name": "newAddresses",
          "type": "address[]"
        },
        {
          "indexed": false,
          "name": "newPowers",
          "type": "uint64[]"
        },
        {
          "indexed": true,
          "name": "seq",
          "type": "uint256"
        }
      ],
      "name": "Update",
      "type": "event"
    }
  ],
  "bytecode": "0x6060604052600060035534156200001557600080fd5b604051620012c0380380620012c0833981016040528080518201919060200180518201919050506200005c8282620000646401000000000262000816176401000000009004565b50506200057b565b60008251825180821415156200007957600080fd5b8451604051805910620000895750595b908082528060200260200182016040525060009080519060200190620000b1929190620003a9565b508351604051805910620000c25750595b908082528060200260200182016040525060019080519060200190620000ea92919062000438565b506000600260006101000a81548167ffffffffffffffff021916908367ffffffffffffffff160217905550600092505b8451831015620002625784838151811015156200013357fe5b906020019060200201516000848154811015156200014d57fe5b906000526020600020900160006101000a81548173ffffffffffffffffffffffffffffffffffffffff021916908373ffffffffffffffffffffffffffffffffffffffff1602179055508383815181101515620001a557fe5b90602001906020020151600184815481101515620001bf57fe5b90600052602060002090600491828204019190066008026101000a81548167ffffffffffffffff021916908367ffffffffffffffff16021790555083838151811015156200020957fe5b90602001906020020151600260008282829054906101000a900467ffffffffffffffff160192506101000a81548167ffffffffffffffff021916908367ffffffffffffffff16021790555082806001019350506200011a565b6003547f41e3e7fbffa8e8d5523f548e6d8f0130b20aa4615fe6d442dae2db7172c84e4a6000600160405180806020018060200183810383528581815481526020019150805480156200030b57602002820191906000526020600020905b8160009054906101000a900473ffffffffffffffffffffffffffffffffffffffff1673ffffffffffffffffffffffffffffffffffffffff1681526020019060010190808311620002c0575b505083810382528481815481526020019150805480156200038057602002820191906000526020600020906000905b82829054906101000a900467ffffffffffffffff1667ffffffffffffffff16815260200190600801906020826007010492830192600103820291508084116200033a5790505b505094505050505060405180910390a26003600081548092919060010191905055505050505050565b82805482825590600052602060002090810192821562000425579160200282015b82811115620004245782518260006101000a81548173ffffffffffffffffffffffffffffffffffffffff021916908373ffffffffffffffffffffffffffffffffffffffff16021790555091602001919060010190620003ca565b5b509050620004349190620004fb565b5090565b82805482825590600052602060002090600301600490048101928215620004e85791602002820160005b83821115620004b057835183826101000a81548167ffffffffffffffff021916908367ffffffffffffffff160217905550926020019260080160208160070104928301926001030262000462565b8015620004e65782816101000a81549067ffffffffffffffff0219169055600801602081600701049283019260010302620004b0565b505b509050620004f7919062000541565b5090565b6200053e91905b808211156200053a57600081816101000a81549073ffffffffffffffffffffffffffffffffffffffff02191690555060010162000502565b5090565b90565b6200057891905b808211156200057457600081816101000a81549067ffffffffffffffff02191690555060010162000548565b5090565b90565b610d35806200058b6000396000f300606060405260043610610083576000357c0100000000000000000000000000000000000000000000000000000000900463ffffffff168063017fe8091461008857806331f3fae2146100d357806340c1bfab1461021257806353976a261461025d578063b5d896271461029a578063db3ad22c146102fd578063edf26d9b1461033a575b600080fd5b341561009357600080fd5b6100a9600480803590602001909190505061039d565b604051808267ffffffffffffffff1667ffffffffffffffff16815260200191505060405180910390f35b34156100de57600080fd5b6101f8600480803560001916906020019091908035906020019082018035906020019080806020026020016040519081016040528093929190818152602001838360200280828437820191505050505050919080359060200190820180359060200190808060200260200160405190810160405280939291908181526020018383602002808284378201915050505050509190803590602001908201803590602001908080602002602001604051908101604052809392919081815260200183836020028082843782019150505050505091908035906020019082018035906020019080806020026020016040519081016040528093929190818152602001838360200280828437820191505050505050919050506103f6565b604051808215151515815260200191505060405180910390f35b341561021d57600080fd5b6102336004808035906020019091905050610707565b604051808267ffffffffffffffff1667ffffffffffffffff16815260200191505060405180910390f35b341561026857600080fd5b610270610744565b604051808267ffffffffffffffff1667ffffffffffffffff16815260200191505060405180910390f35b34156102a557600080fd5b6102bb6004808035906020019091905050610762565b604051808273ffffffffffffffffffffffffffffffffffffffff1673ffffffffffffffffffffffffffffffffffffffff16815260200191505060405180910390f35b341561030857600080fd5b6103106107bd565b604051808267ffffffffffffffff1667ffffffffffffffff16815260200191505060405180910390f35b341561034557600080fd5b61035b60048080359060200190919050506107d7565b604051808273ffffffffffffffffffffffffffffffffffffffff1673ffffffffffffffffffffffffffffffffffffffff16815260200191505060405180910390f35b60008160018054905080821015156103b457600080fd5b6001848154811015156103c357fe5b90600052602060002090600491828204019190066008029054906101000a900467ffffffffffffffff1692505050919050565b6000806000808054905087511115151561041357600092506106fc565b85518751148015610425575084518651145b8015610432575083518551145b151561044157600092506106fc565b60009150600090505b86518110156106b6576001811015801561049d5750866001820381518110151561047057fe5b9060200190602002015161ffff16878281518110151561048c57fe5b9060200190602002015161ffff1611155b156104ab57600092506106fc565b600087828151811015156104bb57fe5b9060200190602002015161ffff168154811015156104d557fe5b906000526020600020900160009054906101000a900473ffffffffffffffffffffffffffffffffffffffff1673ffffffffffffffffffffffffffffffffffffffff16600189888a8581518110151561052957fe5b9060200190602002015161ffff1681518110151561054357fe5b90602001906020020151888b8681518110151561055c57fe5b9060200190602002015161ffff1681518110151561057657fe5b90602001906020020151888c8781518110151561058f57fe5b9060200190602002015161ffff168151811015156105a957fe5b90602001906020020151604051600081526020016040526000604051602001526040518085600019166000191681526020018460ff1660ff16815260200183600019166000191681526020018260001916600019168152602001945050505050602060405160208103908084039060008661646e5a03f1151561062b57600080fd5b50506020604051035173ffffffffffffffffffffffffffffffffffffffff1614156106a9576001878281518110151561066057fe5b9060200190602002015161ffff1681548110151561067a57fe5b90600052602060002090600491828204019190066008029054906101000a900467ffffffffffffffff16820191505b808060010191505061044a565b60028060009054906101000a900467ffffffffffffffff160267ffffffffffffffff166003830267ffffffffffffffff161115156106f757600092506106fc565b600192505b505095945050505050565b60018181548110151561071657fe5b9060005260206000209060049182820401919006600802915054906101000a900467ffffffffffffffff1681565b6000600260009054906101000a900467ffffffffffffffff16905090565b600081600080549050808210151561077957600080fd5b60008481548110151561078857fe5b906000526020600020900160009054906101000a900473ffffffffffffffffffffffffffffffffffffffff1692505050919050565b600260009054906101000a900467ffffffffffffffff1681565b6000818154811015156107e657fe5b90600052602060002090016000915054906101000a900473ffffffffffffffffffffffffffffffffffffffff1681565b600082518251808214151561082a57600080fd5b84516040518059106108395750595b90808252806020026020018201604052506000908051906020019061085f929190610b49565b50835160405180591061086f5750595b908082528060200260200182016040525060019080519060200190610895929190610bd3565b506000600260006101000a81548167ffffffffffffffff021916908367ffffffffffffffff160217905550600092505b8451831015610a065784838151811015156108dc57fe5b906020019060200201516000848154811015156108f557fe5b906000526020600020900160006101000a81548173ffffffffffffffffffffffffffffffffffffffff021916908373ffffffffffffffffffffffffffffffffffffffff160217905550838381518110151561094c57fe5b9060200190602002015160018481548110151561096557fe5b90600052602060002090600491828204019190066008026101000a81548167ffffffffffffffff021916908367ffffffffffffffff16021790555083838151811015156109ae57fe5b90602001906020020151600260008282829054906101000a900467ffffffffffffffff160192506101000a81548167ffffffffffffffff021916908367ffffffffffffffff16021790555082806001019350506108c5565b6003547f41e3e7fbffa8e8d5523f548e6d8f0130b20aa4615fe6d442dae2db7172c84e4a600060016040518080602001806020018381038352858181548152602001915080548015610aad57602002820191906000526020600020905b8160009054906101000a900473ffffffffffffffffffffffffffffffffffffffff1673ffffffffffffffffffffffffffffffffffffffff1681526020019060010190808311610a63575b50508381038252848181548152602001915080548015610b2057602002820191906000526020600020906000905b82829054906101000a900467ffffffffffffffff1667ffffffffffffffff1681526020019060080190602082600701049283019260010382029150808411610adb5790505b505094505050505060405180910390a26003600081548092919060010191905055505050505050565b828054828255906000526020600020908101928215610bc2579160200282015b82811115610bc15782518260006101000a81548173ffffffffffffffffffffffffffffffffffffffff021916908373ffffffffffffffffffffffffffffffffffffffff16021790555091602001919060010190610b69565b5b509050610bcf9190610c8f565b5090565b82805482825590600052602060002090600301600490048101928215610c7e5791602002820160005b83821115610c4857835183826101000a81548167ffffffffffffffff021916908367ffffffffffffffff1602179055509260200192600801602081600701049283019260010302610bfc565b8015610c7c5782816101000a81549067ffffffffffffffff0219169055600801602081600701049283019260010302610c48565b505b509050610c8b9190610cd2565b5090565b610ccf91905b80821115610ccb57600081816101000a81549073ffffffffffffffffffffffffffffffffffffffff021916905550600101610c95565b5090565b90565b610d0691905b80821115610d0257600081816101000a81549067ffffffffffffffff021916905550600101610cd8565b5090565b905600a165627a7a723058203ee918ccb86c4ef2b33caeee2fbd2c811f750462d3b24e08ebe98a4e20313c560029",
  "source": "pragma solidity ^0.4.11;\n\ncontract Valset {\n\n    /* Variables */\n\n    address[] public addresses;\n    uint64[] public powers;\n    uint64 public totalPower;\n    uint internal updateSeq = 0;\n\n    /* modifiers */\n    modifier indexDoesntOverflow(uint index, uint length) {\n      require(index < length);\n      _;\n    }\n\n    modifier equalSizeArrays(uint validatorsLength, uint powersLenght) {\n      require(validatorsLength == powersLenght);\n      _;\n    }\n\n\n    function getTotalPower() public constant returns (uint64) {\n      return totalPower;\n    }\n\n    function getValidator(uint index)\n      indexDoesntOverflow(index, addresses.length)\n      public\n      constant\n      returns (address)\n    {\n      return addresses[index];\n    }\n\n    function getPower(uint index)\n      indexDoesntOverflow(index, powers.length)\n      public\n      constant\n      returns (uint64)\n    {\n      return powers[index];\n    }\n\n    function verify(bytes32 hash, uint16[] idxs, uint8[] v, bytes32[] r, bytes32[] s) public constant returns (bool) {\n        if (!(idxs.length <= addresses.length)) return false;\n        if (!(idxs.length == v.length &&\n              v.length == r.length &&\n              r.length == s.length)) {\n            return false;\n        }\n\n        uint64 signedPower = 0;\n\n        for (uint i = 0; i < idxs.length; i++) {\n            if (i >= 1 && idxs[i] <= idxs[i-1]) return false;\n            if (ecrecover(hash, v[idxs[i]], r[idxs[i]], s[idxs[i]]) == addresses[idxs[i]])\n                signedPower += powers[idxs[i]];\n        }\n\n        if (signedPower * 3 <= totalPower * 2) return false;\n\n        return true;\n    }\n\n    event Update(address[] newAddresses, uint64[] newPowers, uint indexed seq);\n\n    function updateInternal(address[] newAddress, uint64[] newPowers) equalSizeArrays(newAddress.length, newPowers.length) internal {\n        addresses = new address[](newAddress.length);\n        powers    = new uint64[](newPowers.length);\n        totalPower = 0;\n        for (uint i = 0; i < newAddress.length; i++) {\n            addresses[i] = newAddress[i];\n            powers[i]    = newPowers[i];\n            totalPower  += newPowers[i];\n        }\n        Update(addresses, powers, updateSeq);\n        updateSeq++;\n    }\n\n    /// Updates validator set. Called by the relayers.\n    /*\n     * @param newAddress  new validators addresses\n     * @param newPower    power of each validator\n     * @param idxs        indexes of each validator\n     * @param v           recovery id. Used to compute ecrecover\n     * @param r           output of ECDSA signature. Used to compute ecrecover\n     * @param s           output of ECDSA signature.  Used to compute ecrecover\n     */\n/*\n    function update(address[] newAddress, uint64[] newPowers, uint16[] idxs, uint8[] v, bytes32[] r, bytes32[] s) {\n        require(newAddress.length == newPowers.length);\n\n        assert(verify(keccak256(newAddress, newPowers), idxs, v, r, s)); // hashing can be changed\n\n        updateInternal(newAddress, newPowers);\n    }\n*/\n    function Valset(address[] initAddress, uint64[] initPowers) public {\n        updateInternal(initAddress, initPowers);\n    }\n}\n",
  "sourcePath": "/Users/federico/Desktop/Blockchain/peggy/ethereum-contracts/contracts/Valset.sol",
  "compiler": {
    "name": "solc",
    "version": "0.4.18+commit.9cf6e910.Emscripten.clang"
  },
  "schemaVersion": "1.0.1",
  "updatedAt": "2018-02-02T17:53:18.975Z"
}