{
  "contractName": "Valset",
  "abi": [
    {
      "constant": true,
      "inputs": [
        {
          "name": "index",
          "type": "uint256"
        }
      ],
      "name": "getPower",
      "outputs": [
        {
          "name": "",
          "type": "uint64"
        }
      ],
      "payable": false,
      "stateMutability": "view",
      "type": "function"
    },
    {
      "constant": true,
      "inputs": [
        {
          "name": "",
          "type": "uint256"
        }
      ],
      "name": "powers",
      "outputs": [
        {
          "name": "",
          "type": "uint64"
        }
      ],
      "payable": false,
      "stateMutability": "view",
      "type": "function"
    },
    {
      "constant": true,
      "inputs": [],
      "name": "getTotalPower",
      "outputs": [
        {
          "name": "",
          "type": "uint64"
        }
      ],
      "payable": false,
      "stateMutability": "view",
      "type": "function"
    },
    {
      "constant": true,
      "inputs": [
        {
          "name": "hash",
          "type": "bytes32"
        },
        {
          "name": "idxs",
          "type": "uint16[]"
        },
        {
          "name": "v",
          "type": "uint8[]"
        },
        {
          "name": "r",
          "type": "bytes32[]"
        },
        {
          "name": "s",
          "type": "bytes32[]"
        }
      ],
      "name": "verifyValidators",
      "outputs": [
        {
          "name": "",
          "type": "bool"
        }
      ],
      "payable": false,
      "stateMutability": "view",
      "type": "function"
    },
    {
      "constant": false,
      "inputs": [
        {
          "name": "newAddress",
          "type": "address[]"
        },
        {
          "name": "newPowers",
          "type": "uint64[]"
        },
        {
          "name": "idxs",
          "type": "uint16[]"
        },
        {
          "name": "v",
          "type": "uint8[]"
        },
        {
          "name": "r",
          "type": "bytes32[]"
        },
        {
          "name": "s",
          "type": "bytes32[]"
        }
      ],
      "name": "update",
      "outputs": [
        {
          "name": "",
          "type": "bool"
        }
      ],
      "payable": false,
      "stateMutability": "nonpayable",
      "type": "function"
    },
    {
      "constant": true,
      "inputs": [
        {
          "name": "index",
          "type": "uint256"
        }
      ],
      "name": "getValidator",
      "outputs": [
        {
          "name": "",
          "type": "address"
        }
      ],
      "payable": false,
      "stateMutability": "view",
      "type": "function"
    },
    {
      "constant": true,
      "inputs": [],
      "name": "totalPower",
      "outputs": [
        {
          "name": "",
          "type": "uint64"
        }
      ],
      "payable": false,
      "stateMutability": "view",
      "type": "function"
    },
    {
      "constant": true,
      "inputs": [
        {
          "name": "",
          "type": "uint256"
        }
      ],
      "name": "addresses",
      "outputs": [
        {
          "name": "",
          "type": "address"
        }
      ],
      "payable": false,
      "stateMutability": "view",
      "type": "function"
    },
    {
      "inputs": [
        {
          "name": "initAddress",
          "type": "address[]"
        },
        {
          "name": "initPowers",
          "type": "uint64[]"
        }
      ],
      "payable": false,
      "stateMutability": "nonpayable",
      "type": "constructor"
    },
    {
      "anonymous": false,
      "inputs": [
        {
          "indexed": false,
          "name": "newAddresses",
          "type": "address[]"
        },
        {
          "indexed": false,
          "name": "newPowers",
          "type": "uint64[]"
        },
        {
          "indexed": true,
          "name": "seq",
          "type": "uint256"
        }
      ],
      "name": "Update",
      "type": "event"
    }
  ],
  "bytecode": "0x6060604052600060035534156200001557600080fd5b6040516200163d3803806200163d833981016040528080518201919060200180518201919050506200005c8282620000656401000000000262000b3d176401000000009004565b5050506200059d565b60008060008451845180821415156200007d57600080fd5b8651606481111515156200009057600080fd5b8751604051805910620000a05750595b908082528060200260200182016040525060009080519060200190620000c8929190620003cb565b508651604051805910620000d95750595b908082528060200260200182016040525060019080519060200190620001019291906200045a565b506000600260006101000a81548167ffffffffffffffff021916908367ffffffffffffffff160217905550600094505b8751851015620002795787858151811015156200014a57fe5b906020019060200201516000868154811015156200016457fe5b906000526020600020900160006101000a81548173ffffffffffffffffffffffffffffffffffffffff021916908373ffffffffffffffffffffffffffffffffffffffff1602179055508685815181101515620001bc57fe5b90602001906020020151600186815481101515620001d657fe5b90600052602060002090600491828204019190066008026101000a81548167ffffffffffffffff021916908367ffffffffffffffff16021790555086858151811015156200022057fe5b90602001906020020151600260008282829054906101000a900467ffffffffffffffff160192506101000a81548167ffffffffffffffff021916908367ffffffffffffffff160217905550848060010195505062000131565b6003549350837f41e3e7fbffa8e8d5523f548e6d8f0130b20aa4615fe6d442dae2db7172c84e4a6000600160405180806020018060200183810383528581815481526020019150805480156200032557602002820191906000526020600020905b8160009054906101000a900473ffffffffffffffffffffffffffffffffffffffff1673ffffffffffffffffffffffffffffffffffffffff1681526020019060010190808311620002da575b505083810382528481815481526020019150805480156200039a57602002820191906000526020600020906000905b82829054906101000a900467ffffffffffffffff1667ffffffffffffffff1681526020019060080190602082600701049283019260010382029150808411620003545790505b505094505050505060405180910390a260036000815480929190600101919050555060019550505050505092915050565b82805482825590600052602060002090810192821562000447579160200282015b82811115620004465782518260006101000a81548173ffffffffffffffffffffffffffffffffffffffff021916908373ffffffffffffffffffffffffffffffffffffffff16021790555091602001919060010190620003ec565b5b5090506200045691906200051d565b5090565b828054828255906000526020600020906003016004900481019282156200050a5791602002820160005b83821115620004d257835183826101000a81548167ffffffffffffffff021916908367ffffffffffffffff160217905550926020019260080160208160070104928301926001030262000484565b8015620005085782816101000a81549067ffffffffffffffff0219169055600801602081600701049283019260010302620004d2565b505b50905062000519919062000563565b5090565b6200056091905b808211156200055c57600081816101000a81549073ffffffffffffffffffffffffffffffffffffffff02191690555060010162000524565b5090565b90565b6200059a91905b808211156200059657600081816101000a81549067ffffffffffffffff0219169055506001016200056a565b5090565b90565b61109080620005ad6000396000f30060606040526004361061008e576000357c0100000000000000000000000000000000000000000000000000000000900463ffffffff168063017fe8091461009357806340c1bfab146100de57806353976a261461012957806374601e691461016657806391fa6d1f146102a5578063b5d8962714610457578063db3ad22c146104ba578063edf26d9b146104f7575b600080fd5b341561009e57600080fd5b6100b4600480803590602001909190505061055a565b604051808267ffffffffffffffff1667ffffffffffffffff16815260200191505060405180910390f35b34156100e957600080fd5b6100ff60048080359060200190919050506105b3565b604051808267ffffffffffffffff1667ffffffffffffffff16815260200191505060405180910390f35b341561013457600080fd5b61013c6105f0565b604051808267ffffffffffffffff1667ffffffffffffffff16815260200191505060405180910390f35b341561017157600080fd5b61028b6004808035600019169060200190919080359060200190820180359060200190808060200260200160405190810160405280939291908181526020018383602002808284378201915050505050509190803590602001908201803590602001908080602002602001604051908101604052809392919081815260200183836020028082843782019150505050505091908035906020019082018035906020019080806020026020016040519081016040528093929190818152602001838360200280828437820191505050505050919080359060200190820180359060200190808060200260200160405190810160405280939291908181526020018383602002808284378201915050505050509190505061060e565b604051808215151515815260200191505060405180910390f35b34156102b057600080fd5b61043d6004808035906020019082018035906020019080806020026020016040519081016040528093929190818152602001838360200280828437820191505050505050919080359060200190820180359060200190808060200260200160405190810160405280939291908181526020018383602002808284378201915050505050509190803590602001908201803590602001908080602002602001604051908101604052809392919081815260200183836020028082843782019150505050505091908035906020019082018035906020019080806020026020016040519081016040528093929190818152602001838360200280828437820191505050505050919080359060200190820180359060200190808060200260200160405190810160405280939291908181526020018383602002808284378201915050505050509190803590602001908201803590602001908080602002602001604051908101604052809392919081815260200183836020028082843782019150505050505091905050610845565b604051808215151515815260200191505060405180910390f35b341561046257600080fd5b610478600480803590602001909190505061090e565b604051808273ffffffffffffffffffffffffffffffffffffffff1673ffffffffffffffffffffffffffffffffffffffff16815260200191505060405180910390f35b34156104c557600080fd5b6104cd610969565b604051808267ffffffffffffffff1667ffffffffffffffff16815260200191505060405180910390f35b341561050257600080fd5b6105186004808035906020019091905050610983565b604051808273ffffffffffffffffffffffffffffffffffffffff1673ffffffffffffffffffffffffffffffffffffffff16815260200191505060405180910390f35b600081600180549050808210151561057157600080fd5b60018481548110151561058057fe5b90600052602060002090600491828204019190066008029054906101000a900467ffffffffffffffff1692505050919050565b6001818154811015156105c257fe5b9060005260206000209060049182820401919006600802915054906101000a900467ffffffffffffffff1681565b6000600260009054906101000a900467ffffffffffffffff16905090565b600080600080875160008054905080821115151561062b57600080fd5b8951895189518951828414801561064157508183145b801561064c57508082145b151561065757600080fd5b60009850600096505b8d518710156107ed578d8781518110151561067757fe5b9060200190602002015161ffff169750600187101580156106c057508d600188038151811015156106a457fe5b9060200190602002015161ffff168867ffffffffffffffff1611155b156106ce5760009950610833565b6107828f8e8a67ffffffffffffffff168151811015156106ea57fe5b906020019060200201518e8b67ffffffffffffffff1681518110151561070c57fe5b906020019060200201518e8c67ffffffffffffffff1681518110151561072e57fe5b9060200190602002015160008d67ffffffffffffffff1681548110151561075157fe5b906000526020600020900160009054906101000a900473ffffffffffffffffffffffffffffffffffffffff166109c2565b156107e05760018e8881518110151561079757fe5b9060200190602002015161ffff168154811015156107b157fe5b90600052602060002090600491828204019190066008029054906101000a900467ffffffffffffffff16890198505b8680600101975050610660565b60028060009054906101000a900467ffffffffffffffff160267ffffffffffffffff1660038a0267ffffffffffffffff1611151561082e5760009950610833565b600199505b50505050505050505095945050505050565b600086518651808214151561085957600080fd5b6108dd898960405180838051906020019060200280838360005b8381101561088e578082015181840152602081019050610873565b50505050905001828051906020019060200280838360005b838110156108c15780820151818401526020810190506108a6565b505050509050019250505060405180910390208888888861060e565b15156108e557fe5b6108ef8989610b3d565b156108fd5760019250610902565b600092505b50509695505050505050565b600081600080549050808210151561092557600080fd5b60008481548110151561093457fe5b906000526020600020900160009054906101000a900473ffffffffffffffffffffffffffffffffffffffff1692505050919050565b600260009054906101000a900467ffffffffffffffff1681565b60008181548110151561099257fe5b90600052602060002090016000915054906101000a900473ffffffffffffffffffffffffffffffffffffffff1681565b60006109cc610e90565b60006040805190810160405280601c81526020017f19457468657265756d205369676e6564204d6573736167653a0a333200000000815250915081886040518083805190602001908083835b602083101515610a3d5780518252602082019150602081019050602083039250610a18565b6001836020036101000a038019825116818451168082178552505050505050905001826000191660001916815260200192505050604051809103902090508373ffffffffffffffffffffffffffffffffffffffff16600182898989604051600081526020016040526000604051602001526040518085600019166000191681526020018460ff1660ff16815260200183600019166000191681526020018260001916600019168152602001945050505050602060405160208103908084039060008661646e5a03f11515610b1057600080fd5b50506020604051035173ffffffffffffffffffffffffffffffffffffffff16149250505095945050505050565b6000806000845184518082141515610b5457600080fd5b865160648111151515610b6657600080fd5b8751604051805910610b755750595b908082528060200260200182016040525060009080519060200190610b9b929190610ea4565b508651604051805910610bab5750595b908082528060200260200182016040525060019080519060200190610bd1929190610f2e565b506000600260006101000a81548167ffffffffffffffff021916908367ffffffffffffffff160217905550600094505b8751851015610d42578785815181101515610c1857fe5b90602001906020020151600086815481101515610c3157fe5b906000526020600020900160006101000a81548173ffffffffffffffffffffffffffffffffffffffff021916908373ffffffffffffffffffffffffffffffffffffffff1602179055508685815181101515610c8857fe5b90602001906020020151600186815481101515610ca157fe5b90600052602060002090600491828204019190066008026101000a81548167ffffffffffffffff021916908367ffffffffffffffff1602179055508685815181101515610cea57fe5b90602001906020020151600260008282829054906101000a900467ffffffffffffffff160192506101000a81548167ffffffffffffffff021916908367ffffffffffffffff1602179055508480600101955050610c01565b6003549350837f41e3e7fbffa8e8d5523f548e6d8f0130b20aa4615fe6d442dae2db7172c84e4a600060016040518080602001806020018381038352858181548152602001915080548015610dec57602002820191906000526020600020905b8160009054906101000a900473ffffffffffffffffffffffffffffffffffffffff1673ffffffffffffffffffffffffffffffffffffffff1681526020019060010190808311610da2575b50508381038252848181548152602001915080548015610e5f57602002820191906000526020600020906000905b82829054906101000a900467ffffffffffffffff1667ffffffffffffffff1681526020019060080190602082600701049283019260010382029150808411610e1a5790505b505094505050505060405180910390a260036000815480929190600101919050555060019550505050505092915050565b602060405190810160405280600081525090565b828054828255906000526020600020908101928215610f1d579160200282015b82811115610f1c5782518260006101000a81548173ffffffffffffffffffffffffffffffffffffffff021916908373ffffffffffffffffffffffffffffffffffffffff16021790555091602001919060010190610ec4565b5b509050610f2a9190610fea565b5090565b82805482825590600052602060002090600301600490048101928215610fd95791602002820160005b83821115610fa357835183826101000a81548167ffffffffffffffff021916908367ffffffffffffffff1602179055509260200192600801602081600701049283019260010302610f57565b8015610fd75782816101000a81549067ffffffffffffffff0219169055600801602081600701049283019260010302610fa3565b505b509050610fe6919061102d565b5090565b61102a91905b8082111561102657600081816101000a81549073ffffffffffffffffffffffffffffffffffffffff021916905550600101610ff0565b5090565b90565b61106191905b8082111561105d57600081816101000a81549067ffffffffffffffff021916905550600101611033565b5090565b905600a165627a7a72305820466b010310df2d6e1f7796dbc3565d2ab5f84fb9c21ce3f7c389d6f5937c30620029",
  "source": "pragma solidity ^0.4.11;\n\ncontract Valset {\n\n    /* Variables */\n\n    address[] public addresses;\n    uint64[] public powers;\n    uint64 public totalPower;\n    uint internal updateSeq = 0;\n\n    /* modifiers */\n\n    modifier indexDoesntOverflow(uint index, uint length) {\n      require(index < length);\n      _;\n    }\n\n    modifier equalSizeArrays(uint validatorsLength, uint powersLenght) {\n      require(validatorsLength == powersLenght);\n      _;\n    }\n\n    modifier validatorSizeAtMost100(uint length) {\n      require(length <= 100);\n      _;\n    }\n\n    modifier valSetLargerThanIdxs(uint idxsLen, uint valLen) {\n      require(idxsLen <= valLen);\n      _;\n    }\n\n    modifier equalSignatureLen(uint idxsLen, uint vLen, uint rLen, uint sLen) {\n      require((idxsLen == vLen) && (vLen == rLen) && (rLen == sLen));\n      _;\n    }\n\n    /* Functions */\n\n    function getTotalPower() public constant returns (uint64) {\n      return totalPower;\n    }\n\n    function getValidator(uint index)\n      indexDoesntOverflow(index, addresses.length)\n      public\n      constant\n      returns (address)\n    {\n      return addresses[index];\n    }\n\n    function getPower(uint index)\n      indexDoesntOverflow(index, powers.length)\n      public\n      constant\n      returns (uint64)\n    {\n      return powers[index];\n    }\n\n\n    function verify(bytes32 hash, uint8 v, bytes32 r, bytes32 s, address valAddress)\n      internal\n      pure\n      returns(bool)\n    {\n      bytes memory prefix = \"\\x19Ethereum Signed Message:\\n32\";\n      bytes32 prefixedHash = keccak256(prefix, hash);\n      return ecrecover(prefixedHash, v, r, s) == (valAddress);\n    }\n\n    function verifyValidators(bytes32 hash, uint16[] idxs, uint8[] v, bytes32[] r, bytes32[] s)\n      valSetLargerThanIdxs(idxs.length, addresses.length)\n      equalSignatureLen(idxs.length, v.length, r.length, s.length)\n      public\n      constant\n      returns (bool)\n    {\n      uint64 signedPower = 0;\n      uint64 currentIdx;\n      for (uint i = 0; i < idxs.length; i++) {\n          currentIdx = idxs[i];\n          if (i >= 1 && currentIdx <= idxs[i-1]) return false;\n          if (verify(hash, v[currentIdx], r[currentIdx], s[currentIdx], addresses[currentIdx])) {\n            signedPower += powers[idxs[i]];\n          }\n      }\n      if (signedPower * 3 <= totalPower * 2) return false;\n      return true;\n    }\n\n    event Update(address[] newAddresses, uint64[] newPowers, uint indexed seq);\n\n    function updateInternal(address[] newAddress, uint64[] newPowers)\n      equalSizeArrays(newAddress.length, newPowers.length)\n      validatorSizeAtMost100(newAddress.length)\n      internal\n      returns (bool)\n      {\n        addresses = new address[](newAddress.length);\n        powers    = new uint64[](newPowers.length);\n        totalPower = 0;\n        for (uint i = 0; i < newAddress.length; i++) {\n            addresses[i] = newAddress[i];\n            powers[i]    = newPowers[i];\n            totalPower  += newPowers[i];\n        }\n        uint updateCount = updateSeq;\n        Update(addresses, powers, updateCount);\n        updateSeq++;\n        return true;\n    }\n\n    /// Updates validator set. Called by the relayers.\n    /*\n     * @param newAddress  new validators addresses\n     * @param newPower    power of each validator\n     * @param idxs        indexes of each validator\n     * @param v           recovery id. Used to compute ecrecover\n     * @param r           output of ECDSA signature. Used to compute ecrecover\n     * @param s           output of ECDSA signature.  Used to compute ecrecover\n     */\n\n    function update(address[] newAddress, uint64[] newPowers, uint16[] idxs, uint8[] v, bytes32[] r, bytes32[] s)\n      equalSizeArrays(newAddress.length, newPowers.length)\n      public\n      returns (bool)\n    {\n        assert(verifyValidators(keccak256(newAddress, newPowers), idxs, v, r, s)); // hashing can be changed\n        if (updateInternal(newAddress, newPowers)) return true;\n        else return false;\n    }\n\n    function Valset(address[] initAddress, uint64[] initPowers) public {\n        updateInternal(initAddress, initPowers);\n    }\n}\n",
  "sourcePath": "/Users/federico/Desktop/Blockchain/peggy/ethereum-contracts/contracts/Valset.sol",
  "compiler": {
    "name": "solc",
    "version": "0.4.18+commit.9cf6e910.Emscripten.clang"
  },
  "schemaVersion": "1.0.1",
  "updatedAt": "2018-02-05T12:03:11.357Z"
}