{
  "contractName": "Valset",
  "abi": [
    {
      "constant": true,
      "inputs": [
        {
          "name": "index",
          "type": "uint256"
        }
      ],
      "name": "getPower",
      "outputs": [
        {
          "name": "",
          "type": "uint64"
        }
      ],
      "payable": false,
      "stateMutability": "view",
      "type": "function"
    },
    {
      "constant": true,
      "inputs": [
        {
          "name": "hash",
          "type": "bytes32"
        },
        {
          "name": "idxs",
          "type": "uint16[]"
        },
        {
          "name": "v",
          "type": "uint8[]"
        },
        {
          "name": "r",
          "type": "bytes32[]"
        },
        {
          "name": "s",
          "type": "bytes32[]"
        }
      ],
      "name": "verify",
      "outputs": [
        {
          "name": "",
          "type": "bool"
        }
      ],
      "payable": false,
      "stateMutability": "view",
      "type": "function"
    },
    {
      "constant": true,
      "inputs": [
        {
          "name": "",
          "type": "uint256"
        }
      ],
      "name": "powers",
      "outputs": [
        {
          "name": "",
          "type": "uint64"
        }
      ],
      "payable": false,
      "stateMutability": "view",
      "type": "function"
    },
    {
      "constant": true,
      "inputs": [],
      "name": "getTotalPower",
      "outputs": [
        {
          "name": "",
          "type": "uint64"
        }
      ],
      "payable": false,
      "stateMutability": "view",
      "type": "function"
    },
    {
      "constant": false,
      "inputs": [
        {
          "name": "newAddress",
          "type": "address[]"
        },
        {
          "name": "newPowers",
          "type": "uint64[]"
        },
        {
          "name": "idxs",
          "type": "uint16[]"
        },
        {
          "name": "v",
          "type": "uint8[]"
        },
        {
          "name": "r",
          "type": "bytes32[]"
        },
        {
          "name": "s",
          "type": "bytes32[]"
        }
      ],
      "name": "update",
      "outputs": [
        {
          "name": "",
          "type": "address"
        }
      ],
      "payable": false,
      "stateMutability": "nonpayable",
      "type": "function"
    },
    {
      "constant": true,
      "inputs": [
        {
          "name": "index",
          "type": "uint256"
        }
      ],
      "name": "getValidator",
      "outputs": [
        {
          "name": "",
          "type": "address"
        }
      ],
      "payable": false,
      "stateMutability": "view",
      "type": "function"
    },
    {
      "constant": true,
      "inputs": [
        {
          "name": "",
          "type": "uint256"
        }
      ],
      "name": "totalPower",
      "outputs": [
        {
          "name": "",
          "type": "uint64"
        }
      ],
      "payable": false,
      "stateMutability": "view",
      "type": "function"
    },
    {
      "inputs": [
        {
          "name": "",
          "type": "uint256"
        },
        {
          "name": "initPowers",
          "type": "uint64[]"
        }
      ],
      "payable": false,
      "stateMutability": "view",
      "type": "function",
      "constant": true,
      "name": "addresses",
      "outputs": [
        {
          "name": "",
          "type": "address"
        }
      ]
    },
    {
      "anonymous": false,
      "inputs": [
        {
          "indexed": false,
          "name": "initAddress",
          "type": "address[]"
        },
        {
          "indexed": false,
          "name": "initPowers",
          "type": "uint64[]"
        },
        {
          "indexed": true,
          "name": "seq",
          "type": "uint256"
        }
      ],
      "name": "Update",
      "type": "constructor",
      "payable": false,
      "stateMutability": "nonpayable"
    },
    {
      "anonymous": false,
      "inputs": [
        {
          "indexed": false,
          "name": "newAddresses",
          "type": "address[]"
        },
        {
          "indexed": false,
          "name": "newPowers",
          "type": "uint64[]"
        },
        {
          "indexed": true,
          "name": "seq",
          "type": "uint256"
        }
      ],
      "name": "Update",
      "type": "event"
    }
  ],
  "bytecode": "0x6060604052600060035534156200001557600080fd5b6040516200154838038062001548833981016040528080518201919060200180518201919050506200005c8282620000646401000000000262000a6d176401000000009004565b505062000594565b6000808351835180821415156200007a57600080fd5b8551606481111515156200008d57600080fd5b86516040518059106200009d5750595b908082528060200260200182016040525060009080519060200190620000c5929190620003c2565b508551604051805910620000d65750595b908082528060200260200182016040525060019080519060200190620000fe92919062000451565b506000600260006101000a81548167ffffffffffffffff021916908367ffffffffffffffff160217905550600094505b8651851015620002765786858151811015156200014757fe5b906020019060200201516000868154811015156200016157fe5b906000526020600020900160006101000a81548173ffffffffffffffffffffffffffffffffffffffff021916908373ffffffffffffffffffffffffffffffffffffffff1602179055508585815181101515620001b957fe5b90602001906020020151600186815481101515620001d357fe5b90600052602060002090600491828204019190066008026101000a81548167ffffffffffffffff021916908367ffffffffffffffff16021790555085858151811015156200021d57fe5b90602001906020020151600260008282829054906101000a900467ffffffffffffffff160192506101000a81548167ffffffffffffffff021916908367ffffffffffffffff16021790555084806001019550506200012e565b6003549350837f41e3e7fbffa8e8d5523f548e6d8f0130b20aa4615fe6d442dae2db7172c84e4a6000600160405180806020018060200183810383528581815481526020019150805480156200032257602002820191906000526020600020905b8160009054906101000a900473ffffffffffffffffffffffffffffffffffffffff1673ffffffffffffffffffffffffffffffffffffffff1681526020019060010190808311620002d7575b505083810382528481815481526020019150805480156200039757602002820191906000526020600020906000905b82829054906101000a900467ffffffffffffffff1667ffffffffffffffff1681526020019060080190602082600701049283019260010382029150808411620003515790505b505094505050505060405180910390a260036000815480929190600101919050555050505050505050565b8280548282559060005260206000209081019282156200043e579160200282015b828111156200043d5782518260006101000a81548173ffffffffffffffffffffffffffffffffffffffff021916908373ffffffffffffffffffffffffffffffffffffffff16021790555091602001919060010190620003e3565b5b5090506200044d919062000514565b5090565b82805482825590600052602060002090600301600490048101928215620005015791602002820160005b83821115620004c957835183826101000a81548167ffffffffffffffff021916908367ffffffffffffffff16021790555092602001926008016020816007010492830192600103026200047b565b8015620004ff5782816101000a81549067ffffffffffffffff0219169055600801602081600701049283019260010302620004c9565b505b5090506200051091906200055a565b5090565b6200055791905b808211156200055357600081816101000a81549073ffffffffffffffffffffffffffffffffffffffff0219169055506001016200051b565b5090565b90565b6200059191905b808211156200058d57600081816101000a81549067ffffffffffffffff02191690555060010162000561565b5090565b90565b610fa480620005a46000396000f30060606040526004361061008e576000357c0100000000000000000000000000000000000000000000000000000000900463ffffffff168063017fe8091461009357806331f3fae2146100de57806340c1bfab1461021d57806353976a261461026857806391fa6d1f146102a5578063b5d896271461043f578063db3ad22c146104a2578063edf26d9b146104df575b600080fd5b341561009e57600080fd5b6100b46004808035906020019091905050610542565b604051808267ffffffffffffffff1667ffffffffffffffff16815260200191505060405180910390f35b34156100e957600080fd5b6102036004808035600019169060200190919080359060200190820180359060200190808060200260200160405190810160405280939291908181526020018383602002808284378201915050505050509190803590602001908201803590602001908080602002602001604051908101604052809392919081815260200183836020028082843782019150505050505091908035906020019082018035906020019080806020026020016040519081016040528093929190818152602001838360200280828437820191505050505050919080359060200190820180359060200190808060200260200160405190810160405280939291908181526020018383602002808284378201915050505050509190505061059b565b604051808215151515815260200191505060405180910390f35b341561022857600080fd5b61023e60048080359060200190919050506108ac565b604051808267ffffffffffffffff1667ffffffffffffffff16815260200191505060405180910390f35b341561027357600080fd5b61027b6108e9565b604051808267ffffffffffffffff1667ffffffffffffffff16815260200191505060405180910390f35b34156102b057600080fd5b61043d6004808035906020019082018035906020019080806020026020016040519081016040528093929190818152602001838360200280828437820191505050505050919080359060200190820180359060200190808060200260200160405190810160405280939291908181526020018383602002808284378201915050505050509190803590602001908201803590602001908080602002602001604051908101604052809392919081815260200183836020028082843782019150505050505091908035906020019082018035906020019080806020026020016040519081016040528093929190818152602001838360200280828437820191505050505050919080359060200190820180359060200190808060200260200160405190810160405280939291908181526020018383602002808284378201915050505050509190803590602001908201803590602001908080602002602001604051908101604052809392919081815260200183836020028082843782019150505050505091905050610907565b005b341561044a57600080fd5b61046060048080359060200190919050506109b9565b604051808273ffffffffffffffffffffffffffffffffffffffff1673ffffffffffffffffffffffffffffffffffffffff16815260200191505060405180910390f35b34156104ad57600080fd5b6104b5610a14565b604051808267ffffffffffffffff1667ffffffffffffffff16815260200191505060405180910390f35b34156104ea57600080fd5b6105006004808035906020019091905050610a2e565b604051808273ffffffffffffffffffffffffffffffffffffffff1673ffffffffffffffffffffffffffffffffffffffff16815260200191505060405180910390f35b600081600180549050808210151561055957600080fd5b60018481548110151561056857fe5b90600052602060002090600491828204019190066008029054906101000a900467ffffffffffffffff1692505050919050565b600080600080805490508751111515156105b857600092506108a1565b855187511480156105ca575084518651145b80156105d7575083518551145b15156105e657600092506108a1565b60009150600090505b865181101561085b57600181101580156106425750866001820381518110151561061557fe5b9060200190602002015161ffff16878281518110151561063157fe5b9060200190602002015161ffff1611155b1561065057600092506108a1565b6000878281518110151561066057fe5b9060200190602002015161ffff1681548110151561067a57fe5b906000526020600020900160009054906101000a900473ffffffffffffffffffffffffffffffffffffffff1673ffffffffffffffffffffffffffffffffffffffff16600189888a858151811015156106ce57fe5b9060200190602002015161ffff168151811015156106e857fe5b90602001906020020151888b8681518110151561070157fe5b9060200190602002015161ffff1681518110151561071b57fe5b90602001906020020151888c8781518110151561073457fe5b9060200190602002015161ffff1681518110151561074e57fe5b90602001906020020151604051600081526020016040526000604051602001526040518085600019166000191681526020018460ff1660ff16815260200183600019166000191681526020018260001916600019168152602001945050505050602060405160208103908084039060008661646e5a03f115156107d057600080fd5b50506020604051035173ffffffffffffffffffffffffffffffffffffffff16141561084e576001878281518110151561080557fe5b9060200190602002015161ffff1681548110151561081f57fe5b90600052602060002090600491828204019190066008029054906101000a900467ffffffffffffffff16820191505b80806001019150506105ef565b60028060009054906101000a900467ffffffffffffffff160267ffffffffffffffff166003830267ffffffffffffffff1611151561089c57600092506108a1565b600192505b505095945050505050565b6001818154811015156108bb57fe5b9060005260206000209060049182820401919006600802915054906101000a900467ffffffffffffffff1681565b6000600260009054906101000a900467ffffffffffffffff16905090565b85518551808214151561091957600080fd5b61099d888860405180838051906020019060200280838360005b8381101561094e578082015181840152602081019050610933565b50505050905001828051906020019060200280838360005b83811015610981578082015181840152602081019050610966565b505050509050019250505060405180910390208787878761059b565b15156109a557fe5b6109af8888610a6d565b5050505050505050565b60008160008054905080821015156109d057600080fd5b6000848154811015156109df57fe5b906000526020600020900160009054906101000a900473ffffffffffffffffffffffffffffffffffffffff1692505050919050565b600260009054906101000a900467ffffffffffffffff1681565b600081815481101515610a3d57fe5b90600052602060002090016000915054906101000a900473ffffffffffffffffffffffffffffffffffffffff1681565b600080835183518082141515610a8257600080fd5b855160648111151515610a9457600080fd5b8651604051805910610aa35750595b908082528060200260200182016040525060009080519060200190610ac9929190610db8565b508551604051805910610ad95750595b908082528060200260200182016040525060019080519060200190610aff929190610e42565b506000600260006101000a81548167ffffffffffffffff021916908367ffffffffffffffff160217905550600094505b8651851015610c70578685815181101515610b4657fe5b90602001906020020151600086815481101515610b5f57fe5b906000526020600020900160006101000a81548173ffffffffffffffffffffffffffffffffffffffff021916908373ffffffffffffffffffffffffffffffffffffffff1602179055508585815181101515610bb657fe5b90602001906020020151600186815481101515610bcf57fe5b90600052602060002090600491828204019190066008026101000a81548167ffffffffffffffff021916908367ffffffffffffffff1602179055508585815181101515610c1857fe5b90602001906020020151600260008282829054906101000a900467ffffffffffffffff160192506101000a81548167ffffffffffffffff021916908367ffffffffffffffff1602179055508480600101955050610b2f565b6003549350837f41e3e7fbffa8e8d5523f548e6d8f0130b20aa4615fe6d442dae2db7172c84e4a600060016040518080602001806020018381038352858181548152602001915080548015610d1a57602002820191906000526020600020905b8160009054906101000a900473ffffffffffffffffffffffffffffffffffffffff1673ffffffffffffffffffffffffffffffffffffffff1681526020019060010190808311610cd0575b50508381038252848181548152602001915080548015610d8d57602002820191906000526020600020906000905b82829054906101000a900467ffffffffffffffff1667ffffffffffffffff1681526020019060080190602082600701049283019260010382029150808411610d485790505b505094505050505060405180910390a260036000815480929190600101919050555050505050505050565b828054828255906000526020600020908101928215610e31579160200282015b82811115610e305782518260006101000a81548173ffffffffffffffffffffffffffffffffffffffff021916908373ffffffffffffffffffffffffffffffffffffffff16021790555091602001919060010190610dd8565b5b509050610e3e9190610efe565b5090565b82805482825590600052602060002090600301600490048101928215610eed5791602002820160005b83821115610eb757835183826101000a81548167ffffffffffffffff021916908367ffffffffffffffff1602179055509260200192600801602081600701049283019260010302610e6b565b8015610eeb5782816101000a81549067ffffffffffffffff0219169055600801602081600701049283019260010302610eb7565b505b509050610efa9190610f41565b5090565b610f3e91905b80821115610f3a57600081816101000a81549073ffffffffffffffffffffffffffffffffffffffff021916905550600101610f04565b5090565b90565b610f7591905b80821115610f7157600081816101000a81549067ffffffffffffffff021916905550600101610f47565b5090565b905600a165627a7a723058203aabace852eede79ed9a147ed451e43a3ef96f6a1e698f134d944525ef477b7d0029",
  "source": "pragma solidity ^0.4.11;\n\ncontract Valset {\n\n    /* Variables */\n\n    address[] public addresses;\n    uint64[] public powers;\n    uint64 public totalPower;\n    uint internal updateSeq = 0;\n\n    /* modifiers */\n\n    modifier indexDoesntOverflow(uint index, uint length) {\n      require(index < length);\n      _;\n    }\n\n    modifier equalSizeArrays(uint validatorsLength, uint powersLenght) {\n      require(validatorsLength == powersLenght);\n      _;\n    }\n\n    modifier validatorSizeAtMost100(uint length) {\n      require(length <= 100);\n      _;\n    }\n\n    /* Functions */\n\n    function getTotalPower() public constant returns (uint64) {\n      return totalPower;\n    }\n\n    function getValidator(uint index)\n      indexDoesntOverflow(index, addresses.length)\n      public\n      constant\n      returns (address)\n    {\n      return addresses[index];\n    }\n\n    function getPower(uint index)\n      indexDoesntOverflow(index, powers.length)\n      public\n      constant\n      returns (uint64)\n    {\n      return powers[index];\n    }\n\n    function verify(bytes32 hash, uint16[] idxs, uint8[] v, bytes32[] r, bytes32[] s) public constant returns (bool) {\n        if (!(idxs.length <= addresses.length)) return false;\n        if (!(idxs.length == v.length &&\n              v.length == r.length &&\n              r.length == s.length)) {\n            return false;\n        }\n\n        uint64 signedPower = 0;\n\n        for (uint i = 0; i < idxs.length; i++) {\n            if (i >= 1 && idxs[i] <= idxs[i-1]) return false;\n            if (ecrecover(hash, v[idxs[i]], r[idxs[i]], s[idxs[i]]) == addresses[idxs[i]])\n                signedPower += powers[idxs[i]];\n        }\n\n        if (signedPower * 3 <= totalPower * 2) return false;\n\n        return true;\n    }\n\n    event Update(address[] newAddresses, uint64[] newPowers, uint indexed seq);\n\n    function updateInternal(address[] newAddress, uint64[] newPowers)\n      equalSizeArrays(newAddress.length, newPowers.length)\n      validatorSizeAtMost100(newAddress.length)\n      internal\n      {\n        addresses = new address[](newAddress.length);\n        powers    = new uint64[](newPowers.length);\n        totalPower = 0;\n        for (uint i = 0; i < newAddress.length; i++) {\n            addresses[i] = newAddress[i];\n            powers[i]    = newPowers[i];\n            totalPower  += newPowers[i];\n        }\n        uint updateCount = updateSeq;\n        Update(addresses, powers, updateCount);\n        updateSeq++;\n    }\n\n    /// Updates validator set. Called by the relayers.\n    /*\n     * @param newAddress  new validators addresses\n     * @param newPower    power of each validator\n     * @param idxs        indexes of each validator\n     * @param v           recovery id. Used to compute ecrecover\n     * @param r           output of ECDSA signature. Used to compute ecrecover\n     * @param s           output of ECDSA signature.  Used to compute ecrecover\n     */\n\n    function update(address[] newAddress, uint64[] newPowers, uint16[] idxs, uint8[] v, bytes32[] r, bytes32[] s)\n      equalSizeArrays(newAddress.length, newPowers.length)\n      public\n    {\n        assert(verify(keccak256(newAddress, newPowers), idxs, v, r, s)); // hashing can be changed\n        updateInternal(newAddress, newPowers);\n    }\n\n    function Valset(address[] initAddress, uint64[] initPowers) public {\n        updateInternal(initAddress, initPowers);\n    }\n}\n",
  "sourcePath": "/Users/federico/Desktop/Blockchain/peggy/ethereum-contracts/contracts/Valset.sol",
  "compiler": {
    "name": "solc",
    "version": "0.4.18+commit.9cf6e910.Emscripten.clang"
  },
  "schemaVersion": "1.0.1",
  "updatedAt": "2018-02-02T18:35:25.973Z"
}