{
  "contractName": "Valset",
  "abi": [
    {
      "constant": true,
      "inputs": [
        {
          "name": "index",
          "type": "uint256"
        }
      ],
      "name": "getPower",
      "outputs": [
        {
          "name": "",
          "type": "uint64"
        }
      ],
      "payable": false,
      "stateMutability": "view",
      "type": "function"
    },
    {
      "constant": false,
      "inputs": [
        {
          "name": "hash",
          "type": "bytes32"
        },
        {
          "name": "signersLen",
          "type": "uint256"
        },
        {
          "name": "signers",
          "type": "uint256[]"
        },
        {
          "name": "v",
          "type": "uint8[]"
        },
        {
          "name": "r",
          "type": "bytes32[]"
        },
        {
          "name": "s",
          "type": "bytes32[]"
        }
      ],
      "name": "verifyValidators",
      "outputs": [
        {
          "name": "",
          "type": "bool"
        }
      ],
      "payable": false,
      "stateMutability": "nonpayable",
      "type": "function"
    },
    {
      "constant": true,
      "inputs": [
        {
          "name": "",
          "type": "uint256"
        }
      ],
      "name": "powers",
      "outputs": [
        {
          "name": "",
          "type": "uint64"
        }
      ],
      "payable": false,
      "stateMutability": "view",
      "type": "function"
    },
    {
      "constant": true,
      "inputs": [],
      "name": "getTotalPower",
      "outputs": [
        {
          "name": "",
          "type": "uint64"
        }
      ],
      "payable": false,
      "stateMutability": "view",
      "type": "function"
    },
    {
      "constant": false,
      "inputs": [
        {
          "name": "newAddress",
          "type": "address[]"
        },
        {
          "name": "newPowers",
          "type": "uint64[]"
        },
        {
          "name": "signers",
          "type": "uint256[]"
        },
        {
          "name": "v",
          "type": "uint8[]"
        },
        {
          "name": "r",
          "type": "bytes32[]"
        },
        {
          "name": "s",
          "type": "bytes32[]"
        }
      ],
      "name": "update",
      "outputs": [
        {
          "name": "",
          "type": "bool"
        }
      ],
      "payable": false,
      "stateMutability": "nonpayable",
      "type": "function"
    },
    {
      "constant": true,
      "inputs": [
        {
          "name": "index",
          "type": "uint256"
        }
      ],
      "name": "getValidator",
      "outputs": [
        {
          "name": "",
          "type": "address"
        }
      ],
      "payable": false,
      "stateMutability": "view",
      "type": "function"
    },
    {
      "constant": true,
      "inputs": [],
      "name": "totalPower",
      "outputs": [
        {
          "name": "",
          "type": "uint64"
        }
      ],
      "payable": false,
      "stateMutability": "view",
      "type": "function"
    },
    {
      "constant": true,
      "inputs": [
        {
          "name": "",
          "type": "uint256"
        }
      ],
      "name": "addresses",
      "outputs": [
        {
          "name": "",
          "type": "address"
        }
      ],
      "payable": false,
      "stateMutability": "view",
      "type": "function"
    },
    {
      "inputs": [
        {
          "name": "initAddress",
          "type": "address[]"
        },
        {
          "name": "initPowers",
          "type": "uint64[]"
        }
      ],
      "payable": false,
      "stateMutability": "nonpayable",
      "type": "constructor"
    },
    {
      "anonymous": false,
      "inputs": [
        {
          "indexed": false,
          "name": "newAddresses",
          "type": "address[]"
        },
        {
          "indexed": false,
          "name": "newPowers",
          "type": "uint64[]"
        },
        {
          "indexed": true,
          "name": "seq",
          "type": "uint256"
        }
      ],
      "name": "Update",
      "type": "event"
    },
    {
      "anonymous": false,
      "inputs": [
        {
          "indexed": false,
          "name": "signers",
          "type": "uint256[]"
        }
      ],
      "name": "Verify",
      "type": "event"
    },
    {
      "anonymous": false,
      "inputs": [
        {
          "indexed": false,
          "name": "signer",
          "type": "address"
        }
      ],
      "name": "DoubleSign",
      "type": "event"
    },
    {
      "anonymous": false,
      "inputs": [
        {
          "indexed": false,
          "name": "signedPower",
          "type": "uint256"
        },
        {
          "indexed": false,
          "name": "accumPower",
          "type": "uint256"
        }
      ],
      "name": "NoSupermajority",
      "type": "event"
    },
    {
      "anonymous": false,
      "inputs": [
        {
          "indexed": false,
          "name": "signers",
          "type": "uint256[]"
        }
      ],
      "name": "NoLen",
      "type": "event"
    },
    {
      "anonymous": false,
      "inputs": [
        {
          "indexed": false,
          "name": "ercaddr",
          "type": "address"
        },
        {
          "indexed": false,
          "name": "signer",
          "type": "address"
        },
        {
          "indexed": false,
          "name": "validatorIdx",
          "type": "uint256"
        },
        {
          "indexed": false,
          "name": "v",
          "type": "uint8"
        },
        {
          "indexed": false,
          "name": "r",
          "type": "bytes32"
        },
        {
          "indexed": false,
          "name": "s",
          "type": "bytes32"
        }
      ],
      "name": "InvalidSignature",
      "type": "event"
    }
  ],
  "bytecode": "0x6060604052600060035534156200001557600080fd5b604051620018c0380380620018c0833981016040528080518201919060200180518201919050506200005c8282620000656401000000000262000dd4176401000000009004565b5050506200059d565b60008060008451845180821415156200007d57600080fd5b8651606481111515156200009057600080fd5b8751604051805910620000a05750595b908082528060200260200182016040525060009080519060200190620000c8929190620003cb565b508651604051805910620000d95750595b908082528060200260200182016040525060019080519060200190620001019291906200045a565b506000600260006101000a81548167ffffffffffffffff021916908367ffffffffffffffff160217905550600094505b8751851015620002795787858151811015156200014a57fe5b906020019060200201516000868154811015156200016457fe5b906000526020600020900160006101000a81548173ffffffffffffffffffffffffffffffffffffffff021916908373ffffffffffffffffffffffffffffffffffffffff1602179055508685815181101515620001bc57fe5b90602001906020020151600186815481101515620001d657fe5b90600052602060002090600491828204019190066008026101000a81548167ffffffffffffffff021916908367ffffffffffffffff16021790555086858151811015156200022057fe5b90602001906020020151600260008282829054906101000a900467ffffffffffffffff160192506101000a81548167ffffffffffffffff021916908367ffffffffffffffff160217905550848060010195505062000131565b6003549350837f41e3e7fbffa8e8d5523f548e6d8f0130b20aa4615fe6d442dae2db7172c84e4a6000600160405180806020018060200183810383528581815481526020019150805480156200032557602002820191906000526020600020905b8160009054906101000a900473ffffffffffffffffffffffffffffffffffffffff1673ffffffffffffffffffffffffffffffffffffffff1681526020019060010190808311620002da575b505083810382528481815481526020019150805480156200039a57602002820191906000526020600020906000905b82829054906101000a900467ffffffffffffffff1667ffffffffffffffff1681526020019060080190602082600701049283019260010382029150808411620003545790505b505094505050505060405180910390a260036000815480929190600101919050555060019550505050505092915050565b82805482825590600052602060002090810192821562000447579160200282015b82811115620004465782518260006101000a81548173ffffffffffffffffffffffffffffffffffffffff021916908373ffffffffffffffffffffffffffffffffffffffff16021790555091602001919060010190620003ec565b5b5090506200045691906200051d565b5090565b828054828255906000526020600020906003016004900481019282156200050a5791602002820160005b83821115620004d257835183826101000a81548167ffffffffffffffff021916908367ffffffffffffffff160217905550926020019260080160208160070104928301926001030262000484565b8015620005085782816101000a81549067ffffffffffffffff0219169055600801602081600701049283019260010302620004d2565b505b50905062000519919062000563565b5090565b6200056091905b808211156200055c57600081816101000a81549073ffffffffffffffffffffffffffffffffffffffff02191690555060010162000524565b5090565b90565b6200059a91905b808211156200059657600081816101000a81549067ffffffffffffffff0219169055506001016200056a565b5090565b90565b61131380620005ad6000396000f30060606040526004361061008e576000357c0100000000000000000000000000000000000000000000000000000000900463ffffffff168063017fe809146100935780632928c678146100de57806340c1bfab1461022657806353976a261461027157806382de8d0a146102ae578063b5d8962714610460578063db3ad22c146104c3578063edf26d9b14610500575b600080fd5b341561009e57600080fd5b6100b46004808035906020019091905050610563565b604051808267ffffffffffffffff1667ffffffffffffffff16815260200191505060405180910390f35b34156100e957600080fd5b61020c600480803560001916906020019091908035906020019091908035906020019082018035906020019080806020026020016040519081016040528093929190818152602001838360200280828437820191505050505050919080359060200190820180359060200190808060200260200160405190810160405280939291908181526020018383602002808284378201915050505050509190803590602001908201803590602001908080602002602001604051908101604052809392919081815260200183836020028082843782019150505050505091908035906020019082018035906020019080806020026020016040519081016040528093929190818152602001838360200280828437820191505050505050919050506105bc565b604051808215151515815260200191505060405180910390f35b341561023157600080fd5b6102476004808035906020019091905050610b54565b604051808267ffffffffffffffff1667ffffffffffffffff16815260200191505060405180910390f35b341561027c57600080fd5b610284610b91565b604051808267ffffffffffffffff1667ffffffffffffffff16815260200191505060405180910390f35b34156102b957600080fd5b6104466004808035906020019082018035906020019080806020026020016040519081016040528093929190818152602001838360200280828437820191505050505050919080359060200190820180359060200190808060200260200160405190810160405280939291908181526020018383602002808284378201915050505050509190803590602001908201803590602001908080602002602001604051908101604052809392919081815260200183836020028082843782019150505050505091908035906020019082018035906020019080806020026020016040519081016040528093929190818152602001838360200280828437820191505050505050919080359060200190820180359060200190808060200260200160405190810160405280939291908181526020018383602002808284378201915050505050509190803590602001908201803590602001908080602002602001604051908101604052809392919081815260200183836020028082843782019150505050505091905050610baf565b604051808215151515815260200191505060405180910390f35b341561046b57600080fd5b6104816004808035906020019091905050610c8d565b604051808273ffffffffffffffffffffffffffffffffffffffff1673ffffffffffffffffffffffffffffffffffffffff16815260200191505060405180910390f35b34156104ce57600080fd5b6104d6610ce8565b604051808267ffffffffffffffff1667ffffffffffffffff16815260200191505060405180910390f35b341561050b57600080fd5b6105216004808035906020019091905050610d02565b604051808273ffffffffffffffffffffffffffffffffffffffff1673ffffffffffffffffffffffffffffffffffffffff16815260200191505060405180910390f35b600081600180549050808210151561057a57600080fd5b60018481548110151561058957fe5b90600052602060002090600491828204019190066008029054906101000a900467ffffffffffffffff1692505050919050565b60008060008060009250600091505b88821015610a2157600082118015610614575087600183038151811015156105ef57fe5b90602001906020020151888381518110151561060757fe5b9060200190602002015111155b156106d6577f3f239fced56fc65830a1313eda940a92c4799254a05b2493d71d5afd9d9cb1026000898481518110151561064a57fe5b9060200190602002015181548110151561066057fe5b906000526020600020900160009054906101000a900473ffffffffffffffffffffffffffffffffffffffff16604051808273ffffffffffffffffffffffffffffffffffffffff1673ffffffffffffffffffffffffffffffffffffffff16815260200191505060405180910390a160009350610b47565b61076c8a888a858151811015156106e957fe5b906020019060200201518151811015156106ff57fe5b90602001906020020151888b8681518110151561071857fe5b9060200190602002015181518110151561072e57fe5b90602001906020020151888c8781518110151561074757fe5b9060200190602002015181518110151561075d57fe5b90602001906020020151610d41565b90506000888381518110151561077e57fe5b9060200190602002015181548110151561079457fe5b906000526020600020900160009054906101000a900473ffffffffffffffffffffffffffffffffffffffff1673ffffffffffffffffffffffffffffffffffffffff168173ffffffffffffffffffffffffffffffffffffffff16141561084c576001888381518110151561080357fe5b9060200190602002015181548110151561081957fe5b90600052602060002090600491828204019190066008029054906101000a900467ffffffffffffffff1683019250610a14565b7f613e3ebf516c858edb3ddc38332b0351b14a2a1d2facaeab95928445f53997b28160008a8581518110151561087e57fe5b9060200190602002015181548110151561089457fe5b906000526020600020900160009054906101000a900473ffffffffffffffffffffffffffffffffffffffff168a858151811015156108ce57fe5b906020019060200201518a8c878151811015156108e757fe5b906020019060200201518151811015156108fd57fe5b906020019060200201518a8d8881518110151561091657fe5b9060200190602002015181518110151561092c57fe5b906020019060200201518a8e8981518110151561094557fe5b9060200190602002015181518110151561095b57fe5b90602001906020020151604051808773ffffffffffffffffffffffffffffffffffffffff1673ffffffffffffffffffffffffffffffffffffffff1681526020018673ffffffffffffffffffffffffffffffffffffffff1673ffffffffffffffffffffffffffffffffffffffff1681526020018581526020018460ff1660ff16815260200183600019166000191681526020018260001916600019168152602001965050505050505060405180910390a160009350610b47565b81806001019250506105cb565b60028060009054906101000a900467ffffffffffffffff160267ffffffffffffffff166003840267ffffffffffffffff161015610aca577f2e3d08875a184ff8f9f21f46aff8997ebcd6bbc5b9fa1537c2859731ab3c92d683600260009054906101000a900467ffffffffffffffff16604051808367ffffffffffffffff1681526020018267ffffffffffffffff1681526020019250505060405180910390a160009350610b47565b7fd7ac6491cea9eeaef1d8fd10e62c9e98d368c2d7cb408ce4ada5cd90131a1a35886040518080602001828103825283818151815260200191508051906020019060200280838360005b83811015610b2f578082015181840152602081019050610b14565b505050509050019250505060405180910390a1600193505b5050509695505050505050565b600181815481101515610b6357fe5b9060005260206000209060049182820401919006600802915054906101000a900467ffffffffffffffff1681565b6000600260009054906101000a900467ffffffffffffffff16905090565b60008085518851808211158015610bc7575060648111155b1515610bd257600080fd5b898960405180838051906020019060200280838360005b83811015610c04578082015181840152602081019050610be9565b50505050905001828051906020019060200280838360005b83811015610c37578082015181840152602081019050610c1c565b505050509050019250505060405180910390209250610c5b8389518a8a8a8a6105bc565b1515610c6357fe5b610c6d8a8a610dd4565b15610c7b5760019350610c80565b600093505b5050509695505050505050565b6000816000805490508082101515610ca457600080fd5b600084815481101515610cb357fe5b906000526020600020900160009054906101000a900473ffffffffffffffffffffffffffffffffffffffff1692505050919050565b600260009054906101000a900467ffffffffffffffff1681565b600081815481101515610d1157fe5b90600052602060002090016000915054906101000a900473ffffffffffffffffffffffffffffffffffffffff1681565b6000600185858585604051600081526020016040526000604051602001526040518085600019166000191681526020018460ff1660ff16815260200183600019166000191681526020018260001916600019168152602001945050505050602060405160208103908084039060008661646e5a03f11515610dc157600080fd5b5050602060405103519050949350505050565b6000806000845184518082141515610deb57600080fd5b865160648111151515610dfd57600080fd5b8751604051805910610e0c5750595b908082528060200260200182016040525060009080519060200190610e32929190611127565b508651604051805910610e425750595b908082528060200260200182016040525060019080519060200190610e689291906111b1565b506000600260006101000a81548167ffffffffffffffff021916908367ffffffffffffffff160217905550600094505b8751851015610fd9578785815181101515610eaf57fe5b90602001906020020151600086815481101515610ec857fe5b906000526020600020900160006101000a81548173ffffffffffffffffffffffffffffffffffffffff021916908373ffffffffffffffffffffffffffffffffffffffff1602179055508685815181101515610f1f57fe5b90602001906020020151600186815481101515610f3857fe5b90600052602060002090600491828204019190066008026101000a81548167ffffffffffffffff021916908367ffffffffffffffff1602179055508685815181101515610f8157fe5b90602001906020020151600260008282829054906101000a900467ffffffffffffffff160192506101000a81548167ffffffffffffffff021916908367ffffffffffffffff1602179055508480600101955050610e98565b6003549350837f41e3e7fbffa8e8d5523f548e6d8f0130b20aa4615fe6d442dae2db7172c84e4a60006001604051808060200180602001838103835285818154815260200191508054801561108357602002820191906000526020600020905b8160009054906101000a900473ffffffffffffffffffffffffffffffffffffffff1673ffffffffffffffffffffffffffffffffffffffff1681526020019060010190808311611039575b505083810382528481815481526020019150805480156110f657602002820191906000526020600020906000905b82829054906101000a900467ffffffffffffffff1667ffffffffffffffff16815260200190600801906020826007010492830192600103820291508084116110b15790505b505094505050505060405180910390a260036000815480929190600101919050555060019550505050505092915050565b8280548282559060005260206000209081019282156111a0579160200282015b8281111561119f5782518260006101000a81548173ffffffffffffffffffffffffffffffffffffffff021916908373ffffffffffffffffffffffffffffffffffffffff16021790555091602001919060010190611147565b5b5090506111ad919061126d565b5090565b8280548282559060005260206000209060030160049004810192821561125c5791602002820160005b8382111561122657835183826101000a81548167ffffffffffffffff021916908367ffffffffffffffff16021790555092602001926008016020816007010492830192600103026111da565b801561125a5782816101000a81549067ffffffffffffffff0219169055600801602081600701049283019260010302611226565b505b50905061126991906112b0565b5090565b6112ad91905b808211156112a957600081816101000a81549073ffffffffffffffffffffffffffffffffffffffff021916905550600101611273565b5090565b90565b6112e491905b808211156112e057600081816101000a81549067ffffffffffffffff0219169055506001016112b6565b5090565b905600a165627a7a72305820edc8d5d79629f4f0a697f8abf05acba95b00455abaf9b279e8f7dcb31d849da50029",
  "source": "pragma solidity ^0.4.11;\n\ncontract Valset {\n\n    /* Variables */\n\n    address[] public addresses;\n    uint64[] public powers;\n    uint64 public totalPower;\n    uint internal updateSeq = 0;\n\n    /* modifiers */\n\n    modifier indexDoesntOverflow(uint index, uint length) {\n      require(index < length);\n      _;\n    }\n\n    modifier equalSizeArrays(uint validatorsLength, uint powersLenght) {\n      require(validatorsLength == powersLenght);\n      _;\n    }\n\n    modifier validatorSizeAtMost100(uint length) {\n      require(length <= 100);\n      _;\n    }\n\n    modifier valSetLargerThanSigners(uint signersLen, uint valLen) {\n      require((signersLen <= valLen) && (valLen <= 100));\n      _;\n    }\n\n    modifier equalSignatureLen(uint signersLen, uint vLen, uint rLen, uint sLen) {\n      require((signersLen == vLen) && (vLen == rLen) && (rLen == sLen));\n      _;\n    }\n\n    /* Events */\n\n    event Update(address[] newAddresses, uint64[] newPowers, uint indexed seq);\n    event Verify(uint[] signers);\n    event DoubleSign(address signer);\n    event NoSupermajority(uint signedPower, uint accumPower);\n    event NoLen(uint[] signers);\n    event InvalidSignature(address ercaddr, address signer, uint validatorIdx, uint8 v, bytes32 r, bytes32 s);\n\n    /* Functions */\n\n    function getTotalPower() public constant returns (uint64) {\n      return totalPower;\n    }\n\n    function getValidator(uint index)\n      indexDoesntOverflow(index, addresses.length)\n      public\n      constant\n      returns (address)\n    {\n      return addresses[index];\n    }\n\n    function getPower(uint index)\n      indexDoesntOverflow(index, powers.length)\n      public\n      constant\n      returns (uint64)\n    {\n      return powers[index];\n    }\n\n\n    function verify(bytes32 hash, uint8 v, bytes32 r, bytes32 s)\n      internal\n      pure\n      returns(address)\n    {\n      /* bytes memory prefix = \"\\x19Ethereum Signed Message:\\n32\"; */\n      /* bytes32 prefixedHash = keccak256(prefix, hash); */\n      return ecrecover(hash, v, r, s);\n    }\n\n    function verifyValidators(bytes32 hash, uint signersLen, uint[] signers, uint8[] v, bytes32[] r, bytes32[] s)\n      /* valSetLargerThanSigners(len, addresses.length) */\n      /* equalSignatureLen(signers.length, v.length, r.length, s.length) */\n      public\n      returns (bool)\n    {\n      uint64 signedPower = 0;\n      for (uint i = 0; i < signersLen; i++) {\n          if (i > 0 && signers[i] <= signers[i-1]) {\n            DoubleSign(addresses[signers[i]]);\n            return false; // validators can't sign more than once\n          }\n          address addrErc = verify(hash, v[signers[i]], r[signers[i]], s[signers[i]]);\n          if (addrErc == addresses[signers[i]]) {\n            signedPower += powers[signers[i]];\n          } else {\n            InvalidSignature(addrErc, addresses[signers[i]], signers[i], v[signers[i]], r[signers[i]], s[signers[i]]);\n            return false;\n          }\n      }\n      if (signedPower * 3 < totalPower * 2) {\n        NoSupermajority(signedPower, totalPower);\n        return false;\n      }\n      Verify(signers);\n      return true;\n    }\n\n    function updateInternal(address[] newAddress, uint64[] newPowers)\n      equalSizeArrays(newAddress.length, newPowers.length)\n      validatorSizeAtMost100(newAddress.length)\n      internal\n      returns (bool)\n      {\n        addresses = new address[](newAddress.length);\n        powers    = new uint64[](newPowers.length);\n        totalPower = 0;\n        for (uint i = 0; i < newAddress.length; i++) {\n            addresses[i] = newAddress[i];\n            powers[i]    = newPowers[i];\n            totalPower  += newPowers[i];\n        }\n        uint updateCount = updateSeq;\n        Update(addresses, powers, updateCount);\n        updateSeq++;\n        return true;\n    }\n\n    /// Updates validator set. Called by the relayers.\n    /*\n     * @param newAddress  new validators addresses\n     * @param newPower    power of each validator\n     * @param signers     indexes of each signer validator\n     * @param v           recovery id. Used to compute ecrecover\n     * @param r           output of ECDSA signature. Used to compute ecrecover\n     * @param s           output of ECDSA signature.  Used to compute ecrecover\n     */\n\n    function update(address[] newAddress, uint64[] newPowers, uint[] signers, uint8[] v, bytes32[] r, bytes32[] s)\n      /* equalSizeArrays(newAddress.length, newPowers.length) */\n      valSetLargerThanSigners(signers.length, newAddress.length)\n      /* equalSignatureLen(signers.length, v.length, r.length, s.length) */\n      public\n      returns (bool)\n    {\n        bytes32 hashData = keccak256(newAddress, newPowers);\n        assert(verifyValidators(hashData, signers.length, signers, v, r, s)); // hashing can be changed\n        if (updateInternal(newAddress, newPowers)) {\n          return true;\n        } else {\n          return false;\n        }\n    }\n\n    function Valset(address[] initAddress, uint64[] initPowers) public {\n        updateInternal(initAddress, initPowers);\n    }\n}\n",
  "sourcePath": "/Users/federico/Desktop/Blockchain/peggy/ethereum-contracts/contracts/Valset.sol",
  "compiler": {
    "name": "solc",
    "version": "0.4.18+commit.9cf6e910.Emscripten.clang"
  },
  "schemaVersion": "1.0.1",
  "updatedAt": "2018-02-13T15:24:16.997Z"
}